{
	"contracts/Alaneme/AlanemeBUNN.sol": {
		"ERC20": {
			"abi": [
				{
					"inputs": [
						{
							"internalType": "string",
							"name": "_name",
							"type": "string"
						},
						{
							"internalType": "string",
							"name": "_symbol",
							"type": "string"
						}
					],
					"stateMutability": "nonpayable",
					"type": "constructor"
				},
				{
					"anonymous": false,
					"inputs": [
						{
							"indexed": true,
							"internalType": "address",
							"name": "owner",
							"type": "address"
						},
						{
							"indexed": true,
							"internalType": "address",
							"name": "spender",
							"type": "address"
						},
						{
							"indexed": false,
							"internalType": "uint256",
							"name": "amount",
							"type": "uint256"
						}
					],
					"name": "Approval",
					"type": "event"
				},
				{
					"anonymous": false,
					"inputs": [
						{
							"indexed": true,
							"internalType": "address",
							"name": "from",
							"type": "address"
						},
						{
							"indexed": true,
							"internalType": "address",
							"name": "to",
							"type": "address"
						},
						{
							"indexed": false,
							"internalType": "uint256",
							"name": "amount",
							"type": "uint256"
						}
					],
					"name": "Transfer",
					"type": "event"
				},
				{
					"inputs": [
						{
							"internalType": "address",
							"name": "",
							"type": "address"
						},
						{
							"internalType": "address",
							"name": "",
							"type": "address"
						}
					],
					"name": "allowance",
					"outputs": [
						{
							"internalType": "uint256",
							"name": "",
							"type": "uint256"
						}
					],
					"stateMutability": "view",
					"type": "function"
				},
				{
					"inputs": [
						{
							"internalType": "address",
							"name": "spender",
							"type": "address"
						},
						{
							"internalType": "uint256",
							"name": "amount",
							"type": "uint256"
						}
					],
					"name": "appropve",
					"outputs": [
						{
							"internalType": "bool",
							"name": "",
							"type": "bool"
						}
					],
					"stateMutability": "nonpayable",
					"type": "function"
				},
				{
					"inputs": [
						{
							"internalType": "address",
							"name": "",
							"type": "address"
						}
					],
					"name": "balanceof",
					"outputs": [
						{
							"internalType": "uint256",
							"name": "",
							"type": "uint256"
						}
					],
					"stateMutability": "view",
					"type": "function"
				},
				{
					"inputs": [],
					"name": "decimal",
					"outputs": [
						{
							"internalType": "uint8",
							"name": "",
							"type": "uint8"
						}
					],
					"stateMutability": "pure",
					"type": "function"
				},
				{
					"inputs": [],
					"name": "name",
					"outputs": [
						{
							"internalType": "string",
							"name": "",
							"type": "string"
						}
					],
					"stateMutability": "view",
					"type": "function"
				},
				{
					"inputs": [],
					"name": "symbol",
					"outputs": [
						{
							"internalType": "string",
							"name": "",
							"type": "string"
						}
					],
					"stateMutability": "view",
					"type": "function"
				},
				{
					"inputs": [],
					"name": "totalsupply",
					"outputs": [
						{
							"internalType": "uint256",
							"name": "",
							"type": "uint256"
						}
					],
					"stateMutability": "view",
					"type": "function"
				},
				{
					"inputs": [
						{
							"internalType": "address",
							"name": "recipient",
							"type": "address"
						},
						{
							"internalType": "uint256",
							"name": "amount",
							"type": "uint256"
						}
					],
					"name": "transferFrom",
					"outputs": [
						{
							"internalType": "bool",
							"name": "",
							"type": "bool"
						}
					],
					"stateMutability": "nonpayable",
					"type": "function"
				},
				{
					"inputs": [
						{
							"internalType": "address",
							"name": "sender",
							"type": "address"
						},
						{
							"internalType": "address",
							"name": "recipient",
							"type": "address"
						},
						{
							"internalType": "uint256",
							"name": "amount",
							"type": "uint256"
						}
					],
					"name": "transferfrom",
					"outputs": [
						{
							"internalType": "bool",
							"name": "",
							"type": "bool"
						}
					],
					"stateMutability": "nonpayable",
					"type": "function"
				}
			],
			"devdoc": {
				"kind": "dev",
				"methods": {},
				"version": 1
			},
			"evm": {
				"assembly": "    /* \"contracts/Alaneme/AlanemeBUNN.sol\":60:2655  contract ERC20{... */\n  mstore(0x40, 0x80)\n    /* \"contracts/Alaneme/AlanemeBUNN.sol\":522:707  constructor(string memory _name, string memory _symbol){... */\n  callvalue\n  dup1\n  iszero\n  tag_1\n  jumpi\n  0x00\n  dup1\n  revert\ntag_1:\n  pop\n  mload(0x40)\n  sub(codesize, bytecodeSize)\n  dup1\n  bytecodeSize\n  dup4\n  codecopy\n  dup2\n  dup2\n  add\n  0x40\n  mstore\n  dup2\n  add\n  swap1\n  tag_2\n  swap2\n  swap1\n  tag_3\n  jump\t// in\ntag_2:\n    /* \"contracts/Alaneme/AlanemeBUNN.sol\":595:600  _name */\n  dup2\n    /* \"contracts/Alaneme/AlanemeBUNN.sol\":588:592  name */\n  0x01\n    /* \"contracts/Alaneme/AlanemeBUNN.sol\":588:600  name = _name */\n  swap1\n  dup2\n  tag_6\n  swap2\n  swap1\n  tag_7\n  jump\t// in\ntag_6:\n  pop\n    /* \"contracts/Alaneme/AlanemeBUNN.sol\":620:627  _symbol */\n  dup1\n    /* \"contracts/Alaneme/AlanemeBUNN.sol\":611:617  symbol */\n  0x02\n    /* \"contracts/Alaneme/AlanemeBUNN.sol\":611:627  symbol = _symbol */\n  swap1\n  dup2\n  tag_8\n  swap2\n  swap1\n  tag_7\n  jump\t// in\ntag_8:\n  pop\n    /* \"contracts/Alaneme/AlanemeBUNN.sol\":640:665  _mint(msg.sender, 600e18) */\n  tag_9\n    /* \"contracts/Alaneme/AlanemeBUNN.sol\":646:656  msg.sender */\n  caller\n    /* \"contracts/Alaneme/AlanemeBUNN.sol\":658:664  600e18 */\n  0x2086ac351052600000\n    /* \"contracts/Alaneme/AlanemeBUNN.sol\":640:645  _mint */\n  shl(0x20, tag_10)\n    /* \"contracts/Alaneme/AlanemeBUNN.sol\":640:665  _mint(msg.sender, 600e18) */\n  0x20\n  shr\n  jump\t// in\ntag_9:\n    /* \"contracts/Alaneme/AlanemeBUNN.sol\":678:703  _burn(msg.sender, 400e18) */\n  tag_11\n    /* \"contracts/Alaneme/AlanemeBUNN.sol\":684:694  msg.sender */\n  caller\n    /* \"contracts/Alaneme/AlanemeBUNN.sol\":696:702  400e18 */\n  0x15af1d78b58c400000\n    /* \"contracts/Alaneme/AlanemeBUNN.sol\":678:683  _burn */\n  shl(0x20, tag_12)\n    /* \"contracts/Alaneme/AlanemeBUNN.sol\":678:703  _burn(msg.sender, 400e18) */\n  0x20\n  shr\n  jump\t// in\ntag_11:\n    /* \"contracts/Alaneme/AlanemeBUNN.sol\":522:707  constructor(string memory _name, string memory _symbol){... */\n  pop\n  pop\n    /* \"contracts/Alaneme/AlanemeBUNN.sol\":60:2655  contract ERC20{... */\n  jump(tag_13)\n    /* \"contracts/Alaneme/AlanemeBUNN.sol\":2416:2650  function _mint(address to, uint256 amount) internal{... */\ntag_10:\n    /* \"contracts/Alaneme/AlanemeBUNN.sol\":2501:2502  0 */\n  0x00\n    /* \"contracts/Alaneme/AlanemeBUNN.sol\":2487:2503  to != address(0) */\n  0xffffffffffffffffffffffffffffffffffffffff\n  and\n    /* \"contracts/Alaneme/AlanemeBUNN.sol\":2487:2489  to */\n  dup3\n    /* \"contracts/Alaneme/AlanemeBUNN.sol\":2487:2503  to != address(0) */\n  0xffffffffffffffffffffffffffffffffffffffff\n  and\n  sub\n    /* \"contracts/Alaneme/AlanemeBUNN.sol\":2479:2531  require(to != address(0), \"Erc20 mint to address 0\") */\n  tag_15\n  jumpi\n  mload(0x40)\n  0x08c379a000000000000000000000000000000000000000000000000000000000\n  dup2\n  mstore\n  0x04\n  add\n  tag_16\n  swap1\n  tag_17\n  jump\t// in\ntag_16:\n  mload(0x40)\n  dup1\n  swap2\n  sub\n  swap1\n  revert\ntag_15:\n    /* \"contracts/Alaneme/AlanemeBUNN.sol\":2559:2565  amount */\n  dup1\n    /* \"contracts/Alaneme/AlanemeBUNN.sol\":2544:2555  totalsupply */\n  0x00\n  dup1\n    /* \"contracts/Alaneme/AlanemeBUNN.sol\":2544:2565  totalsupply += amount */\n  dup3\n  dup3\n  sload\n  tag_18\n  swap2\n  swap1\n  tag_19\n  jump\t// in\ntag_18:\n  swap3\n  pop\n  pop\n  dup2\n  swap1\n  sstore\n  pop\n    /* \"contracts/Alaneme/AlanemeBUNN.sol\":2593:2599  amount */\n  dup1\n    /* \"contracts/Alaneme/AlanemeBUNN.sol\":2576:2585  balanceof */\n  0x03\n    /* \"contracts/Alaneme/AlanemeBUNN.sol\":2576:2589  balanceof[to] */\n  0x00\n    /* \"contracts/Alaneme/AlanemeBUNN.sol\":2586:2588  to */\n  dup5\n    /* \"contracts/Alaneme/AlanemeBUNN.sol\":2576:2589  balanceof[to] */\n  0xffffffffffffffffffffffffffffffffffffffff\n  and\n  0xffffffffffffffffffffffffffffffffffffffff\n  and\n  dup2\n  mstore\n  0x20\n  add\n  swap1\n  dup2\n  mstore\n  0x20\n  add\n  0x00\n  keccak256\n  0x00\n    /* \"contracts/Alaneme/AlanemeBUNN.sol\":2576:2599  balanceof[to] += amount */\n  dup3\n  dup3\n  sload\n  tag_20\n  swap2\n  swap1\n  tag_19\n  jump\t// in\ntag_20:\n  swap3\n  pop\n  pop\n  dup2\n  swap1\n  sstore\n  pop\n    /* \"contracts/Alaneme/AlanemeBUNN.sol\":2632:2634  to */\n  dup2\n    /* \"contracts/Alaneme/AlanemeBUNN.sol\":2611:2643  Transfer(address(0), to, amount) */\n  0xffffffffffffffffffffffffffffffffffffffff\n  and\n    /* \"contracts/Alaneme/AlanemeBUNN.sol\":2628:2629  0 */\n  0x00\n    /* \"contracts/Alaneme/AlanemeBUNN.sol\":2611:2643  Transfer(address(0), to, amount) */\n  0xffffffffffffffffffffffffffffffffffffffff\n  and\n  0xddf252ad1be2c89b69c2b068fc378daa952ba7f163c4a11628f55a4df523b3ef\n    /* \"contracts/Alaneme/AlanemeBUNN.sol\":2636:2642  amount */\n  dup4\n    /* \"contracts/Alaneme/AlanemeBUNN.sol\":2611:2643  Transfer(address(0), to, amount) */\n  mload(0x40)\n  tag_21\n  swap2\n  swap1\n  tag_22\n  jump\t// in\ntag_21:\n  mload(0x40)\n  dup1\n  swap2\n  sub\n  swap1\n  log3\n    /* \"contracts/Alaneme/AlanemeBUNN.sol\":2416:2650  function _mint(address to, uint256 amount) internal{... */\n  pop\n  pop\n  jump\t// out\n    /* \"contracts/Alaneme/AlanemeBUNN.sol\":2181:2408  function _burn(address to, uint256 amount) internal {... */\ntag_12:\n    /* \"contracts/Alaneme/AlanemeBUNN.sol\":2262:2263  0 */\n  0x00\n    /* \"contracts/Alaneme/AlanemeBUNN.sol\":2248:2264  to != address(0) */\n  0xffffffffffffffffffffffffffffffffffffffff\n  and\n    /* \"contracts/Alaneme/AlanemeBUNN.sol\":2248:2250  to */\n  dup3\n    /* \"contracts/Alaneme/AlanemeBUNN.sol\":2248:2264  to != address(0) */\n  0xffffffffffffffffffffffffffffffffffffffff\n  and\n  sub\n    /* \"contracts/Alaneme/AlanemeBUNN.sol\":2240:2299  require(to != address(0), \"erc20: burn from the 0 address\") */\n  tag_24\n  jumpi\n  mload(0x40)\n  0x08c379a000000000000000000000000000000000000000000000000000000000\n  dup2\n  mstore\n  0x04\n  add\n  tag_25\n  swap1\n  tag_26\n  jump\t// in\ntag_25:\n  mload(0x40)\n  dup1\n  swap2\n  sub\n  swap1\n  revert\ntag_24:\n    /* \"contracts/Alaneme/AlanemeBUNN.sol\":2325:2331  amount */\n  dup1\n    /* \"contracts/Alaneme/AlanemeBUNN.sol\":2308:2317  balanceof */\n  0x03\n    /* \"contracts/Alaneme/AlanemeBUNN.sol\":2308:2321  balanceof[to] */\n  0x00\n    /* \"contracts/Alaneme/AlanemeBUNN.sol\":2318:2320  to */\n  dup5\n    /* \"contracts/Alaneme/AlanemeBUNN.sol\":2308:2321  balanceof[to] */\n  0xffffffffffffffffffffffffffffffffffffffff\n  and\n  0xffffffffffffffffffffffffffffffffffffffff\n  and\n  dup2\n  mstore\n  0x20\n  add\n  swap1\n  dup2\n  mstore\n  0x20\n  add\n  0x00\n  keccak256\n  0x00\n    /* \"contracts/Alaneme/AlanemeBUNN.sol\":2308:2331  balanceof[to] += amount */\n  dup3\n  dup3\n  sload\n  tag_27\n  swap2\n  swap1\n  tag_19\n  jump\t// in\ntag_27:\n  swap3\n  pop\n  pop\n  dup2\n  swap1\n  sstore\n  pop\n    /* \"contracts/Alaneme/AlanemeBUNN.sol\":2354:2360  amount */\n  dup1\n    /* \"contracts/Alaneme/AlanemeBUNN.sol\":2339:2350  totalsupply */\n  0x00\n  dup1\n    /* \"contracts/Alaneme/AlanemeBUNN.sol\":2339:2360  totalsupply += amount */\n  dup3\n  dup3\n  sload\n  tag_28\n  swap2\n  swap1\n  tag_19\n  jump\t// in\ntag_28:\n  swap3\n  pop\n  pop\n  dup2\n  swap1\n  sstore\n  pop\n    /* \"contracts/Alaneme/AlanemeBUNN.sol\":2393:2394  0 */\n  0x00\n    /* \"contracts/Alaneme/AlanemeBUNN.sol\":2372:2404  Transfer(to, address(0), amount) */\n  0xffffffffffffffffffffffffffffffffffffffff\n  and\n    /* \"contracts/Alaneme/AlanemeBUNN.sol\":2381:2383  to */\n  dup3\n    /* \"contracts/Alaneme/AlanemeBUNN.sol\":2372:2404  Transfer(to, address(0), amount) */\n  0xffffffffffffffffffffffffffffffffffffffff\n  and\n  0xddf252ad1be2c89b69c2b068fc378daa952ba7f163c4a11628f55a4df523b3ef\n    /* \"contracts/Alaneme/AlanemeBUNN.sol\":2397:2403  amount */\n  dup4\n    /* \"contracts/Alaneme/AlanemeBUNN.sol\":2372:2404  Transfer(to, address(0), amount) */\n  mload(0x40)\n  tag_29\n  swap2\n  swap1\n  tag_22\n  jump\t// in\ntag_29:\n  mload(0x40)\n  dup1\n  swap2\n  sub\n  swap1\n  log3\n    /* \"contracts/Alaneme/AlanemeBUNN.sol\":2181:2408  function _burn(address to, uint256 amount) internal {... */\n  pop\n  pop\n  jump\t// out\n    /* \"#utility.yul\":7:82   */\ntag_30:\n    /* \"#utility.yul\":40:46   */\n  0x00\n    /* \"#utility.yul\":73:75   */\n  0x40\n    /* \"#utility.yul\":67:76   */\n  mload\n    /* \"#utility.yul\":57:76   */\n  swap1\n  pop\n    /* \"#utility.yul\":7:82   */\n  swap1\n  jump\t// out\n    /* \"#utility.yul\":88:205   */\ntag_31:\n    /* \"#utility.yul\":197:198   */\n  0x00\n    /* \"#utility.yul\":194:195   */\n  dup1\n    /* \"#utility.yul\":187:199   */\n  revert\n    /* \"#utility.yul\":211:328   */\ntag_32:\n    /* \"#utility.yul\":320:321   */\n  0x00\n    /* \"#utility.yul\":317:318   */\n  dup1\n    /* \"#utility.yul\":310:322   */\n  revert\n    /* \"#utility.yul\":334:451   */\ntag_33:\n    /* \"#utility.yul\":443:444   */\n  0x00\n    /* \"#utility.yul\":440:441   */\n  dup1\n    /* \"#utility.yul\":433:445   */\n  revert\n    /* \"#utility.yul\":457:574   */\ntag_34:\n    /* \"#utility.yul\":566:567   */\n  0x00\n    /* \"#utility.yul\":563:564   */\n  dup1\n    /* \"#utility.yul\":556:568   */\n  revert\n    /* \"#utility.yul\":580:682   */\ntag_35:\n    /* \"#utility.yul\":621:627   */\n  0x00\n    /* \"#utility.yul\":672:674   */\n  0x1f\n    /* \"#utility.yul\":668:675   */\n  not\n    /* \"#utility.yul\":663:665   */\n  0x1f\n    /* \"#utility.yul\":656:661   */\n  dup4\n    /* \"#utility.yul\":652:666   */\n  add\n    /* \"#utility.yul\":648:676   */\n  and\n    /* \"#utility.yul\":638:676   */\n  swap1\n  pop\n    /* \"#utility.yul\":580:682   */\n  swap2\n  swap1\n  pop\n  jump\t// out\n    /* \"#utility.yul\":688:868   */\ntag_36:\n    /* \"#utility.yul\":736:813   */\n  0x4e487b7100000000000000000000000000000000000000000000000000000000\n    /* \"#utility.yul\":733:734   */\n  0x00\n    /* \"#utility.yul\":726:814   */\n  mstore\n    /* \"#utility.yul\":833:837   */\n  0x41\n    /* \"#utility.yul\":830:831   */\n  0x04\n    /* \"#utility.yul\":823:838   */\n  mstore\n    /* \"#utility.yul\":857:861   */\n  0x24\n    /* \"#utility.yul\":854:855   */\n  0x00\n    /* \"#utility.yul\":847:862   */\n  revert\n    /* \"#utility.yul\":874:1155   */\ntag_37:\n    /* \"#utility.yul\":957:984   */\n  tag_78\n    /* \"#utility.yul\":979:983   */\n  dup3\n    /* \"#utility.yul\":957:984   */\n  tag_35\n  jump\t// in\ntag_78:\n    /* \"#utility.yul\":949:955   */\n  dup2\n    /* \"#utility.yul\":945:985   */\n  add\n    /* \"#utility.yul\":1087:1093   */\n  dup2\n    /* \"#utility.yul\":1075:1085   */\n  dup2\n    /* \"#utility.yul\":1072:1094   */\n  lt\n    /* \"#utility.yul\":1051:1069   */\n  0xffffffffffffffff\n    /* \"#utility.yul\":1039:1049   */\n  dup3\n    /* \"#utility.yul\":1036:1070   */\n  gt\n    /* \"#utility.yul\":1033:1095   */\n  or\n    /* \"#utility.yul\":1030:1118   */\n  iszero\n  tag_79\n  jumpi\n    /* \"#utility.yul\":1098:1116   */\n  tag_80\n  tag_36\n  jump\t// in\ntag_80:\n    /* \"#utility.yul\":1030:1118   */\ntag_79:\n    /* \"#utility.yul\":1138:1148   */\n  dup1\n    /* \"#utility.yul\":1134:1136   */\n  0x40\n    /* \"#utility.yul\":1127:1149   */\n  mstore\n    /* \"#utility.yul\":917:1155   */\n  pop\n    /* \"#utility.yul\":874:1155   */\n  pop\n  pop\n  jump\t// out\n    /* \"#utility.yul\":1161:1290   */\ntag_38:\n    /* \"#utility.yul\":1195:1201   */\n  0x00\n    /* \"#utility.yul\":1222:1242   */\n  tag_82\n  tag_30\n  jump\t// in\ntag_82:\n    /* \"#utility.yul\":1212:1242   */\n  swap1\n  pop\n    /* \"#utility.yul\":1251:1284   */\n  tag_83\n    /* \"#utility.yul\":1279:1283   */\n  dup3\n    /* \"#utility.yul\":1271:1277   */\n  dup3\n    /* \"#utility.yul\":1251:1284   */\n  tag_37\n  jump\t// in\ntag_83:\n    /* \"#utility.yul\":1161:1290   */\n  swap2\n  swap1\n  pop\n  jump\t// out\n    /* \"#utility.yul\":1296:1604   */\ntag_39:\n    /* \"#utility.yul\":1358:1362   */\n  0x00\n    /* \"#utility.yul\":1448:1466   */\n  0xffffffffffffffff\n    /* \"#utility.yul\":1440:1446   */\n  dup3\n    /* \"#utility.yul\":1437:1467   */\n  gt\n    /* \"#utility.yul\":1434:1490   */\n  iszero\n  tag_85\n  jumpi\n    /* \"#utility.yul\":1470:1488   */\n  tag_86\n  tag_36\n  jump\t// in\ntag_86:\n    /* \"#utility.yul\":1434:1490   */\ntag_85:\n    /* \"#utility.yul\":1508:1537   */\n  tag_87\n    /* \"#utility.yul\":1530:1536   */\n  dup3\n    /* \"#utility.yul\":1508:1537   */\n  tag_35\n  jump\t// in\ntag_87:\n    /* \"#utility.yul\":1500:1537   */\n  swap1\n  pop\n    /* \"#utility.yul\":1592:1596   */\n  0x20\n    /* \"#utility.yul\":1586:1590   */\n  dup2\n    /* \"#utility.yul\":1582:1597   */\n  add\n    /* \"#utility.yul\":1574:1597   */\n  swap1\n  pop\n    /* \"#utility.yul\":1296:1604   */\n  swap2\n  swap1\n  pop\n  jump\t// out\n    /* \"#utility.yul\":1610:1856   */\ntag_40:\n    /* \"#utility.yul\":1691:1692   */\n  0x00\n    /* \"#utility.yul\":1701:1814   */\ntag_89:\n    /* \"#utility.yul\":1715:1721   */\n  dup4\n    /* \"#utility.yul\":1712:1713   */\n  dup2\n    /* \"#utility.yul\":1709:1722   */\n  lt\n    /* \"#utility.yul\":1701:1814   */\n  iszero\n  tag_91\n  jumpi\n    /* \"#utility.yul\":1800:1801   */\n  dup1\n    /* \"#utility.yul\":1795:1798   */\n  dup3\n    /* \"#utility.yul\":1791:1802   */\n  add\n    /* \"#utility.yul\":1785:1803   */\n  mload\n    /* \"#utility.yul\":1781:1782   */\n  dup2\n    /* \"#utility.yul\":1776:1779   */\n  dup5\n    /* \"#utility.yul\":1772:1783   */\n  add\n    /* \"#utility.yul\":1765:1804   */\n  mstore\n    /* \"#utility.yul\":1737:1739   */\n  0x20\n    /* \"#utility.yul\":1734:1735   */\n  dup2\n    /* \"#utility.yul\":1730:1740   */\n  add\n    /* \"#utility.yul\":1725:1740   */\n  swap1\n  pop\n    /* \"#utility.yul\":1701:1814   */\n  jump(tag_89)\ntag_91:\n    /* \"#utility.yul\":1848:1849   */\n  0x00\n    /* \"#utility.yul\":1839:1845   */\n  dup5\n    /* \"#utility.yul\":1834:1837   */\n  dup5\n    /* \"#utility.yul\":1830:1846   */\n  add\n    /* \"#utility.yul\":1823:1850   */\n  mstore\n    /* \"#utility.yul\":1672:1856   */\n  pop\n    /* \"#utility.yul\":1610:1856   */\n  pop\n  pop\n  pop\n  jump\t// out\n    /* \"#utility.yul\":1862:2296   */\ntag_41:\n    /* \"#utility.yul\":1951:1956   */\n  0x00\n    /* \"#utility.yul\":1976:2042   */\n  tag_93\n    /* \"#utility.yul\":1992:2041   */\n  tag_94\n    /* \"#utility.yul\":2034:2040   */\n  dup5\n    /* \"#utility.yul\":1992:2041   */\n  tag_39\n  jump\t// in\ntag_94:\n    /* \"#utility.yul\":1976:2042   */\n  tag_38\n  jump\t// in\ntag_93:\n    /* \"#utility.yul\":1967:2042   */\n  swap1\n  pop\n    /* \"#utility.yul\":2065:2071   */\n  dup3\n    /* \"#utility.yul\":2058:2063   */\n  dup2\n    /* \"#utility.yul\":2051:2072   */\n  mstore\n    /* \"#utility.yul\":2103:2107   */\n  0x20\n    /* \"#utility.yul\":2096:2101   */\n  dup2\n    /* \"#utility.yul\":2092:2108   */\n  add\n    /* \"#utility.yul\":2141:2144   */\n  dup5\n    /* \"#utility.yul\":2132:2138   */\n  dup5\n    /* \"#utility.yul\":2127:2130   */\n  dup5\n    /* \"#utility.yul\":2123:2139   */\n  add\n    /* \"#utility.yul\":2120:2145   */\n  gt\n    /* \"#utility.yul\":2117:2229   */\n  iszero\n  tag_95\n  jumpi\n    /* \"#utility.yul\":2148:2227   */\n  tag_96\n  tag_34\n  jump\t// in\ntag_96:\n    /* \"#utility.yul\":2117:2229   */\ntag_95:\n    /* \"#utility.yul\":2238:2290   */\n  tag_97\n    /* \"#utility.yul\":2283:2289   */\n  dup5\n    /* \"#utility.yul\":2278:2281   */\n  dup3\n    /* \"#utility.yul\":2273:2276   */\n  dup6\n    /* \"#utility.yul\":2238:2290   */\n  tag_40\n  jump\t// in\ntag_97:\n    /* \"#utility.yul\":1957:2296   */\n  pop\n    /* \"#utility.yul\":1862:2296   */\n  swap4\n  swap3\n  pop\n  pop\n  pop\n  jump\t// out\n    /* \"#utility.yul\":2316:2671   */\ntag_42:\n    /* \"#utility.yul\":2383:2388   */\n  0x00\n    /* \"#utility.yul\":2432:2435   */\n  dup3\n    /* \"#utility.yul\":2425:2429   */\n  0x1f\n    /* \"#utility.yul\":2417:2423   */\n  dup4\n    /* \"#utility.yul\":2413:2430   */\n  add\n    /* \"#utility.yul\":2409:2436   */\n  slt\n    /* \"#utility.yul\":2399:2521   */\n  tag_99\n  jumpi\n    /* \"#utility.yul\":2440:2519   */\n  tag_100\n  tag_33\n  jump\t// in\ntag_100:\n    /* \"#utility.yul\":2399:2521   */\ntag_99:\n    /* \"#utility.yul\":2550:2556   */\n  dup2\n    /* \"#utility.yul\":2544:2557   */\n  mload\n    /* \"#utility.yul\":2575:2665   */\n  tag_101\n    /* \"#utility.yul\":2661:2664   */\n  dup5\n    /* \"#utility.yul\":2653:2659   */\n  dup3\n    /* \"#utility.yul\":2646:2650   */\n  0x20\n    /* \"#utility.yul\":2638:2644   */\n  dup7\n    /* \"#utility.yul\":2634:2651   */\n  add\n    /* \"#utility.yul\":2575:2665   */\n  tag_41\n  jump\t// in\ntag_101:\n    /* \"#utility.yul\":2566:2665   */\n  swap2\n  pop\n    /* \"#utility.yul\":2389:2671   */\n  pop\n    /* \"#utility.yul\":2316:2671   */\n  swap3\n  swap2\n  pop\n  pop\n  jump\t// out\n    /* \"#utility.yul\":2677:3530   */\ntag_3:\n    /* \"#utility.yul\":2776:2782   */\n  0x00\n    /* \"#utility.yul\":2784:2790   */\n  dup1\n    /* \"#utility.yul\":2833:2835   */\n  0x40\n    /* \"#utility.yul\":2821:2830   */\n  dup4\n    /* \"#utility.yul\":2812:2819   */\n  dup6\n    /* \"#utility.yul\":2808:2831   */\n  sub\n    /* \"#utility.yul\":2804:2836   */\n  slt\n    /* \"#utility.yul\":2801:2920   */\n  iszero\n  tag_103\n  jumpi\n    /* \"#utility.yul\":2839:2918   */\n  tag_104\n  tag_31\n  jump\t// in\ntag_104:\n    /* \"#utility.yul\":2801:2920   */\ntag_103:\n    /* \"#utility.yul\":2980:2981   */\n  0x00\n    /* \"#utility.yul\":2969:2978   */\n  dup4\n    /* \"#utility.yul\":2965:2982   */\n  add\n    /* \"#utility.yul\":2959:2983   */\n  mload\n    /* \"#utility.yul\":3010:3028   */\n  0xffffffffffffffff\n    /* \"#utility.yul\":3002:3008   */\n  dup2\n    /* \"#utility.yul\":2999:3029   */\n  gt\n    /* \"#utility.yul\":2996:3113   */\n  iszero\n  tag_105\n  jumpi\n    /* \"#utility.yul\":3032:3111   */\n  tag_106\n  tag_32\n  jump\t// in\ntag_106:\n    /* \"#utility.yul\":2996:3113   */\ntag_105:\n    /* \"#utility.yul\":3137:3211   */\n  tag_107\n    /* \"#utility.yul\":3203:3210   */\n  dup6\n    /* \"#utility.yul\":3194:3200   */\n  dup3\n    /* \"#utility.yul\":3183:3192   */\n  dup7\n    /* \"#utility.yul\":3179:3201   */\n  add\n    /* \"#utility.yul\":3137:3211   */\n  tag_42\n  jump\t// in\ntag_107:\n    /* \"#utility.yul\":3127:3211   */\n  swap3\n  pop\n    /* \"#utility.yul\":2930:3221   */\n  pop\n    /* \"#utility.yul\":3281:3283   */\n  0x20\n    /* \"#utility.yul\":3270:3279   */\n  dup4\n    /* \"#utility.yul\":3266:3284   */\n  add\n    /* \"#utility.yul\":3260:3285   */\n  mload\n    /* \"#utility.yul\":3312:3330   */\n  0xffffffffffffffff\n    /* \"#utility.yul\":3304:3310   */\n  dup2\n    /* \"#utility.yul\":3301:3331   */\n  gt\n    /* \"#utility.yul\":3298:3415   */\n  iszero\n  tag_108\n  jumpi\n    /* \"#utility.yul\":3334:3413   */\n  tag_109\n  tag_32\n  jump\t// in\ntag_109:\n    /* \"#utility.yul\":3298:3415   */\ntag_108:\n    /* \"#utility.yul\":3439:3513   */\n  tag_110\n    /* \"#utility.yul\":3505:3512   */\n  dup6\n    /* \"#utility.yul\":3496:3502   */\n  dup3\n    /* \"#utility.yul\":3485:3494   */\n  dup7\n    /* \"#utility.yul\":3481:3503   */\n  add\n    /* \"#utility.yul\":3439:3513   */\n  tag_42\n  jump\t// in\ntag_110:\n    /* \"#utility.yul\":3429:3513   */\n  swap2\n  pop\n    /* \"#utility.yul\":3231:3523   */\n  pop\n    /* \"#utility.yul\":2677:3530   */\n  swap3\n  pop\n  swap3\n  swap1\n  pop\n  jump\t// out\n    /* \"#utility.yul\":3536:3635   */\ntag_43:\n    /* \"#utility.yul\":3588:3594   */\n  0x00\n    /* \"#utility.yul\":3622:3627   */\n  dup2\n    /* \"#utility.yul\":3616:3628   */\n  mload\n    /* \"#utility.yul\":3606:3628   */\n  swap1\n  pop\n    /* \"#utility.yul\":3536:3635   */\n  swap2\n  swap1\n  pop\n  jump\t// out\n    /* \"#utility.yul\":3641:3821   */\ntag_44:\n    /* \"#utility.yul\":3689:3766   */\n  0x4e487b7100000000000000000000000000000000000000000000000000000000\n    /* \"#utility.yul\":3686:3687   */\n  0x00\n    /* \"#utility.yul\":3679:3767   */\n  mstore\n    /* \"#utility.yul\":3786:3790   */\n  0x22\n    /* \"#utility.yul\":3783:3784   */\n  0x04\n    /* \"#utility.yul\":3776:3791   */\n  mstore\n    /* \"#utility.yul\":3810:3814   */\n  0x24\n    /* \"#utility.yul\":3807:3808   */\n  0x00\n    /* \"#utility.yul\":3800:3815   */\n  revert\n    /* \"#utility.yul\":3827:4147   */\ntag_45:\n    /* \"#utility.yul\":3871:3877   */\n  0x00\n    /* \"#utility.yul\":3908:3909   */\n  0x02\n    /* \"#utility.yul\":3902:3906   */\n  dup3\n    /* \"#utility.yul\":3898:3910   */\n  div\n    /* \"#utility.yul\":3888:3910   */\n  swap1\n  pop\n    /* \"#utility.yul\":3955:3956   */\n  0x01\n    /* \"#utility.yul\":3949:3953   */\n  dup3\n    /* \"#utility.yul\":3945:3957   */\n  and\n    /* \"#utility.yul\":3976:3994   */\n  dup1\n    /* \"#utility.yul\":3966:4047   */\n  tag_114\n  jumpi\n    /* \"#utility.yul\":4032:4036   */\n  0x7f\n    /* \"#utility.yul\":4024:4030   */\n  dup3\n    /* \"#utility.yul\":4020:4037   */\n  and\n    /* \"#utility.yul\":4010:4037   */\n  swap2\n  pop\n    /* \"#utility.yul\":3966:4047   */\ntag_114:\n    /* \"#utility.yul\":4094:4096   */\n  0x20\n    /* \"#utility.yul\":4086:4092   */\n  dup3\n    /* \"#utility.yul\":4083:4097   */\n  lt\n    /* \"#utility.yul\":4063:4081   */\n  dup2\n    /* \"#utility.yul\":4060:4098   */\n  sub\n    /* \"#utility.yul\":4057:4141   */\n  tag_115\n  jumpi\n    /* \"#utility.yul\":4113:4131   */\n  tag_116\n  tag_44\n  jump\t// in\ntag_116:\n    /* \"#utility.yul\":4057:4141   */\ntag_115:\n    /* \"#utility.yul\":3878:4147   */\n  pop\n    /* \"#utility.yul\":3827:4147   */\n  swap2\n  swap1\n  pop\n  jump\t// out\n    /* \"#utility.yul\":4153:4294   */\ntag_46:\n    /* \"#utility.yul\":4202:4206   */\n  0x00\n    /* \"#utility.yul\":4225:4228   */\n  dup2\n    /* \"#utility.yul\":4217:4228   */\n  swap1\n  pop\n    /* \"#utility.yul\":4248:4251   */\n  dup2\n    /* \"#utility.yul\":4245:4246   */\n  0x00\n    /* \"#utility.yul\":4238:4252   */\n  mstore\n    /* \"#utility.yul\":4282:4286   */\n  0x20\n    /* \"#utility.yul\":4279:4280   */\n  0x00\n    /* \"#utility.yul\":4269:4287   */\n  keccak256\n    /* \"#utility.yul\":4261:4287   */\n  swap1\n  pop\n    /* \"#utility.yul\":4153:4294   */\n  swap2\n  swap1\n  pop\n  jump\t// out\n    /* \"#utility.yul\":4300:4393   */\ntag_47:\n    /* \"#utility.yul\":4337:4343   */\n  0x00\n    /* \"#utility.yul\":4384:4386   */\n  0x20\n    /* \"#utility.yul\":4379:4381   */\n  0x1f\n    /* \"#utility.yul\":4372:4377   */\n  dup4\n    /* \"#utility.yul\":4368:4382   */\n  add\n    /* \"#utility.yul\":4364:4387   */\n  div\n    /* \"#utility.yul\":4354:4387   */\n  swap1\n  pop\n    /* \"#utility.yul\":4300:4393   */\n  swap2\n  swap1\n  pop\n  jump\t// out\n    /* \"#utility.yul\":4399:4506   */\ntag_48:\n    /* \"#utility.yul\":4443:4451   */\n  0x00\n    /* \"#utility.yul\":4493:4498   */\n  dup3\n    /* \"#utility.yul\":4487:4491   */\n  dup3\n    /* \"#utility.yul\":4483:4499   */\n  shl\n    /* \"#utility.yul\":4462:4499   */\n  swap1\n  pop\n    /* \"#utility.yul\":4399:4506   */\n  swap3\n  swap2\n  pop\n  pop\n  jump\t// out\n    /* \"#utility.yul\":4512:4905   */\ntag_49:\n    /* \"#utility.yul\":4581:4587   */\n  0x00\n    /* \"#utility.yul\":4631:4632   */\n  0x08\n    /* \"#utility.yul\":4619:4629   */\n  dup4\n    /* \"#utility.yul\":4615:4633   */\n  mul\n    /* \"#utility.yul\":4654:4751   */\n  tag_121\n    /* \"#utility.yul\":4684:4750   */\n  0xffffffffffffffffffffffffffffffffffffffffffffffffffffffffffffffff\n    /* \"#utility.yul\":4673:4682   */\n  dup3\n    /* \"#utility.yul\":4654:4751   */\n  tag_48\n  jump\t// in\ntag_121:\n    /* \"#utility.yul\":4772:4811   */\n  tag_122\n    /* \"#utility.yul\":4802:4810   */\n  dup7\n    /* \"#utility.yul\":4791:4800   */\n  dup4\n    /* \"#utility.yul\":4772:4811   */\n  tag_48\n  jump\t// in\ntag_122:\n    /* \"#utility.yul\":4760:4811   */\n  swap6\n  pop\n    /* \"#utility.yul\":4844:4848   */\n  dup1\n    /* \"#utility.yul\":4840:4849   */\n  not\n    /* \"#utility.yul\":4833:4838   */\n  dup5\n    /* \"#utility.yul\":4829:4850   */\n  and\n    /* \"#utility.yul\":4820:4850   */\n  swap4\n  pop\n    /* \"#utility.yul\":4893:4897   */\n  dup1\n    /* \"#utility.yul\":4883:4891   */\n  dup7\n    /* \"#utility.yul\":4879:4898   */\n  and\n    /* \"#utility.yul\":4872:4877   */\n  dup5\n    /* \"#utility.yul\":4869:4899   */\n  or\n    /* \"#utility.yul\":4859:4899   */\n  swap3\n  pop\n    /* \"#utility.yul\":4588:4905   */\n  pop\n  pop\n    /* \"#utility.yul\":4512:4905   */\n  swap4\n  swap3\n  pop\n  pop\n  pop\n  jump\t// out\n    /* \"#utility.yul\":4911:4988   */\ntag_50:\n    /* \"#utility.yul\":4948:4955   */\n  0x00\n    /* \"#utility.yul\":4977:4982   */\n  dup2\n    /* \"#utility.yul\":4966:4982   */\n  swap1\n  pop\n    /* \"#utility.yul\":4911:4988   */\n  swap2\n  swap1\n  pop\n  jump\t// out\n    /* \"#utility.yul\":4994:5054   */\ntag_51:\n    /* \"#utility.yul\":5022:5025   */\n  0x00\n    /* \"#utility.yul\":5043:5048   */\n  dup2\n    /* \"#utility.yul\":5036:5048   */\n  swap1\n  pop\n    /* \"#utility.yul\":4994:5054   */\n  swap2\n  swap1\n  pop\n  jump\t// out\n    /* \"#utility.yul\":5060:5202   */\ntag_52:\n    /* \"#utility.yul\":5110:5119   */\n  0x00\n    /* \"#utility.yul\":5143:5196   */\n  tag_126\n    /* \"#utility.yul\":5161:5195   */\n  tag_127\n    /* \"#utility.yul\":5170:5194   */\n  tag_128\n    /* \"#utility.yul\":5188:5193   */\n  dup5\n    /* \"#utility.yul\":5170:5194   */\n  tag_50\n  jump\t// in\ntag_128:\n    /* \"#utility.yul\":5161:5195   */\n  tag_51\n  jump\t// in\ntag_127:\n    /* \"#utility.yul\":5143:5196   */\n  tag_50\n  jump\t// in\ntag_126:\n    /* \"#utility.yul\":5130:5196   */\n  swap1\n  pop\n    /* \"#utility.yul\":5060:5202   */\n  swap2\n  swap1\n  pop\n  jump\t// out\n    /* \"#utility.yul\":5208:5283   */\ntag_53:\n    /* \"#utility.yul\":5251:5254   */\n  0x00\n    /* \"#utility.yul\":5272:5277   */\n  dup2\n    /* \"#utility.yul\":5265:5277   */\n  swap1\n  pop\n    /* \"#utility.yul\":5208:5283   */\n  swap2\n  swap1\n  pop\n  jump\t// out\n    /* \"#utility.yul\":5289:5558   */\ntag_54:\n    /* \"#utility.yul\":5399:5438   */\n  tag_131\n    /* \"#utility.yul\":5430:5437   */\n  dup4\n    /* \"#utility.yul\":5399:5438   */\n  tag_52\n  jump\t// in\ntag_131:\n    /* \"#utility.yul\":5460:5551   */\n  tag_132\n    /* \"#utility.yul\":5509:5550   */\n  tag_133\n    /* \"#utility.yul\":5533:5549   */\n  dup3\n    /* \"#utility.yul\":5509:5550   */\n  tag_53\n  jump\t// in\ntag_133:\n    /* \"#utility.yul\":5501:5507   */\n  dup5\n    /* \"#utility.yul\":5494:5498   */\n  dup5\n    /* \"#utility.yul\":5488:5499   */\n  sload\n    /* \"#utility.yul\":5460:5551   */\n  tag_49\n  jump\t// in\ntag_132:\n    /* \"#utility.yul\":5454:5458   */\n  dup3\n    /* \"#utility.yul\":5447:5552   */\n  sstore\n    /* \"#utility.yul\":5365:5558   */\n  pop\n    /* \"#utility.yul\":5289:5558   */\n  pop\n  pop\n  pop\n  jump\t// out\n    /* \"#utility.yul\":5564:5637   */\ntag_55:\n    /* \"#utility.yul\":5609:5612   */\n  0x00\n    /* \"#utility.yul\":5564:5637   */\n  swap1\n  jump\t// out\n    /* \"#utility.yul\":5643:5832   */\ntag_56:\n    /* \"#utility.yul\":5720:5752   */\n  tag_136\n  tag_55\n  jump\t// in\ntag_136:\n    /* \"#utility.yul\":5761:5826   */\n  tag_137\n    /* \"#utility.yul\":5819:5825   */\n  dup2\n    /* \"#utility.yul\":5811:5817   */\n  dup5\n    /* \"#utility.yul\":5805:5809   */\n  dup5\n    /* \"#utility.yul\":5761:5826   */\n  tag_54\n  jump\t// in\ntag_137:\n    /* \"#utility.yul\":5696:5832   */\n  pop\n    /* \"#utility.yul\":5643:5832   */\n  pop\n  pop\n  jump\t// out\n    /* \"#utility.yul\":5838:6024   */\ntag_57:\n    /* \"#utility.yul\":5898:6018   */\ntag_139:\n    /* \"#utility.yul\":5915:5918   */\n  dup2\n    /* \"#utility.yul\":5908:5913   */\n  dup2\n    /* \"#utility.yul\":5905:5919   */\n  lt\n    /* \"#utility.yul\":5898:6018   */\n  iszero\n  tag_141\n  jumpi\n    /* \"#utility.yul\":5969:6008   */\n  tag_142\n    /* \"#utility.yul\":6006:6007   */\n  0x00\n    /* \"#utility.yul\":5999:6004   */\n  dup3\n    /* \"#utility.yul\":5969:6008   */\n  tag_56\n  jump\t// in\ntag_142:\n    /* \"#utility.yul\":5942:5943   */\n  0x01\n    /* \"#utility.yul\":5935:5940   */\n  dup2\n    /* \"#utility.yul\":5931:5944   */\n  add\n    /* \"#utility.yul\":5922:5944   */\n  swap1\n  pop\n    /* \"#utility.yul\":5898:6018   */\n  jump(tag_139)\ntag_141:\n    /* \"#utility.yul\":5838:6024   */\n  pop\n  pop\n  jump\t// out\n    /* \"#utility.yul\":6030:6573   */\ntag_58:\n    /* \"#utility.yul\":6131:6133   */\n  0x1f\n    /* \"#utility.yul\":6126:6129   */\n  dup3\n    /* \"#utility.yul\":6123:6134   */\n  gt\n    /* \"#utility.yul\":6120:6566   */\n  iszero\n  tag_144\n  jumpi\n    /* \"#utility.yul\":6165:6203   */\n  tag_145\n    /* \"#utility.yul\":6197:6202   */\n  dup2\n    /* \"#utility.yul\":6165:6203   */\n  tag_46\n  jump\t// in\ntag_145:\n    /* \"#utility.yul\":6249:6278   */\n  tag_146\n    /* \"#utility.yul\":6267:6277   */\n  dup5\n    /* \"#utility.yul\":6249:6278   */\n  tag_47\n  jump\t// in\ntag_146:\n    /* \"#utility.yul\":6239:6247   */\n  dup2\n    /* \"#utility.yul\":6235:6279   */\n  add\n    /* \"#utility.yul\":6432:6434   */\n  0x20\n    /* \"#utility.yul\":6420:6430   */\n  dup6\n    /* \"#utility.yul\":6417:6435   */\n  lt\n    /* \"#utility.yul\":6414:6463   */\n  iszero\n  tag_147\n  jumpi\n    /* \"#utility.yul\":6453:6461   */\n  dup2\n    /* \"#utility.yul\":6438:6461   */\n  swap1\n  pop\n    /* \"#utility.yul\":6414:6463   */\ntag_147:\n    /* \"#utility.yul\":6476:6556   */\n  tag_148\n    /* \"#utility.yul\":6532:6554   */\n  tag_149\n    /* \"#utility.yul\":6550:6553   */\n  dup6\n    /* \"#utility.yul\":6532:6554   */\n  tag_47\n  jump\t// in\ntag_149:\n    /* \"#utility.yul\":6522:6530   */\n  dup4\n    /* \"#utility.yul\":6518:6555   */\n  add\n    /* \"#utility.yul\":6505:6516   */\n  dup3\n    /* \"#utility.yul\":6476:6556   */\n  tag_57\n  jump\t// in\ntag_148:\n    /* \"#utility.yul\":6135:6566   */\n  pop\n  pop\n    /* \"#utility.yul\":6120:6566   */\ntag_144:\n    /* \"#utility.yul\":6030:6573   */\n  pop\n  pop\n  pop\n  jump\t// out\n    /* \"#utility.yul\":6579:6696   */\ntag_59:\n    /* \"#utility.yul\":6633:6641   */\n  0x00\n    /* \"#utility.yul\":6683:6688   */\n  dup3\n    /* \"#utility.yul\":6677:6681   */\n  dup3\n    /* \"#utility.yul\":6673:6689   */\n  shr\n    /* \"#utility.yul\":6652:6689   */\n  swap1\n  pop\n    /* \"#utility.yul\":6579:6696   */\n  swap3\n  swap2\n  pop\n  pop\n  jump\t// out\n    /* \"#utility.yul\":6702:6871   */\ntag_60:\n    /* \"#utility.yul\":6746:6752   */\n  0x00\n    /* \"#utility.yul\":6779:6830   */\n  tag_152\n    /* \"#utility.yul\":6827:6828   */\n  0x00\n    /* \"#utility.yul\":6823:6829   */\n  not\n    /* \"#utility.yul\":6815:6820   */\n  dup5\n    /* \"#utility.yul\":6812:6813   */\n  0x08\n    /* \"#utility.yul\":6808:6821   */\n  mul\n    /* \"#utility.yul\":6779:6830   */\n  tag_59\n  jump\t// in\ntag_152:\n    /* \"#utility.yul\":6775:6831   */\n  not\n    /* \"#utility.yul\":6860:6864   */\n  dup1\n    /* \"#utility.yul\":6854:6858   */\n  dup4\n    /* \"#utility.yul\":6850:6865   */\n  and\n    /* \"#utility.yul\":6840:6865   */\n  swap2\n  pop\n    /* \"#utility.yul\":6753:6871   */\n  pop\n    /* \"#utility.yul\":6702:6871   */\n  swap3\n  swap2\n  pop\n  pop\n  jump\t// out\n    /* \"#utility.yul\":6876:7171   */\ntag_61:\n    /* \"#utility.yul\":6952:6956   */\n  0x00\n    /* \"#utility.yul\":7098:7127   */\n  tag_154\n    /* \"#utility.yul\":7123:7126   */\n  dup4\n    /* \"#utility.yul\":7117:7121   */\n  dup4\n    /* \"#utility.yul\":7098:7127   */\n  tag_60\n  jump\t// in\ntag_154:\n    /* \"#utility.yul\":7090:7127   */\n  swap2\n  pop\n    /* \"#utility.yul\":7160:7163   */\n  dup3\n    /* \"#utility.yul\":7157:7158   */\n  0x02\n    /* \"#utility.yul\":7153:7164   */\n  mul\n    /* \"#utility.yul\":7147:7151   */\n  dup3\n    /* \"#utility.yul\":7144:7165   */\n  or\n    /* \"#utility.yul\":7136:7165   */\n  swap1\n  pop\n    /* \"#utility.yul\":6876:7171   */\n  swap3\n  swap2\n  pop\n  pop\n  jump\t// out\n    /* \"#utility.yul\":7176:8571   */\ntag_7:\n    /* \"#utility.yul\":7293:7330   */\n  tag_156\n    /* \"#utility.yul\":7326:7329   */\n  dup3\n    /* \"#utility.yul\":7293:7330   */\n  tag_43\n  jump\t// in\ntag_156:\n    /* \"#utility.yul\":7395:7413   */\n  0xffffffffffffffff\n    /* \"#utility.yul\":7387:7393   */\n  dup2\n    /* \"#utility.yul\":7384:7414   */\n  gt\n    /* \"#utility.yul\":7381:7437   */\n  iszero\n  tag_157\n  jumpi\n    /* \"#utility.yul\":7417:7435   */\n  tag_158\n  tag_36\n  jump\t// in\ntag_158:\n    /* \"#utility.yul\":7381:7437   */\ntag_157:\n    /* \"#utility.yul\":7461:7499   */\n  tag_159\n    /* \"#utility.yul\":7493:7497   */\n  dup3\n    /* \"#utility.yul\":7487:7498   */\n  sload\n    /* \"#utility.yul\":7461:7499   */\n  tag_45\n  jump\t// in\ntag_159:\n    /* \"#utility.yul\":7546:7613   */\n  tag_160\n    /* \"#utility.yul\":7606:7612   */\n  dup3\n    /* \"#utility.yul\":7598:7604   */\n  dup3\n    /* \"#utility.yul\":7592:7596   */\n  dup6\n    /* \"#utility.yul\":7546:7613   */\n  tag_58\n  jump\t// in\ntag_160:\n    /* \"#utility.yul\":7640:7641   */\n  0x00\n    /* \"#utility.yul\":7664:7668   */\n  0x20\n    /* \"#utility.yul\":7651:7668   */\n  swap1\n  pop\n    /* \"#utility.yul\":7696:7698   */\n  0x1f\n    /* \"#utility.yul\":7688:7694   */\n  dup4\n    /* \"#utility.yul\":7685:7699   */\n  gt\n    /* \"#utility.yul\":7713:7714   */\n  0x01\n    /* \"#utility.yul\":7708:8326   */\n  dup2\n  eq\n  tag_162\n  jumpi\n    /* \"#utility.yul\":8370:8371   */\n  0x00\n    /* \"#utility.yul\":8387:8393   */\n  dup5\n    /* \"#utility.yul\":8384:8461   */\n  iszero\n  tag_163\n  jumpi\n    /* \"#utility.yul\":8436:8445   */\n  dup3\n    /* \"#utility.yul\":8431:8434   */\n  dup8\n    /* \"#utility.yul\":8427:8446   */\n  add\n    /* \"#utility.yul\":8421:8447   */\n  mload\n    /* \"#utility.yul\":8412:8447   */\n  swap1\n  pop\n    /* \"#utility.yul\":8384:8461   */\ntag_163:\n    /* \"#utility.yul\":8487:8554   */\n  tag_164\n    /* \"#utility.yul\":8547:8553   */\n  dup6\n    /* \"#utility.yul\":8540:8545   */\n  dup3\n    /* \"#utility.yul\":8487:8554   */\n  tag_61\n  jump\t// in\ntag_164:\n    /* \"#utility.yul\":8481:8485   */\n  dup7\n    /* \"#utility.yul\":8474:8555   */\n  sstore\n    /* \"#utility.yul\":8343:8565   */\n  pop\n    /* \"#utility.yul\":7678:8565   */\n  jump(tag_161)\n    /* \"#utility.yul\":7708:8326   */\ntag_162:\n    /* \"#utility.yul\":7760:7764   */\n  0x1f\n    /* \"#utility.yul\":7756:7765   */\n  not\n    /* \"#utility.yul\":7748:7754   */\n  dup5\n    /* \"#utility.yul\":7744:7766   */\n  and\n    /* \"#utility.yul\":7794:7831   */\n  tag_165\n    /* \"#utility.yul\":7826:7830   */\n  dup7\n    /* \"#utility.yul\":7794:7831   */\n  tag_46\n  jump\t// in\ntag_165:\n    /* \"#utility.yul\":7853:7854   */\n  0x00\n    /* \"#utility.yul\":7867:8075   */\ntag_166:\n    /* \"#utility.yul\":7881:7888   */\n  dup3\n    /* \"#utility.yul\":7878:7879   */\n  dup2\n    /* \"#utility.yul\":7875:7889   */\n  lt\n    /* \"#utility.yul\":7867:8075   */\n  iszero\n  tag_168\n  jumpi\n    /* \"#utility.yul\":7960:7969   */\n  dup5\n    /* \"#utility.yul\":7955:7958   */\n  dup10\n    /* \"#utility.yul\":7951:7970   */\n  add\n    /* \"#utility.yul\":7945:7971   */\n  mload\n    /* \"#utility.yul\":7937:7943   */\n  dup3\n    /* \"#utility.yul\":7930:7972   */\n  sstore\n    /* \"#utility.yul\":8011:8012   */\n  0x01\n    /* \"#utility.yul\":8003:8009   */\n  dup3\n    /* \"#utility.yul\":7999:8013   */\n  add\n    /* \"#utility.yul\":7989:8013   */\n  swap2\n  pop\n    /* \"#utility.yul\":8058:8060   */\n  0x20\n    /* \"#utility.yul\":8047:8056   */\n  dup6\n    /* \"#utility.yul\":8043:8061   */\n  add\n    /* \"#utility.yul\":8030:8061   */\n  swap5\n  pop\n    /* \"#utility.yul\":7904:7908   */\n  0x20\n    /* \"#utility.yul\":7901:7902   */\n  dup2\n    /* \"#utility.yul\":7897:7909   */\n  add\n    /* \"#utility.yul\":7892:7909   */\n  swap1\n  pop\n    /* \"#utility.yul\":7867:8075   */\n  jump(tag_166)\ntag_168:\n    /* \"#utility.yul\":8103:8109   */\n  dup7\n    /* \"#utility.yul\":8094:8101   */\n  dup4\n    /* \"#utility.yul\":8091:8110   */\n  lt\n    /* \"#utility.yul\":8088:8267   */\n  iszero\n  tag_169\n  jumpi\n    /* \"#utility.yul\":8161:8170   */\n  dup5\n    /* \"#utility.yul\":8156:8159   */\n  dup10\n    /* \"#utility.yul\":8152:8171   */\n  add\n    /* \"#utility.yul\":8146:8172   */\n  mload\n    /* \"#utility.yul\":8204:8252   */\n  tag_170\n    /* \"#utility.yul\":8246:8250   */\n  0x1f\n    /* \"#utility.yul\":8238:8244   */\n  dup10\n    /* \"#utility.yul\":8234:8251   */\n  and\n    /* \"#utility.yul\":8223:8232   */\n  dup3\n    /* \"#utility.yul\":8204:8252   */\n  tag_60\n  jump\t// in\ntag_170:\n    /* \"#utility.yul\":8196:8202   */\n  dup4\n    /* \"#utility.yul\":8189:8253   */\n  sstore\n    /* \"#utility.yul\":8111:8267   */\n  pop\n    /* \"#utility.yul\":8088:8267   */\ntag_169:\n    /* \"#utility.yul\":8313:8314   */\n  0x01\n    /* \"#utility.yul\":8309:8310   */\n  0x02\n    /* \"#utility.yul\":8301:8307   */\n  dup9\n    /* \"#utility.yul\":8297:8311   */\n  mul\n    /* \"#utility.yul\":8293:8315   */\n  add\n    /* \"#utility.yul\":8287:8291   */\n  dup9\n    /* \"#utility.yul\":8280:8316   */\n  sstore\n    /* \"#utility.yul\":7715:8326   */\n  pop\n  pop\n  pop\n    /* \"#utility.yul\":7678:8565   */\ntag_161:\n  pop\n    /* \"#utility.yul\":7268:8571   */\n  pop\n  pop\n  pop\n    /* \"#utility.yul\":7176:8571   */\n  pop\n  pop\n  jump\t// out\n    /* \"#utility.yul\":8577:8746   */\ntag_62:\n    /* \"#utility.yul\":8661:8672   */\n  0x00\n    /* \"#utility.yul\":8695:8701   */\n  dup3\n    /* \"#utility.yul\":8690:8693   */\n  dup3\n    /* \"#utility.yul\":8683:8702   */\n  mstore\n    /* \"#utility.yul\":8735:8739   */\n  0x20\n    /* \"#utility.yul\":8730:8733   */\n  dup3\n    /* \"#utility.yul\":8726:8740   */\n  add\n    /* \"#utility.yul\":8711:8740   */\n  swap1\n  pop\n    /* \"#utility.yul\":8577:8746   */\n  swap3\n  swap2\n  pop\n  pop\n  jump\t// out\n    /* \"#utility.yul\":8752:8925   */\ntag_63:\n    /* \"#utility.yul\":8892:8917   */\n  0x4572633230206d696e7420746f20616464726573732030000000000000000000\n    /* \"#utility.yul\":8888:8889   */\n  0x00\n    /* \"#utility.yul\":8880:8886   */\n  dup3\n    /* \"#utility.yul\":8876:8890   */\n  add\n    /* \"#utility.yul\":8869:8918   */\n  mstore\n    /* \"#utility.yul\":8752:8925   */\n  pop\n  jump\t// out\n    /* \"#utility.yul\":8931:9297   */\ntag_64:\n    /* \"#utility.yul\":9073:9076   */\n  0x00\n    /* \"#utility.yul\":9094:9161   */\n  tag_174\n    /* \"#utility.yul\":9158:9160   */\n  0x17\n    /* \"#utility.yul\":9153:9156   */\n  dup4\n    /* \"#utility.yul\":9094:9161   */\n  tag_62\n  jump\t// in\ntag_174:\n    /* \"#utility.yul\":9087:9161   */\n  swap2\n  pop\n    /* \"#utility.yul\":9170:9263   */\n  tag_175\n    /* \"#utility.yul\":9259:9262   */\n  dup3\n    /* \"#utility.yul\":9170:9263   */\n  tag_63\n  jump\t// in\ntag_175:\n    /* \"#utility.yul\":9288:9290   */\n  0x20\n    /* \"#utility.yul\":9283:9286   */\n  dup3\n    /* \"#utility.yul\":9279:9291   */\n  add\n    /* \"#utility.yul\":9272:9291   */\n  swap1\n  pop\n    /* \"#utility.yul\":8931:9297   */\n  swap2\n  swap1\n  pop\n  jump\t// out\n    /* \"#utility.yul\":9303:9722   */\ntag_17:\n    /* \"#utility.yul\":9469:9473   */\n  0x00\n    /* \"#utility.yul\":9507:9509   */\n  0x20\n    /* \"#utility.yul\":9496:9505   */\n  dup3\n    /* \"#utility.yul\":9492:9510   */\n  add\n    /* \"#utility.yul\":9484:9510   */\n  swap1\n  pop\n    /* \"#utility.yul\":9556:9565   */\n  dup2\n    /* \"#utility.yul\":9550:9554   */\n  dup2\n    /* \"#utility.yul\":9546:9566   */\n  sub\n    /* \"#utility.yul\":9542:9543   */\n  0x00\n    /* \"#utility.yul\":9531:9540   */\n  dup4\n    /* \"#utility.yul\":9527:9544   */\n  add\n    /* \"#utility.yul\":9520:9567   */\n  mstore\n    /* \"#utility.yul\":9584:9715   */\n  tag_177\n    /* \"#utility.yul\":9710:9714   */\n  dup2\n    /* \"#utility.yul\":9584:9715   */\n  tag_64\n  jump\t// in\ntag_177:\n    /* \"#utility.yul\":9576:9715   */\n  swap1\n  pop\n    /* \"#utility.yul\":9303:9722   */\n  swap2\n  swap1\n  pop\n  jump\t// out\n    /* \"#utility.yul\":9728:9908   */\ntag_65:\n    /* \"#utility.yul\":9776:9853   */\n  0x4e487b7100000000000000000000000000000000000000000000000000000000\n    /* \"#utility.yul\":9773:9774   */\n  0x00\n    /* \"#utility.yul\":9766:9854   */\n  mstore\n    /* \"#utility.yul\":9873:9877   */\n  0x11\n    /* \"#utility.yul\":9870:9871   */\n  0x04\n    /* \"#utility.yul\":9863:9878   */\n  mstore\n    /* \"#utility.yul\":9897:9901   */\n  0x24\n    /* \"#utility.yul\":9894:9895   */\n  0x00\n    /* \"#utility.yul\":9887:9902   */\n  revert\n    /* \"#utility.yul\":9914:10105   */\ntag_19:\n    /* \"#utility.yul\":9954:9957   */\n  0x00\n    /* \"#utility.yul\":9973:9993   */\n  tag_180\n    /* \"#utility.yul\":9991:9992   */\n  dup3\n    /* \"#utility.yul\":9973:9993   */\n  tag_50\n  jump\t// in\ntag_180:\n    /* \"#utility.yul\":9968:9993   */\n  swap2\n  pop\n    /* \"#utility.yul\":10007:10027   */\n  tag_181\n    /* \"#utility.yul\":10025:10026   */\n  dup4\n    /* \"#utility.yul\":10007:10027   */\n  tag_50\n  jump\t// in\ntag_181:\n    /* \"#utility.yul\":10002:10027   */\n  swap3\n  pop\n    /* \"#utility.yul\":10050:10051   */\n  dup3\n    /* \"#utility.yul\":10047:10048   */\n  dup3\n    /* \"#utility.yul\":10043:10052   */\n  add\n    /* \"#utility.yul\":10036:10052   */\n  swap1\n  pop\n    /* \"#utility.yul\":10071:10074   */\n  dup1\n    /* \"#utility.yul\":10068:10069   */\n  dup3\n    /* \"#utility.yul\":10065:10075   */\n  gt\n    /* \"#utility.yul\":10062:10098   */\n  iszero\n  tag_182\n  jumpi\n    /* \"#utility.yul\":10078:10096   */\n  tag_183\n  tag_65\n  jump\t// in\ntag_183:\n    /* \"#utility.yul\":10062:10098   */\ntag_182:\n    /* \"#utility.yul\":9914:10105   */\n  swap3\n  swap2\n  pop\n  pop\n  jump\t// out\n    /* \"#utility.yul\":10111:10229   */\ntag_66:\n    /* \"#utility.yul\":10198:10222   */\n  tag_185\n    /* \"#utility.yul\":10216:10221   */\n  dup2\n    /* \"#utility.yul\":10198:10222   */\n  tag_50\n  jump\t// in\ntag_185:\n    /* \"#utility.yul\":10193:10196   */\n  dup3\n    /* \"#utility.yul\":10186:10223   */\n  mstore\n    /* \"#utility.yul\":10111:10229   */\n  pop\n  pop\n  jump\t// out\n    /* \"#utility.yul\":10235:10457   */\ntag_22:\n    /* \"#utility.yul\":10328:10332   */\n  0x00\n    /* \"#utility.yul\":10366:10368   */\n  0x20\n    /* \"#utility.yul\":10355:10364   */\n  dup3\n    /* \"#utility.yul\":10351:10369   */\n  add\n    /* \"#utility.yul\":10343:10369   */\n  swap1\n  pop\n    /* \"#utility.yul\":10379:10450   */\n  tag_187\n    /* \"#utility.yul\":10447:10448   */\n  0x00\n    /* \"#utility.yul\":10436:10445   */\n  dup4\n    /* \"#utility.yul\":10432:10449   */\n  add\n    /* \"#utility.yul\":10423:10429   */\n  dup5\n    /* \"#utility.yul\":10379:10450   */\n  tag_66\n  jump\t// in\ntag_187:\n    /* \"#utility.yul\":10235:10457   */\n  swap3\n  swap2\n  pop\n  pop\n  jump\t// out\n    /* \"#utility.yul\":10463:10643   */\ntag_67:\n    /* \"#utility.yul\":10603:10635   */\n  0x65726332303a206275726e2066726f6d20746865203020616464726573730000\n    /* \"#utility.yul\":10599:10600   */\n  0x00\n    /* \"#utility.yul\":10591:10597   */\n  dup3\n    /* \"#utility.yul\":10587:10601   */\n  add\n    /* \"#utility.yul\":10580:10636   */\n  mstore\n    /* \"#utility.yul\":10463:10643   */\n  pop\n  jump\t// out\n    /* \"#utility.yul\":10649:11015   */\ntag_68:\n    /* \"#utility.yul\":10791:10794   */\n  0x00\n    /* \"#utility.yul\":10812:10879   */\n  tag_190\n    /* \"#utility.yul\":10876:10878   */\n  0x1e\n    /* \"#utility.yul\":10871:10874   */\n  dup4\n    /* \"#utility.yul\":10812:10879   */\n  tag_62\n  jump\t// in\ntag_190:\n    /* \"#utility.yul\":10805:10879   */\n  swap2\n  pop\n    /* \"#utility.yul\":10888:10981   */\n  tag_191\n    /* \"#utility.yul\":10977:10980   */\n  dup3\n    /* \"#utility.yul\":10888:10981   */\n  tag_67\n  jump\t// in\ntag_191:\n    /* \"#utility.yul\":11006:11008   */\n  0x20\n    /* \"#utility.yul\":11001:11004   */\n  dup3\n    /* \"#utility.yul\":10997:11009   */\n  add\n    /* \"#utility.yul\":10990:11009   */\n  swap1\n  pop\n    /* \"#utility.yul\":10649:11015   */\n  swap2\n  swap1\n  pop\n  jump\t// out\n    /* \"#utility.yul\":11021:11440   */\ntag_26:\n    /* \"#utility.yul\":11187:11191   */\n  0x00\n    /* \"#utility.yul\":11225:11227   */\n  0x20\n    /* \"#utility.yul\":11214:11223   */\n  dup3\n    /* \"#utility.yul\":11210:11228   */\n  add\n    /* \"#utility.yul\":11202:11228   */\n  swap1\n  pop\n    /* \"#utility.yul\":11274:11283   */\n  dup2\n    /* \"#utility.yul\":11268:11272   */\n  dup2\n    /* \"#utility.yul\":11264:11284   */\n  sub\n    /* \"#utility.yul\":11260:11261   */\n  0x00\n    /* \"#utility.yul\":11249:11258   */\n  dup4\n    /* \"#utility.yul\":11245:11262   */\n  add\n    /* \"#utility.yul\":11238:11285   */\n  mstore\n    /* \"#utility.yul\":11302:11433   */\n  tag_193\n    /* \"#utility.yul\":11428:11432   */\n  dup2\n    /* \"#utility.yul\":11302:11433   */\n  tag_68\n  jump\t// in\ntag_193:\n    /* \"#utility.yul\":11294:11433   */\n  swap1\n  pop\n    /* \"#utility.yul\":11021:11440   */\n  swap2\n  swap1\n  pop\n  jump\t// out\n    /* \"contracts/Alaneme/AlanemeBUNN.sol\":60:2655  contract ERC20{... */\ntag_13:\n  dataSize(sub_0)\n  dup1\n  dataOffset(sub_0)\n  0x00\n  codecopy\n  0x00\n  return\nstop\n\nsub_0: assembly {\n        /* \"contracts/Alaneme/AlanemeBUNN.sol\":60:2655  contract ERC20{... */\n      mstore(0x40, 0x80)\n      callvalue\n      dup1\n      iszero\n      tag_1\n      jumpi\n      0x00\n      dup1\n      revert\n    tag_1:\n      pop\n      jumpi(tag_2, lt(calldatasize, 0x04))\n      shr(0xe0, calldataload(0x00))\n      dup1\n      0x68865d7f\n      gt\n      tag_12\n      jumpi\n      dup1\n      0x68865d7f\n      eq\n      tag_7\n      jumpi\n      dup1\n      0x72dd529b\n      eq\n      tag_8\n      jumpi\n      dup1\n      0x76809ce3\n      eq\n      tag_9\n      jumpi\n      dup1\n      0x95d89b41\n      eq\n      tag_10\n      jumpi\n      dup1\n      0xdd62ed3e\n      eq\n      tag_11\n      jumpi\n      jump(tag_2)\n    tag_12:\n      dup1\n      0x01c6adc3\n      eq\n      tag_3\n      jumpi\n      dup1\n      0x06fdde03\n      eq\n      tag_4\n      jumpi\n      dup1\n      0x3d64125b\n      eq\n      tag_5\n      jumpi\n      dup1\n      0x63b0545f\n      eq\n      tag_6\n      jumpi\n    tag_2:\n      0x00\n      dup1\n      revert\n        /* \"contracts/Alaneme/AlanemeBUNN.sol\":860:1001  function transferFrom(address recipient,uint256 amount) external returns (bool){... */\n    tag_3:\n      tag_13\n      0x04\n      dup1\n      calldatasize\n      sub\n      dup2\n      add\n      swap1\n      tag_14\n      swap2\n      swap1\n      tag_15\n      jump\t// in\n    tag_14:\n      tag_16\n      jump\t// in\n    tag_13:\n      mload(0x40)\n      tag_17\n      swap2\n      swap1\n      tag_18\n      jump\t// in\n    tag_17:\n      mload(0x40)\n      dup1\n      swap2\n      sub\n      swap1\n      return\n        /* \"contracts/Alaneme/AlanemeBUNN.sol\":145:163  string public name */\n    tag_4:\n      tag_19\n      tag_20\n      jump\t// in\n    tag_19:\n      mload(0x40)\n      tag_21\n      swap2\n      swap1\n      tag_22\n      jump\t// in\n    tag_21:\n      mload(0x40)\n      dup1\n      swap2\n      sub\n      swap1\n      return\n        /* \"contracts/Alaneme/AlanemeBUNN.sol\":229:273  mapping(address => uint256) public balanceof */\n    tag_5:\n      tag_23\n      0x04\n      dup1\n      calldatasize\n      sub\n      dup2\n      add\n      swap1\n      tag_24\n      swap2\n      swap1\n      tag_25\n      jump\t// in\n    tag_24:\n      tag_26\n      jump\t// in\n    tag_23:\n      mload(0x40)\n      tag_27\n      swap2\n      swap1\n      tag_28\n      jump\t// in\n    tag_27:\n      mload(0x40)\n      dup1\n      swap2\n      sub\n      swap1\n      return\n        /* \"contracts/Alaneme/AlanemeBUNN.sol\":1005:1419  function transferfrom(address sender, address recipient, uint256 amount) external returns (bool){... */\n    tag_6:\n      tag_29\n      0x04\n      dup1\n      calldatasize\n      sub\n      dup2\n      add\n      swap1\n      tag_30\n      swap2\n      swap1\n      tag_31\n      jump\t// in\n    tag_30:\n      tag_32\n      jump\t// in\n    tag_29:\n      mload(0x40)\n      tag_33\n      swap2\n      swap1\n      tag_18\n      jump\t// in\n    tag_33:\n      mload(0x40)\n      dup1\n      swap2\n      sub\n      swap1\n      return\n        /* \"contracts/Alaneme/AlanemeBUNN.sol\":1427:1711  function appropve(address spender,uint256 amount) external returns (bool){... */\n    tag_7:\n      tag_34\n      0x04\n      dup1\n      calldatasize\n      sub\n      dup2\n      add\n      swap1\n      tag_35\n      swap2\n      swap1\n      tag_15\n      jump\t// in\n    tag_35:\n      tag_36\n      jump\t// in\n    tag_34:\n      mload(0x40)\n      tag_37\n      swap2\n      swap1\n      tag_18\n      jump\t// in\n    tag_37:\n      mload(0x40)\n      dup1\n      swap2\n      sub\n      swap1\n      return\n        /* \"contracts/Alaneme/AlanemeBUNN.sol\":112:138  uint256 public totalsupply */\n    tag_8:\n      tag_38\n      tag_39\n      jump\t// in\n    tag_38:\n      mload(0x40)\n      tag_40\n      swap2\n      swap1\n      tag_28\n      jump\t// in\n    tag_40:\n      mload(0x40)\n      dup1\n      swap2\n      sub\n      swap1\n      return\n        /* \"contracts/Alaneme/AlanemeBUNN.sol\":715:785  function decimal() public pure returns (uint8){... */\n    tag_9:\n      tag_41\n      tag_42\n      jump\t// in\n    tag_41:\n      mload(0x40)\n      tag_43\n      swap2\n      swap1\n      tag_44\n      jump\t// in\n    tag_43:\n      mload(0x40)\n      dup1\n      swap2\n      sub\n      swap1\n      return\n        /* \"contracts/Alaneme/AlanemeBUNN.sol\":170:190  string public symbol */\n    tag_10:\n      tag_45\n      tag_46\n      jump\t// in\n    tag_45:\n      mload(0x40)\n      tag_47\n      swap2\n      swap1\n      tag_22\n      jump\t// in\n    tag_47:\n      mload(0x40)\n      dup1\n      swap2\n      sub\n      swap1\n      return\n        /* \"contracts/Alaneme/AlanemeBUNN.sol\":282:343  mapping(address=>mapping (address =>uint256))public allowance */\n    tag_11:\n      tag_48\n      0x04\n      dup1\n      calldatasize\n      sub\n      dup2\n      add\n      swap1\n      tag_49\n      swap2\n      swap1\n      tag_50\n      jump\t// in\n    tag_49:\n      tag_51\n      jump\t// in\n    tag_48:\n      mload(0x40)\n      tag_52\n      swap2\n      swap1\n      tag_28\n      jump\t// in\n    tag_52:\n      mload(0x40)\n      dup1\n      swap2\n      sub\n      swap1\n      return\n        /* \"contracts/Alaneme/AlanemeBUNN.sol\":860:1001  function transferFrom(address recipient,uint256 amount) external returns (bool){... */\n    tag_16:\n        /* \"contracts/Alaneme/AlanemeBUNN.sol\":934:938  bool */\n      0x00\n        /* \"contracts/Alaneme/AlanemeBUNN.sol\":957:997  _transfer(msg.sender, recipient, amount) */\n      tag_54\n        /* \"contracts/Alaneme/AlanemeBUNN.sol\":967:977  msg.sender */\n      caller\n        /* \"contracts/Alaneme/AlanemeBUNN.sol\":979:988  recipient */\n      dup5\n        /* \"contracts/Alaneme/AlanemeBUNN.sol\":990:996  amount */\n      dup5\n        /* \"contracts/Alaneme/AlanemeBUNN.sol\":957:966  _transfer */\n      tag_55\n        /* \"contracts/Alaneme/AlanemeBUNN.sol\":957:997  _transfer(msg.sender, recipient, amount) */\n      jump\t// in\n    tag_54:\n        /* \"contracts/Alaneme/AlanemeBUNN.sol\":950:997  return _transfer(msg.sender, recipient, amount) */\n      swap1\n      pop\n        /* \"contracts/Alaneme/AlanemeBUNN.sol\":860:1001  function transferFrom(address recipient,uint256 amount) external returns (bool){... */\n      swap3\n      swap2\n      pop\n      pop\n      jump\t// out\n        /* \"contracts/Alaneme/AlanemeBUNN.sol\":145:163  string public name */\n    tag_20:\n      0x01\n      dup1\n      sload\n      tag_56\n      swap1\n      tag_57\n      jump\t// in\n    tag_56:\n      dup1\n      0x1f\n      add\n      0x20\n      dup1\n      swap2\n      div\n      mul\n      0x20\n      add\n      mload(0x40)\n      swap1\n      dup2\n      add\n      0x40\n      mstore\n      dup1\n      swap3\n      swap2\n      swap1\n      dup2\n      dup2\n      mstore\n      0x20\n      add\n      dup3\n      dup1\n      sload\n      tag_58\n      swap1\n      tag_57\n      jump\t// in\n    tag_58:\n      dup1\n      iszero\n      tag_59\n      jumpi\n      dup1\n      0x1f\n      lt\n      tag_60\n      jumpi\n      0x0100\n      dup1\n      dup4\n      sload\n      div\n      mul\n      dup4\n      mstore\n      swap2\n      0x20\n      add\n      swap2\n      jump(tag_59)\n    tag_60:\n      dup3\n      add\n      swap2\n      swap1\n      0x00\n      mstore\n      keccak256(0x00, 0x20)\n      swap1\n    tag_61:\n      dup2\n      sload\n      dup2\n      mstore\n      swap1\n      0x01\n      add\n      swap1\n      0x20\n      add\n      dup1\n      dup4\n      gt\n      tag_61\n      jumpi\n      dup3\n      swap1\n      sub\n      0x1f\n      and\n      dup3\n      add\n      swap2\n    tag_59:\n      pop\n      pop\n      pop\n      pop\n      pop\n      dup2\n      jump\t// out\n        /* \"contracts/Alaneme/AlanemeBUNN.sol\":229:273  mapping(address => uint256) public balanceof */\n    tag_26:\n      mstore(0x20, 0x03)\n      dup1\n      0x00\n      mstore\n      keccak256(0x00, 0x40)\n      0x00\n      swap2\n      pop\n      swap1\n      pop\n      sload\n      dup2\n      jump\t// out\n        /* \"contracts/Alaneme/AlanemeBUNN.sol\":1005:1419  function transferfrom(address sender, address recipient, uint256 amount) external returns (bool){... */\n    tag_32:\n        /* \"contracts/Alaneme/AlanemeBUNN.sol\":1096:1100  bool */\n      0x00\n        /* \"contracts/Alaneme/AlanemeBUNN.sol\":1110:1132  uint256 currentBalance */\n      dup1\n        /* \"contracts/Alaneme/AlanemeBUNN.sol\":1135:1144  allowance */\n      0x04\n        /* \"contracts/Alaneme/AlanemeBUNN.sol\":1135:1152  allowance[sender] */\n      0x00\n        /* \"contracts/Alaneme/AlanemeBUNN.sol\":1145:1151  sender */\n      dup7\n        /* \"contracts/Alaneme/AlanemeBUNN.sol\":1135:1152  allowance[sender] */\n      0xffffffffffffffffffffffffffffffffffffffff\n      and\n      0xffffffffffffffffffffffffffffffffffffffff\n      and\n      dup2\n      mstore\n      0x20\n      add\n      swap1\n      dup2\n      mstore\n      0x20\n      add\n      0x00\n      keccak256\n        /* \"contracts/Alaneme/AlanemeBUNN.sol\":1135:1164  allowance[sender][msg.sender] */\n      0x00\n        /* \"contracts/Alaneme/AlanemeBUNN.sol\":1153:1163  msg.sender */\n      caller\n        /* \"contracts/Alaneme/AlanemeBUNN.sol\":1135:1164  allowance[sender][msg.sender] */\n      0xffffffffffffffffffffffffffffffffffffffff\n      and\n      0xffffffffffffffffffffffffffffffffffffffff\n      and\n      dup2\n      mstore\n      0x20\n      add\n      swap1\n      dup2\n      mstore\n      0x20\n      add\n      0x00\n      keccak256\n      sload\n        /* \"contracts/Alaneme/AlanemeBUNN.sol\":1110:1164  uint256 currentBalance = allowance[sender][msg.sender] */\n      swap1\n      pop\n        /* \"contracts/Alaneme/AlanemeBUNN.sol\":1197:1203  amount */\n      dup3\n        /* \"contracts/Alaneme/AlanemeBUNN.sol\":1179:1193  currentBalance */\n      dup2\n        /* \"contracts/Alaneme/AlanemeBUNN.sol\":1179:1203  currentBalance >= amount */\n      lt\n      iszero\n        /* \"contracts/Alaneme/AlanemeBUNN.sol\":1171:1251  require(currentBalance >= amount, \"Erc20 transfer amount must exceed allowance\") */\n      tag_63\n      jumpi\n      mload(0x40)\n      0x08c379a000000000000000000000000000000000000000000000000000000000\n      dup2\n      mstore\n      0x04\n      add\n      tag_64\n      swap1\n      tag_65\n      jump\t// in\n    tag_64:\n      mload(0x40)\n      dup1\n      swap2\n      sub\n      swap1\n      revert\n    tag_63:\n        /* \"contracts/Alaneme/AlanemeBUNN.sol\":1308:1314  amount */\n      dup3\n        /* \"contracts/Alaneme/AlanemeBUNN.sol\":1291:1305  currentBalance */\n      dup2\n        /* \"contracts/Alaneme/AlanemeBUNN.sol\":1291:1314  currentBalance - amount */\n      tag_66\n      swap2\n      swap1\n      tag_67\n      jump\t// in\n    tag_66:\n        /* \"contracts/Alaneme/AlanemeBUNN.sol\":1260:1269  allowance */\n      0x04\n        /* \"contracts/Alaneme/AlanemeBUNN.sol\":1260:1277  allowance[sender] */\n      0x00\n        /* \"contracts/Alaneme/AlanemeBUNN.sol\":1270:1276  sender */\n      dup8\n        /* \"contracts/Alaneme/AlanemeBUNN.sol\":1260:1277  allowance[sender] */\n      0xffffffffffffffffffffffffffffffffffffffff\n      and\n      0xffffffffffffffffffffffffffffffffffffffff\n      and\n      dup2\n      mstore\n      0x20\n      add\n      swap1\n      dup2\n      mstore\n      0x20\n      add\n      0x00\n      keccak256\n        /* \"contracts/Alaneme/AlanemeBUNN.sol\":1260:1289  allowance[sender][msg.sender] */\n      0x00\n        /* \"contracts/Alaneme/AlanemeBUNN.sol\":1278:1288  msg.sender */\n      caller\n        /* \"contracts/Alaneme/AlanemeBUNN.sol\":1260:1289  allowance[sender][msg.sender] */\n      0xffffffffffffffffffffffffffffffffffffffff\n      and\n      0xffffffffffffffffffffffffffffffffffffffff\n      and\n      dup2\n      mstore\n      0x20\n      add\n      swap1\n      dup2\n      mstore\n      0x20\n      add\n      0x00\n      keccak256\n        /* \"contracts/Alaneme/AlanemeBUNN.sol\":1260:1314  allowance[sender][msg.sender]= currentBalance - amount */\n      dup2\n      swap1\n      sstore\n      pop\n        /* \"contracts/Alaneme/AlanemeBUNN.sol\":1345:1354  recipient */\n      dup4\n        /* \"contracts/Alaneme/AlanemeBUNN.sol\":1328:1363  Approval(sender, recipient, amount) */\n      0xffffffffffffffffffffffffffffffffffffffff\n      and\n        /* \"contracts/Alaneme/AlanemeBUNN.sol\":1337:1343  sender */\n      dup6\n        /* \"contracts/Alaneme/AlanemeBUNN.sol\":1328:1363  Approval(sender, recipient, amount) */\n      0xffffffffffffffffffffffffffffffffffffffff\n      and\n      0x8c5be1e5ebec7d5bd14f71427d1e84f3dd0314c0f7b2291e5b200ac8c7c3b925\n        /* \"contracts/Alaneme/AlanemeBUNN.sol\":1356:1362  amount */\n      dup6\n        /* \"contracts/Alaneme/AlanemeBUNN.sol\":1328:1363  Approval(sender, recipient, amount) */\n      mload(0x40)\n      tag_68\n      swap2\n      swap1\n      tag_28\n      jump\t// in\n    tag_68:\n      mload(0x40)\n      dup1\n      swap2\n      sub\n      swap1\n      log3\n        /* \"contracts/Alaneme/AlanemeBUNN.sol\":1379:1415  _transfer(sender, recipient, amount) */\n      tag_69\n        /* \"contracts/Alaneme/AlanemeBUNN.sol\":1389:1395  sender */\n      dup6\n        /* \"contracts/Alaneme/AlanemeBUNN.sol\":1397:1406  recipient */\n      dup6\n        /* \"contracts/Alaneme/AlanemeBUNN.sol\":1408:1414  amount */\n      dup6\n        /* \"contracts/Alaneme/AlanemeBUNN.sol\":1379:1388  _transfer */\n      tag_55\n        /* \"contracts/Alaneme/AlanemeBUNN.sol\":1379:1415  _transfer(sender, recipient, amount) */\n      jump\t// in\n    tag_69:\n        /* \"contracts/Alaneme/AlanemeBUNN.sol\":1372:1415  return _transfer(sender, recipient, amount) */\n      swap2\n      pop\n      pop\n        /* \"contracts/Alaneme/AlanemeBUNN.sol\":1005:1419  function transferfrom(address sender, address recipient, uint256 amount) external returns (bool){... */\n      swap4\n      swap3\n      pop\n      pop\n      pop\n      jump\t// out\n        /* \"contracts/Alaneme/AlanemeBUNN.sol\":1427:1711  function appropve(address spender,uint256 amount) external returns (bool){... */\n    tag_36:\n        /* \"contracts/Alaneme/AlanemeBUNN.sol\":1495:1499  bool */\n      0x00\n        /* \"contracts/Alaneme/AlanemeBUNN.sol\":1540:1541  0 */\n      dup1\n        /* \"contracts/Alaneme/AlanemeBUNN.sol\":1521:1542  spender != address(0) */\n      0xffffffffffffffffffffffffffffffffffffffff\n      and\n        /* \"contracts/Alaneme/AlanemeBUNN.sol\":1521:1528  spender */\n      dup4\n        /* \"contracts/Alaneme/AlanemeBUNN.sol\":1521:1542  spender != address(0) */\n      0xffffffffffffffffffffffffffffffffffffffff\n      and\n      sub\n        /* \"contracts/Alaneme/AlanemeBUNN.sol\":1513:1575  require(spender != address(0), \"erc20 approve to the address\") */\n      tag_71\n      jumpi\n      mload(0x40)\n      0x08c379a000000000000000000000000000000000000000000000000000000000\n      dup2\n      mstore\n      0x04\n      add\n      tag_72\n      swap1\n      tag_73\n      jump\t// in\n    tag_72:\n      mload(0x40)\n      dup1\n      swap2\n      sub\n      swap1\n      revert\n    tag_71:\n        /* \"contracts/Alaneme/AlanemeBUNN.sol\":1621:1627  amount */\n      dup2\n        /* \"contracts/Alaneme/AlanemeBUNN.sol\":1588:1597  allowance */\n      0x04\n        /* \"contracts/Alaneme/AlanemeBUNN.sol\":1588:1609  allowance[msg.sender] */\n      0x00\n        /* \"contracts/Alaneme/AlanemeBUNN.sol\":1598:1608  msg.sender */\n      caller\n        /* \"contracts/Alaneme/AlanemeBUNN.sol\":1588:1609  allowance[msg.sender] */\n      0xffffffffffffffffffffffffffffffffffffffff\n      and\n      0xffffffffffffffffffffffffffffffffffffffff\n      and\n      dup2\n      mstore\n      0x20\n      add\n      swap1\n      dup2\n      mstore\n      0x20\n      add\n      0x00\n      keccak256\n        /* \"contracts/Alaneme/AlanemeBUNN.sol\":1588:1618  allowance[msg.sender][spender] */\n      0x00\n        /* \"contracts/Alaneme/AlanemeBUNN.sol\":1610:1617  spender */\n      dup6\n        /* \"contracts/Alaneme/AlanemeBUNN.sol\":1588:1618  allowance[msg.sender][spender] */\n      0xffffffffffffffffffffffffffffffffffffffff\n      and\n      0xffffffffffffffffffffffffffffffffffffffff\n      and\n      dup2\n      mstore\n      0x20\n      add\n      swap1\n      dup2\n      mstore\n      0x20\n      add\n      0x00\n      keccak256\n        /* \"contracts/Alaneme/AlanemeBUNN.sol\":1588:1627  allowance[msg.sender][spender] = amount */\n      dup2\n      swap1\n      sstore\n      pop\n        /* \"contracts/Alaneme/AlanemeBUNN.sol\":1666:1673  spender */\n      dup3\n        /* \"contracts/Alaneme/AlanemeBUNN.sol\":1645:1682  Approval(msg.sender, spender, amount) */\n      0xffffffffffffffffffffffffffffffffffffffff\n      and\n        /* \"contracts/Alaneme/AlanemeBUNN.sol\":1654:1664  msg.sender */\n      caller\n        /* \"contracts/Alaneme/AlanemeBUNN.sol\":1645:1682  Approval(msg.sender, spender, amount) */\n      0xffffffffffffffffffffffffffffffffffffffff\n      and\n      0x8c5be1e5ebec7d5bd14f71427d1e84f3dd0314c0f7b2291e5b200ac8c7c3b925\n        /* \"contracts/Alaneme/AlanemeBUNN.sol\":1675:1681  amount */\n      dup5\n        /* \"contracts/Alaneme/AlanemeBUNN.sol\":1645:1682  Approval(msg.sender, spender, amount) */\n      mload(0x40)\n      tag_74\n      swap2\n      swap1\n      tag_28\n      jump\t// in\n    tag_74:\n      mload(0x40)\n      dup1\n      swap2\n      sub\n      swap1\n      log3\n        /* \"contracts/Alaneme/AlanemeBUNN.sol\":1702:1706  true */\n      0x01\n        /* \"contracts/Alaneme/AlanemeBUNN.sol\":1695:1706  return true */\n      swap1\n      pop\n        /* \"contracts/Alaneme/AlanemeBUNN.sol\":1427:1711  function appropve(address spender,uint256 amount) external returns (bool){... */\n      swap3\n      swap2\n      pop\n      pop\n      jump\t// out\n        /* \"contracts/Alaneme/AlanemeBUNN.sol\":112:138  uint256 public totalsupply */\n    tag_39:\n      sload(0x00)\n      dup2\n      jump\t// out\n        /* \"contracts/Alaneme/AlanemeBUNN.sol\":715:785  function decimal() public pure returns (uint8){... */\n    tag_42:\n        /* \"contracts/Alaneme/AlanemeBUNN.sol\":755:760  uint8 */\n      0x00\n        /* \"contracts/Alaneme/AlanemeBUNN.sol\":779:781  18 */\n      0x12\n        /* \"contracts/Alaneme/AlanemeBUNN.sol\":772:781  return 18 */\n      swap1\n      pop\n        /* \"contracts/Alaneme/AlanemeBUNN.sol\":715:785  function decimal() public pure returns (uint8){... */\n      swap1\n      jump\t// out\n        /* \"contracts/Alaneme/AlanemeBUNN.sol\":170:190  string public symbol */\n    tag_46:\n      0x02\n      dup1\n      sload\n      tag_76\n      swap1\n      tag_57\n      jump\t// in\n    tag_76:\n      dup1\n      0x1f\n      add\n      0x20\n      dup1\n      swap2\n      div\n      mul\n      0x20\n      add\n      mload(0x40)\n      swap1\n      dup2\n      add\n      0x40\n      mstore\n      dup1\n      swap3\n      swap2\n      swap1\n      dup2\n      dup2\n      mstore\n      0x20\n      add\n      dup3\n      dup1\n      sload\n      tag_77\n      swap1\n      tag_57\n      jump\t// in\n    tag_77:\n      dup1\n      iszero\n      tag_78\n      jumpi\n      dup1\n      0x1f\n      lt\n      tag_79\n      jumpi\n      0x0100\n      dup1\n      dup4\n      sload\n      div\n      mul\n      dup4\n      mstore\n      swap2\n      0x20\n      add\n      swap2\n      jump(tag_78)\n    tag_79:\n      dup3\n      add\n      swap2\n      swap1\n      0x00\n      mstore\n      keccak256(0x00, 0x20)\n      swap1\n    tag_80:\n      dup2\n      sload\n      dup2\n      mstore\n      swap1\n      0x01\n      add\n      swap1\n      0x20\n      add\n      dup1\n      dup4\n      gt\n      tag_80\n      jumpi\n      dup3\n      swap1\n      sub\n      0x1f\n      and\n      dup3\n      add\n      swap2\n    tag_78:\n      pop\n      pop\n      pop\n      pop\n      pop\n      dup2\n      jump\t// out\n        /* \"contracts/Alaneme/AlanemeBUNN.sol\":282:343  mapping(address=>mapping (address =>uint256))public allowance */\n    tag_51:\n      mstore(0x20, 0x04)\n      dup2\n      0x00\n      mstore\n      mstore(0x20, keccak256(0x00, 0x40))\n      dup1\n      0x00\n      mstore\n      keccak256(0x00, 0x40)\n      0x00\n      swap2\n      pop\n      swap2\n      pop\n      pop\n      sload\n      dup2\n      jump\t// out\n        /* \"contracts/Alaneme/AlanemeBUNN.sol\":1717:2175  function _transfer(address sender , address recipient, uint256 amount) private returns (bool){... */\n    tag_55:\n        /* \"contracts/Alaneme/AlanemeBUNN.sol\":1805:1809  bool */\n      0x00\n        /* \"contracts/Alaneme/AlanemeBUNN.sol\":1848:1849  0 */\n      dup1\n        /* \"contracts/Alaneme/AlanemeBUNN.sol\":1827:1850  recipient != address(0) */\n      0xffffffffffffffffffffffffffffffffffffffff\n      and\n        /* \"contracts/Alaneme/AlanemeBUNN.sol\":1827:1836  recipient */\n      dup4\n        /* \"contracts/Alaneme/AlanemeBUNN.sol\":1827:1850  recipient != address(0) */\n      0xffffffffffffffffffffffffffffffffffffffff\n      and\n      sub\n        /* \"contracts/Alaneme/AlanemeBUNN.sol\":1819:1882  require(recipient != address(0), \"erc20 transfer to address 0\") */\n      tag_82\n      jumpi\n      mload(0x40)\n      0x08c379a000000000000000000000000000000000000000000000000000000000\n      dup2\n      mstore\n      0x04\n      add\n      tag_83\n      swap1\n      tag_84\n      jump\t// in\n    tag_83:\n      mload(0x40)\n      dup1\n      swap2\n      sub\n      swap1\n      revert\n    tag_82:\n        /* \"contracts/Alaneme/AlanemeBUNN.sol\":1891:1912  uint256 senderBalance */\n      0x00\n        /* \"contracts/Alaneme/AlanemeBUNN.sol\":1915:1924  balanceof */\n      0x03\n        /* \"contracts/Alaneme/AlanemeBUNN.sol\":1915:1932  balanceof[sender] */\n      0x00\n        /* \"contracts/Alaneme/AlanemeBUNN.sol\":1925:1931  sender */\n      dup7\n        /* \"contracts/Alaneme/AlanemeBUNN.sol\":1915:1932  balanceof[sender] */\n      0xffffffffffffffffffffffffffffffffffffffff\n      and\n      0xffffffffffffffffffffffffffffffffffffffff\n      and\n      dup2\n      mstore\n      0x20\n      add\n      swap1\n      dup2\n      mstore\n      0x20\n      add\n      0x00\n      keccak256\n      sload\n        /* \"contracts/Alaneme/AlanemeBUNN.sol\":1891:1932  uint256 senderBalance = balanceof[sender] */\n      swap1\n      pop\n        /* \"contracts/Alaneme/AlanemeBUNN.sol\":1966:1972  amount */\n      dup3\n        /* \"contracts/Alaneme/AlanemeBUNN.sol\":1949:1962  senderBalance */\n      dup2\n        /* \"contracts/Alaneme/AlanemeBUNN.sol\":1949:1972  senderBalance >= amount */\n      lt\n      iszero\n        /* \"contracts/Alaneme/AlanemeBUNN.sol\":1941:2014  require(senderBalance >= amount, \"erc20 transfer amount exceeds balance\") */\n      tag_85\n      jumpi\n      mload(0x40)\n      0x08c379a000000000000000000000000000000000000000000000000000000000\n      dup2\n      mstore\n      0x04\n      add\n      tag_86\n      swap1\n      tag_87\n      jump\t// in\n    tag_86:\n      mload(0x40)\n      dup1\n      swap2\n      sub\n      swap1\n      revert\n    tag_85:\n        /* \"contracts/Alaneme/AlanemeBUNN.sol\":2059:2065  amount */\n      dup3\n        /* \"contracts/Alaneme/AlanemeBUNN.sol\":2043:2056  senderBalance */\n      dup2\n        /* \"contracts/Alaneme/AlanemeBUNN.sol\":2043:2065  senderBalance - amount */\n      tag_88\n      swap2\n      swap1\n      tag_67\n      jump\t// in\n    tag_88:\n        /* \"contracts/Alaneme/AlanemeBUNN.sol\":2023:2032  balanceof */\n      0x03\n        /* \"contracts/Alaneme/AlanemeBUNN.sol\":2023:2040  balanceof[sender] */\n      0x00\n        /* \"contracts/Alaneme/AlanemeBUNN.sol\":2033:2039  sender */\n      dup8\n        /* \"contracts/Alaneme/AlanemeBUNN.sol\":2023:2040  balanceof[sender] */\n      0xffffffffffffffffffffffffffffffffffffffff\n      and\n      0xffffffffffffffffffffffffffffffffffffffff\n      and\n      dup2\n      mstore\n      0x20\n      add\n      swap1\n      dup2\n      mstore\n      0x20\n      add\n      0x00\n      keccak256\n        /* \"contracts/Alaneme/AlanemeBUNN.sol\":2023:2065  balanceof[sender] = senderBalance - amount */\n      dup2\n      swap1\n      sstore\n      pop\n        /* \"contracts/Alaneme/AlanemeBUNN.sol\":2098:2104  amount */\n      dup3\n        /* \"contracts/Alaneme/AlanemeBUNN.sol\":2074:2083  balanceof */\n      0x03\n        /* \"contracts/Alaneme/AlanemeBUNN.sol\":2074:2094  balanceof[recipient] */\n      0x00\n        /* \"contracts/Alaneme/AlanemeBUNN.sol\":2084:2093  recipient */\n      dup7\n        /* \"contracts/Alaneme/AlanemeBUNN.sol\":2074:2094  balanceof[recipient] */\n      0xffffffffffffffffffffffffffffffffffffffff\n      and\n      0xffffffffffffffffffffffffffffffffffffffff\n      and\n      dup2\n      mstore\n      0x20\n      add\n      swap1\n      dup2\n      mstore\n      0x20\n      add\n      0x00\n      keccak256\n      0x00\n        /* \"contracts/Alaneme/AlanemeBUNN.sol\":2074:2104  balanceof[recipient] += amount */\n      dup3\n      dup3\n      sload\n      tag_89\n      swap2\n      swap1\n      tag_90\n      jump\t// in\n    tag_89:\n      swap3\n      pop\n      pop\n      dup2\n      swap1\n      sstore\n      pop\n        /* \"contracts/Alaneme/AlanemeBUNN.sol\":2135:2144  recipient */\n      dup4\n        /* \"contracts/Alaneme/AlanemeBUNN.sol\":2118:2153  Transfer(sender, recipient, amount) */\n      0xffffffffffffffffffffffffffffffffffffffff\n      and\n        /* \"contracts/Alaneme/AlanemeBUNN.sol\":2127:2133  sender */\n      dup6\n        /* \"contracts/Alaneme/AlanemeBUNN.sol\":2118:2153  Transfer(sender, recipient, amount) */\n      0xffffffffffffffffffffffffffffffffffffffff\n      and\n      0xddf252ad1be2c89b69c2b068fc378daa952ba7f163c4a11628f55a4df523b3ef\n        /* \"contracts/Alaneme/AlanemeBUNN.sol\":2146:2152  amount */\n      dup6\n        /* \"contracts/Alaneme/AlanemeBUNN.sol\":2118:2153  Transfer(sender, recipient, amount) */\n      mload(0x40)\n      tag_91\n      swap2\n      swap1\n      tag_28\n      jump\t// in\n    tag_91:\n      mload(0x40)\n      dup1\n      swap2\n      sub\n      swap1\n      log3\n        /* \"contracts/Alaneme/AlanemeBUNN.sol\":2167:2171  true */\n      0x01\n        /* \"contracts/Alaneme/AlanemeBUNN.sol\":2160:2171  return true */\n      swap2\n      pop\n      pop\n        /* \"contracts/Alaneme/AlanemeBUNN.sol\":1717:2175  function _transfer(address sender , address recipient, uint256 amount) private returns (bool){... */\n      swap4\n      swap3\n      pop\n      pop\n      pop\n      jump\t// out\n        /* \"#utility.yul\":88:205   */\n    tag_93:\n        /* \"#utility.yul\":197:198   */\n      0x00\n        /* \"#utility.yul\":194:195   */\n      dup1\n        /* \"#utility.yul\":187:199   */\n      revert\n        /* \"#utility.yul\":334:460   */\n    tag_95:\n        /* \"#utility.yul\":371:378   */\n      0x00\n        /* \"#utility.yul\":411:453   */\n      0xffffffffffffffffffffffffffffffffffffffff\n        /* \"#utility.yul\":404:409   */\n      dup3\n        /* \"#utility.yul\":400:454   */\n      and\n        /* \"#utility.yul\":389:454   */\n      swap1\n      pop\n        /* \"#utility.yul\":334:460   */\n      swap2\n      swap1\n      pop\n      jump\t// out\n        /* \"#utility.yul\":466:562   */\n    tag_96:\n        /* \"#utility.yul\":503:510   */\n      0x00\n        /* \"#utility.yul\":532:556   */\n      tag_128\n        /* \"#utility.yul\":550:555   */\n      dup3\n        /* \"#utility.yul\":532:556   */\n      tag_95\n      jump\t// in\n    tag_128:\n        /* \"#utility.yul\":521:556   */\n      swap1\n      pop\n        /* \"#utility.yul\":466:562   */\n      swap2\n      swap1\n      pop\n      jump\t// out\n        /* \"#utility.yul\":568:690   */\n    tag_97:\n        /* \"#utility.yul\":641:665   */\n      tag_130\n        /* \"#utility.yul\":659:664   */\n      dup2\n        /* \"#utility.yul\":641:665   */\n      tag_96\n      jump\t// in\n    tag_130:\n        /* \"#utility.yul\":634:639   */\n      dup2\n        /* \"#utility.yul\":631:666   */\n      eq\n        /* \"#utility.yul\":621:684   */\n      tag_131\n      jumpi\n        /* \"#utility.yul\":680:681   */\n      0x00\n        /* \"#utility.yul\":677:678   */\n      dup1\n        /* \"#utility.yul\":670:682   */\n      revert\n        /* \"#utility.yul\":621:684   */\n    tag_131:\n        /* \"#utility.yul\":568:690   */\n      pop\n      jump\t// out\n        /* \"#utility.yul\":696:835   */\n    tag_98:\n        /* \"#utility.yul\":742:747   */\n      0x00\n        /* \"#utility.yul\":780:786   */\n      dup2\n        /* \"#utility.yul\":767:787   */\n      calldataload\n        /* \"#utility.yul\":758:787   */\n      swap1\n      pop\n        /* \"#utility.yul\":796:829   */\n      tag_133\n        /* \"#utility.yul\":823:828   */\n      dup2\n        /* \"#utility.yul\":796:829   */\n      tag_97\n      jump\t// in\n    tag_133:\n        /* \"#utility.yul\":696:835   */\n      swap3\n      swap2\n      pop\n      pop\n      jump\t// out\n        /* \"#utility.yul\":841:918   */\n    tag_99:\n        /* \"#utility.yul\":878:885   */\n      0x00\n        /* \"#utility.yul\":907:912   */\n      dup2\n        /* \"#utility.yul\":896:912   */\n      swap1\n      pop\n        /* \"#utility.yul\":841:918   */\n      swap2\n      swap1\n      pop\n      jump\t// out\n        /* \"#utility.yul\":924:1046   */\n    tag_100:\n        /* \"#utility.yul\":997:1021   */\n      tag_136\n        /* \"#utility.yul\":1015:1020   */\n      dup2\n        /* \"#utility.yul\":997:1021   */\n      tag_99\n      jump\t// in\n    tag_136:\n        /* \"#utility.yul\":990:995   */\n      dup2\n        /* \"#utility.yul\":987:1022   */\n      eq\n        /* \"#utility.yul\":977:1040   */\n      tag_137\n      jumpi\n        /* \"#utility.yul\":1036:1037   */\n      0x00\n        /* \"#utility.yul\":1033:1034   */\n      dup1\n        /* \"#utility.yul\":1026:1038   */\n      revert\n        /* \"#utility.yul\":977:1040   */\n    tag_137:\n        /* \"#utility.yul\":924:1046   */\n      pop\n      jump\t// out\n        /* \"#utility.yul\":1052:1191   */\n    tag_101:\n        /* \"#utility.yul\":1098:1103   */\n      0x00\n        /* \"#utility.yul\":1136:1142   */\n      dup2\n        /* \"#utility.yul\":1123:1143   */\n      calldataload\n        /* \"#utility.yul\":1114:1143   */\n      swap1\n      pop\n        /* \"#utility.yul\":1152:1185   */\n      tag_139\n        /* \"#utility.yul\":1179:1184   */\n      dup2\n        /* \"#utility.yul\":1152:1185   */\n      tag_100\n      jump\t// in\n    tag_139:\n        /* \"#utility.yul\":1052:1191   */\n      swap3\n      swap2\n      pop\n      pop\n      jump\t// out\n        /* \"#utility.yul\":1197:1671   */\n    tag_15:\n        /* \"#utility.yul\":1265:1271   */\n      0x00\n        /* \"#utility.yul\":1273:1279   */\n      dup1\n        /* \"#utility.yul\":1322:1324   */\n      0x40\n        /* \"#utility.yul\":1310:1319   */\n      dup4\n        /* \"#utility.yul\":1301:1308   */\n      dup6\n        /* \"#utility.yul\":1297:1320   */\n      sub\n        /* \"#utility.yul\":1293:1325   */\n      slt\n        /* \"#utility.yul\":1290:1409   */\n      iszero\n      tag_141\n      jumpi\n        /* \"#utility.yul\":1328:1407   */\n      tag_142\n      tag_93\n      jump\t// in\n    tag_142:\n        /* \"#utility.yul\":1290:1409   */\n    tag_141:\n        /* \"#utility.yul\":1448:1449   */\n      0x00\n        /* \"#utility.yul\":1473:1526   */\n      tag_143\n        /* \"#utility.yul\":1518:1525   */\n      dup6\n        /* \"#utility.yul\":1509:1515   */\n      dup3\n        /* \"#utility.yul\":1498:1507   */\n      dup7\n        /* \"#utility.yul\":1494:1516   */\n      add\n        /* \"#utility.yul\":1473:1526   */\n      tag_98\n      jump\t// in\n    tag_143:\n        /* \"#utility.yul\":1463:1526   */\n      swap3\n      pop\n        /* \"#utility.yul\":1419:1536   */\n      pop\n        /* \"#utility.yul\":1575:1577   */\n      0x20\n        /* \"#utility.yul\":1601:1654   */\n      tag_144\n        /* \"#utility.yul\":1646:1653   */\n      dup6\n        /* \"#utility.yul\":1637:1643   */\n      dup3\n        /* \"#utility.yul\":1626:1635   */\n      dup7\n        /* \"#utility.yul\":1622:1644   */\n      add\n        /* \"#utility.yul\":1601:1654   */\n      tag_101\n      jump\t// in\n    tag_144:\n        /* \"#utility.yul\":1591:1654   */\n      swap2\n      pop\n        /* \"#utility.yul\":1546:1664   */\n      pop\n        /* \"#utility.yul\":1197:1671   */\n      swap3\n      pop\n      swap3\n      swap1\n      pop\n      jump\t// out\n        /* \"#utility.yul\":1677:1767   */\n    tag_102:\n        /* \"#utility.yul\":1711:1718   */\n      0x00\n        /* \"#utility.yul\":1754:1759   */\n      dup2\n        /* \"#utility.yul\":1747:1760   */\n      iszero\n        /* \"#utility.yul\":1740:1761   */\n      iszero\n        /* \"#utility.yul\":1729:1761   */\n      swap1\n      pop\n        /* \"#utility.yul\":1677:1767   */\n      swap2\n      swap1\n      pop\n      jump\t// out\n        /* \"#utility.yul\":1773:1882   */\n    tag_103:\n        /* \"#utility.yul\":1854:1875   */\n      tag_147\n        /* \"#utility.yul\":1869:1874   */\n      dup2\n        /* \"#utility.yul\":1854:1875   */\n      tag_102\n      jump\t// in\n    tag_147:\n        /* \"#utility.yul\":1849:1852   */\n      dup3\n        /* \"#utility.yul\":1842:1876   */\n      mstore\n        /* \"#utility.yul\":1773:1882   */\n      pop\n      pop\n      jump\t// out\n        /* \"#utility.yul\":1888:2098   */\n    tag_18:\n        /* \"#utility.yul\":1975:1979   */\n      0x00\n        /* \"#utility.yul\":2013:2015   */\n      0x20\n        /* \"#utility.yul\":2002:2011   */\n      dup3\n        /* \"#utility.yul\":1998:2016   */\n      add\n        /* \"#utility.yul\":1990:2016   */\n      swap1\n      pop\n        /* \"#utility.yul\":2026:2091   */\n      tag_149\n        /* \"#utility.yul\":2088:2089   */\n      0x00\n        /* \"#utility.yul\":2077:2086   */\n      dup4\n        /* \"#utility.yul\":2073:2090   */\n      add\n        /* \"#utility.yul\":2064:2070   */\n      dup5\n        /* \"#utility.yul\":2026:2091   */\n      tag_103\n      jump\t// in\n    tag_149:\n        /* \"#utility.yul\":1888:2098   */\n      swap3\n      swap2\n      pop\n      pop\n      jump\t// out\n        /* \"#utility.yul\":2104:2203   */\n    tag_104:\n        /* \"#utility.yul\":2156:2162   */\n      0x00\n        /* \"#utility.yul\":2190:2195   */\n      dup2\n        /* \"#utility.yul\":2184:2196   */\n      mload\n        /* \"#utility.yul\":2174:2196   */\n      swap1\n      pop\n        /* \"#utility.yul\":2104:2203   */\n      swap2\n      swap1\n      pop\n      jump\t// out\n        /* \"#utility.yul\":2209:2378   */\n    tag_105:\n        /* \"#utility.yul\":2293:2304   */\n      0x00\n        /* \"#utility.yul\":2327:2333   */\n      dup3\n        /* \"#utility.yul\":2322:2325   */\n      dup3\n        /* \"#utility.yul\":2315:2334   */\n      mstore\n        /* \"#utility.yul\":2367:2371   */\n      0x20\n        /* \"#utility.yul\":2362:2365   */\n      dup3\n        /* \"#utility.yul\":2358:2372   */\n      add\n        /* \"#utility.yul\":2343:2372   */\n      swap1\n      pop\n        /* \"#utility.yul\":2209:2378   */\n      swap3\n      swap2\n      pop\n      pop\n      jump\t// out\n        /* \"#utility.yul\":2384:2630   */\n    tag_106:\n        /* \"#utility.yul\":2465:2466   */\n      0x00\n        /* \"#utility.yul\":2475:2588   */\n    tag_153:\n        /* \"#utility.yul\":2489:2495   */\n      dup4\n        /* \"#utility.yul\":2486:2487   */\n      dup2\n        /* \"#utility.yul\":2483:2496   */\n      lt\n        /* \"#utility.yul\":2475:2588   */\n      iszero\n      tag_155\n      jumpi\n        /* \"#utility.yul\":2574:2575   */\n      dup1\n        /* \"#utility.yul\":2569:2572   */\n      dup3\n        /* \"#utility.yul\":2565:2576   */\n      add\n        /* \"#utility.yul\":2559:2577   */\n      mload\n        /* \"#utility.yul\":2555:2556   */\n      dup2\n        /* \"#utility.yul\":2550:2553   */\n      dup5\n        /* \"#utility.yul\":2546:2557   */\n      add\n        /* \"#utility.yul\":2539:2578   */\n      mstore\n        /* \"#utility.yul\":2511:2513   */\n      0x20\n        /* \"#utility.yul\":2508:2509   */\n      dup2\n        /* \"#utility.yul\":2504:2514   */\n      add\n        /* \"#utility.yul\":2499:2514   */\n      swap1\n      pop\n        /* \"#utility.yul\":2475:2588   */\n      jump(tag_153)\n    tag_155:\n        /* \"#utility.yul\":2622:2623   */\n      0x00\n        /* \"#utility.yul\":2613:2619   */\n      dup5\n        /* \"#utility.yul\":2608:2611   */\n      dup5\n        /* \"#utility.yul\":2604:2620   */\n      add\n        /* \"#utility.yul\":2597:2624   */\n      mstore\n        /* \"#utility.yul\":2446:2630   */\n      pop\n        /* \"#utility.yul\":2384:2630   */\n      pop\n      pop\n      pop\n      jump\t// out\n        /* \"#utility.yul\":2636:2738   */\n    tag_107:\n        /* \"#utility.yul\":2677:2683   */\n      0x00\n        /* \"#utility.yul\":2728:2730   */\n      0x1f\n        /* \"#utility.yul\":2724:2731   */\n      not\n        /* \"#utility.yul\":2719:2721   */\n      0x1f\n        /* \"#utility.yul\":2712:2717   */\n      dup4\n        /* \"#utility.yul\":2708:2722   */\n      add\n        /* \"#utility.yul\":2704:2732   */\n      and\n        /* \"#utility.yul\":2694:2732   */\n      swap1\n      pop\n        /* \"#utility.yul\":2636:2738   */\n      swap2\n      swap1\n      pop\n      jump\t// out\n        /* \"#utility.yul\":2744:3121   */\n    tag_108:\n        /* \"#utility.yul\":2832:2835   */\n      0x00\n        /* \"#utility.yul\":2860:2899   */\n      tag_158\n        /* \"#utility.yul\":2893:2898   */\n      dup3\n        /* \"#utility.yul\":2860:2899   */\n      tag_104\n      jump\t// in\n    tag_158:\n        /* \"#utility.yul\":2915:2986   */\n      tag_159\n        /* \"#utility.yul\":2979:2985   */\n      dup2\n        /* \"#utility.yul\":2974:2977   */\n      dup6\n        /* \"#utility.yul\":2915:2986   */\n      tag_105\n      jump\t// in\n    tag_159:\n        /* \"#utility.yul\":2908:2986   */\n      swap4\n      pop\n        /* \"#utility.yul\":2995:3060   */\n      tag_160\n        /* \"#utility.yul\":3053:3059   */\n      dup2\n        /* \"#utility.yul\":3048:3051   */\n      dup6\n        /* \"#utility.yul\":3041:3045   */\n      0x20\n        /* \"#utility.yul\":3034:3039   */\n      dup7\n        /* \"#utility.yul\":3030:3046   */\n      add\n        /* \"#utility.yul\":2995:3060   */\n      tag_106\n      jump\t// in\n    tag_160:\n        /* \"#utility.yul\":3085:3114   */\n      tag_161\n        /* \"#utility.yul\":3107:3113   */\n      dup2\n        /* \"#utility.yul\":3085:3114   */\n      tag_107\n      jump\t// in\n    tag_161:\n        /* \"#utility.yul\":3080:3083   */\n      dup5\n        /* \"#utility.yul\":3076:3115   */\n      add\n        /* \"#utility.yul\":3069:3115   */\n      swap2\n      pop\n        /* \"#utility.yul\":2836:3121   */\n      pop\n        /* \"#utility.yul\":2744:3121   */\n      swap3\n      swap2\n      pop\n      pop\n      jump\t// out\n        /* \"#utility.yul\":3127:3440   */\n    tag_22:\n        /* \"#utility.yul\":3240:3244   */\n      0x00\n        /* \"#utility.yul\":3278:3280   */\n      0x20\n        /* \"#utility.yul\":3267:3276   */\n      dup3\n        /* \"#utility.yul\":3263:3281   */\n      add\n        /* \"#utility.yul\":3255:3281   */\n      swap1\n      pop\n        /* \"#utility.yul\":3327:3336   */\n      dup2\n        /* \"#utility.yul\":3321:3325   */\n      dup2\n        /* \"#utility.yul\":3317:3337   */\n      sub\n        /* \"#utility.yul\":3313:3314   */\n      0x00\n        /* \"#utility.yul\":3302:3311   */\n      dup4\n        /* \"#utility.yul\":3298:3315   */\n      add\n        /* \"#utility.yul\":3291:3338   */\n      mstore\n        /* \"#utility.yul\":3355:3433   */\n      tag_163\n        /* \"#utility.yul\":3428:3432   */\n      dup2\n        /* \"#utility.yul\":3419:3425   */\n      dup5\n        /* \"#utility.yul\":3355:3433   */\n      tag_108\n      jump\t// in\n    tag_163:\n        /* \"#utility.yul\":3347:3433   */\n      swap1\n      pop\n        /* \"#utility.yul\":3127:3440   */\n      swap3\n      swap2\n      pop\n      pop\n      jump\t// out\n        /* \"#utility.yul\":3446:3775   */\n    tag_25:\n        /* \"#utility.yul\":3505:3511   */\n      0x00\n        /* \"#utility.yul\":3554:3556   */\n      0x20\n        /* \"#utility.yul\":3542:3551   */\n      dup3\n        /* \"#utility.yul\":3533:3540   */\n      dup5\n        /* \"#utility.yul\":3529:3552   */\n      sub\n        /* \"#utility.yul\":3525:3557   */\n      slt\n        /* \"#utility.yul\":3522:3641   */\n      iszero\n      tag_165\n      jumpi\n        /* \"#utility.yul\":3560:3639   */\n      tag_166\n      tag_93\n      jump\t// in\n    tag_166:\n        /* \"#utility.yul\":3522:3641   */\n    tag_165:\n        /* \"#utility.yul\":3680:3681   */\n      0x00\n        /* \"#utility.yul\":3705:3758   */\n      tag_167\n        /* \"#utility.yul\":3750:3757   */\n      dup5\n        /* \"#utility.yul\":3741:3747   */\n      dup3\n        /* \"#utility.yul\":3730:3739   */\n      dup6\n        /* \"#utility.yul\":3726:3748   */\n      add\n        /* \"#utility.yul\":3705:3758   */\n      tag_98\n      jump\t// in\n    tag_167:\n        /* \"#utility.yul\":3695:3758   */\n      swap2\n      pop\n        /* \"#utility.yul\":3651:3768   */\n      pop\n        /* \"#utility.yul\":3446:3775   */\n      swap3\n      swap2\n      pop\n      pop\n      jump\t// out\n        /* \"#utility.yul\":3781:3899   */\n    tag_109:\n        /* \"#utility.yul\":3868:3892   */\n      tag_169\n        /* \"#utility.yul\":3886:3891   */\n      dup2\n        /* \"#utility.yul\":3868:3892   */\n      tag_99\n      jump\t// in\n    tag_169:\n        /* \"#utility.yul\":3863:3866   */\n      dup3\n        /* \"#utility.yul\":3856:3893   */\n      mstore\n        /* \"#utility.yul\":3781:3899   */\n      pop\n      pop\n      jump\t// out\n        /* \"#utility.yul\":3905:4127   */\n    tag_28:\n        /* \"#utility.yul\":3998:4002   */\n      0x00\n        /* \"#utility.yul\":4036:4038   */\n      0x20\n        /* \"#utility.yul\":4025:4034   */\n      dup3\n        /* \"#utility.yul\":4021:4039   */\n      add\n        /* \"#utility.yul\":4013:4039   */\n      swap1\n      pop\n        /* \"#utility.yul\":4049:4120   */\n      tag_171\n        /* \"#utility.yul\":4117:4118   */\n      0x00\n        /* \"#utility.yul\":4106:4115   */\n      dup4\n        /* \"#utility.yul\":4102:4119   */\n      add\n        /* \"#utility.yul\":4093:4099   */\n      dup5\n        /* \"#utility.yul\":4049:4120   */\n      tag_109\n      jump\t// in\n    tag_171:\n        /* \"#utility.yul\":3905:4127   */\n      swap3\n      swap2\n      pop\n      pop\n      jump\t// out\n        /* \"#utility.yul\":4133:4752   */\n    tag_31:\n        /* \"#utility.yul\":4210:4216   */\n      0x00\n        /* \"#utility.yul\":4218:4224   */\n      dup1\n        /* \"#utility.yul\":4226:4232   */\n      0x00\n        /* \"#utility.yul\":4275:4277   */\n      0x60\n        /* \"#utility.yul\":4263:4272   */\n      dup5\n        /* \"#utility.yul\":4254:4261   */\n      dup7\n        /* \"#utility.yul\":4250:4273   */\n      sub\n        /* \"#utility.yul\":4246:4278   */\n      slt\n        /* \"#utility.yul\":4243:4362   */\n      iszero\n      tag_173\n      jumpi\n        /* \"#utility.yul\":4281:4360   */\n      tag_174\n      tag_93\n      jump\t// in\n    tag_174:\n        /* \"#utility.yul\":4243:4362   */\n    tag_173:\n        /* \"#utility.yul\":4401:4402   */\n      0x00\n        /* \"#utility.yul\":4426:4479   */\n      tag_175\n        /* \"#utility.yul\":4471:4478   */\n      dup7\n        /* \"#utility.yul\":4462:4468   */\n      dup3\n        /* \"#utility.yul\":4451:4460   */\n      dup8\n        /* \"#utility.yul\":4447:4469   */\n      add\n        /* \"#utility.yul\":4426:4479   */\n      tag_98\n      jump\t// in\n    tag_175:\n        /* \"#utility.yul\":4416:4479   */\n      swap4\n      pop\n        /* \"#utility.yul\":4372:4489   */\n      pop\n        /* \"#utility.yul\":4528:4530   */\n      0x20\n        /* \"#utility.yul\":4554:4607   */\n      tag_176\n        /* \"#utility.yul\":4599:4606   */\n      dup7\n        /* \"#utility.yul\":4590:4596   */\n      dup3\n        /* \"#utility.yul\":4579:4588   */\n      dup8\n        /* \"#utility.yul\":4575:4597   */\n      add\n        /* \"#utility.yul\":4554:4607   */\n      tag_98\n      jump\t// in\n    tag_176:\n        /* \"#utility.yul\":4544:4607   */\n      swap3\n      pop\n        /* \"#utility.yul\":4499:4617   */\n      pop\n        /* \"#utility.yul\":4656:4658   */\n      0x40\n        /* \"#utility.yul\":4682:4735   */\n      tag_177\n        /* \"#utility.yul\":4727:4734   */\n      dup7\n        /* \"#utility.yul\":4718:4724   */\n      dup3\n        /* \"#utility.yul\":4707:4716   */\n      dup8\n        /* \"#utility.yul\":4703:4725   */\n      add\n        /* \"#utility.yul\":4682:4735   */\n      tag_101\n      jump\t// in\n    tag_177:\n        /* \"#utility.yul\":4672:4735   */\n      swap2\n      pop\n        /* \"#utility.yul\":4627:4745   */\n      pop\n        /* \"#utility.yul\":4133:4752   */\n      swap3\n      pop\n      swap3\n      pop\n      swap3\n      jump\t// out\n        /* \"#utility.yul\":4758:4844   */\n    tag_110:\n        /* \"#utility.yul\":4793:4800   */\n      0x00\n        /* \"#utility.yul\":4833:4837   */\n      0xff\n        /* \"#utility.yul\":4826:4831   */\n      dup3\n        /* \"#utility.yul\":4822:4838   */\n      and\n        /* \"#utility.yul\":4811:4838   */\n      swap1\n      pop\n        /* \"#utility.yul\":4758:4844   */\n      swap2\n      swap1\n      pop\n      jump\t// out\n        /* \"#utility.yul\":4850:4962   */\n    tag_111:\n        /* \"#utility.yul\":4933:4955   */\n      tag_180\n        /* \"#utility.yul\":4949:4954   */\n      dup2\n        /* \"#utility.yul\":4933:4955   */\n      tag_110\n      jump\t// in\n    tag_180:\n        /* \"#utility.yul\":4928:4931   */\n      dup3\n        /* \"#utility.yul\":4921:4956   */\n      mstore\n        /* \"#utility.yul\":4850:4962   */\n      pop\n      pop\n      jump\t// out\n        /* \"#utility.yul\":4968:5182   */\n    tag_44:\n        /* \"#utility.yul\":5057:5061   */\n      0x00\n        /* \"#utility.yul\":5095:5097   */\n      0x20\n        /* \"#utility.yul\":5084:5093   */\n      dup3\n        /* \"#utility.yul\":5080:5098   */\n      add\n        /* \"#utility.yul\":5072:5098   */\n      swap1\n      pop\n        /* \"#utility.yul\":5108:5175   */\n      tag_182\n        /* \"#utility.yul\":5172:5173   */\n      0x00\n        /* \"#utility.yul\":5161:5170   */\n      dup4\n        /* \"#utility.yul\":5157:5174   */\n      add\n        /* \"#utility.yul\":5148:5154   */\n      dup5\n        /* \"#utility.yul\":5108:5175   */\n      tag_111\n      jump\t// in\n    tag_182:\n        /* \"#utility.yul\":4968:5182   */\n      swap3\n      swap2\n      pop\n      pop\n      jump\t// out\n        /* \"#utility.yul\":5188:5662   */\n    tag_50:\n        /* \"#utility.yul\":5256:5262   */\n      0x00\n        /* \"#utility.yul\":5264:5270   */\n      dup1\n        /* \"#utility.yul\":5313:5315   */\n      0x40\n        /* \"#utility.yul\":5301:5310   */\n      dup4\n        /* \"#utility.yul\":5292:5299   */\n      dup6\n        /* \"#utility.yul\":5288:5311   */\n      sub\n        /* \"#utility.yul\":5284:5316   */\n      slt\n        /* \"#utility.yul\":5281:5400   */\n      iszero\n      tag_184\n      jumpi\n        /* \"#utility.yul\":5319:5398   */\n      tag_185\n      tag_93\n      jump\t// in\n    tag_185:\n        /* \"#utility.yul\":5281:5400   */\n    tag_184:\n        /* \"#utility.yul\":5439:5440   */\n      0x00\n        /* \"#utility.yul\":5464:5517   */\n      tag_186\n        /* \"#utility.yul\":5509:5516   */\n      dup6\n        /* \"#utility.yul\":5500:5506   */\n      dup3\n        /* \"#utility.yul\":5489:5498   */\n      dup7\n        /* \"#utility.yul\":5485:5507   */\n      add\n        /* \"#utility.yul\":5464:5517   */\n      tag_98\n      jump\t// in\n    tag_186:\n        /* \"#utility.yul\":5454:5517   */\n      swap3\n      pop\n        /* \"#utility.yul\":5410:5527   */\n      pop\n        /* \"#utility.yul\":5566:5568   */\n      0x20\n        /* \"#utility.yul\":5592:5645   */\n      tag_187\n        /* \"#utility.yul\":5637:5644   */\n      dup6\n        /* \"#utility.yul\":5628:5634   */\n      dup3\n        /* \"#utility.yul\":5617:5626   */\n      dup7\n        /* \"#utility.yul\":5613:5635   */\n      add\n        /* \"#utility.yul\":5592:5645   */\n      tag_98\n      jump\t// in\n    tag_187:\n        /* \"#utility.yul\":5582:5645   */\n      swap2\n      pop\n        /* \"#utility.yul\":5537:5655   */\n      pop\n        /* \"#utility.yul\":5188:5662   */\n      swap3\n      pop\n      swap3\n      swap1\n      pop\n      jump\t// out\n        /* \"#utility.yul\":5668:5848   */\n    tag_112:\n        /* \"#utility.yul\":5716:5793   */\n      0x4e487b7100000000000000000000000000000000000000000000000000000000\n        /* \"#utility.yul\":5713:5714   */\n      0x00\n        /* \"#utility.yul\":5706:5794   */\n      mstore\n        /* \"#utility.yul\":5813:5817   */\n      0x22\n        /* \"#utility.yul\":5810:5811   */\n      0x04\n        /* \"#utility.yul\":5803:5818   */\n      mstore\n        /* \"#utility.yul\":5837:5841   */\n      0x24\n        /* \"#utility.yul\":5834:5835   */\n      0x00\n        /* \"#utility.yul\":5827:5842   */\n      revert\n        /* \"#utility.yul\":5854:6174   */\n    tag_57:\n        /* \"#utility.yul\":5898:5904   */\n      0x00\n        /* \"#utility.yul\":5935:5936   */\n      0x02\n        /* \"#utility.yul\":5929:5933   */\n      dup3\n        /* \"#utility.yul\":5925:5937   */\n      div\n        /* \"#utility.yul\":5915:5937   */\n      swap1\n      pop\n        /* \"#utility.yul\":5982:5983   */\n      0x01\n        /* \"#utility.yul\":5976:5980   */\n      dup3\n        /* \"#utility.yul\":5972:5984   */\n      and\n        /* \"#utility.yul\":6003:6021   */\n      dup1\n        /* \"#utility.yul\":5993:6074   */\n      tag_190\n      jumpi\n        /* \"#utility.yul\":6059:6063   */\n      0x7f\n        /* \"#utility.yul\":6051:6057   */\n      dup3\n        /* \"#utility.yul\":6047:6064   */\n      and\n        /* \"#utility.yul\":6037:6064   */\n      swap2\n      pop\n        /* \"#utility.yul\":5993:6074   */\n    tag_190:\n        /* \"#utility.yul\":6121:6123   */\n      0x20\n        /* \"#utility.yul\":6113:6119   */\n      dup3\n        /* \"#utility.yul\":6110:6124   */\n      lt\n        /* \"#utility.yul\":6090:6108   */\n      dup2\n        /* \"#utility.yul\":6087:6125   */\n      sub\n        /* \"#utility.yul\":6084:6168   */\n      tag_191\n      jumpi\n        /* \"#utility.yul\":6140:6158   */\n      tag_192\n      tag_112\n      jump\t// in\n    tag_192:\n        /* \"#utility.yul\":6084:6168   */\n    tag_191:\n        /* \"#utility.yul\":5905:6174   */\n      pop\n        /* \"#utility.yul\":5854:6174   */\n      swap2\n      swap1\n      pop\n      jump\t// out\n        /* \"#utility.yul\":6180:6410   */\n    tag_113:\n        /* \"#utility.yul\":6320:6354   */\n      0x4572633230207472616e7366657220616d6f756e74206d757374206578636565\n        /* \"#utility.yul\":6316:6317   */\n      0x00\n        /* \"#utility.yul\":6308:6314   */\n      dup3\n        /* \"#utility.yul\":6304:6318   */\n      add\n        /* \"#utility.yul\":6297:6355   */\n      mstore\n        /* \"#utility.yul\":6389:6402   */\n      0x6420616c6c6f77616e6365000000000000000000000000000000000000000000\n        /* \"#utility.yul\":6384:6386   */\n      0x20\n        /* \"#utility.yul\":6376:6382   */\n      dup3\n        /* \"#utility.yul\":6372:6387   */\n      add\n        /* \"#utility.yul\":6365:6403   */\n      mstore\n        /* \"#utility.yul\":6180:6410   */\n      pop\n      jump\t// out\n        /* \"#utility.yul\":6416:6782   */\n    tag_114:\n        /* \"#utility.yul\":6558:6561   */\n      0x00\n        /* \"#utility.yul\":6579:6646   */\n      tag_195\n        /* \"#utility.yul\":6643:6645   */\n      0x2b\n        /* \"#utility.yul\":6638:6641   */\n      dup4\n        /* \"#utility.yul\":6579:6646   */\n      tag_105\n      jump\t// in\n    tag_195:\n        /* \"#utility.yul\":6572:6646   */\n      swap2\n      pop\n        /* \"#utility.yul\":6655:6748   */\n      tag_196\n        /* \"#utility.yul\":6744:6747   */\n      dup3\n        /* \"#utility.yul\":6655:6748   */\n      tag_113\n      jump\t// in\n    tag_196:\n        /* \"#utility.yul\":6773:6775   */\n      0x40\n        /* \"#utility.yul\":6768:6771   */\n      dup3\n        /* \"#utility.yul\":6764:6776   */\n      add\n        /* \"#utility.yul\":6757:6776   */\n      swap1\n      pop\n        /* \"#utility.yul\":6416:6782   */\n      swap2\n      swap1\n      pop\n      jump\t// out\n        /* \"#utility.yul\":6788:7207   */\n    tag_65:\n        /* \"#utility.yul\":6954:6958   */\n      0x00\n        /* \"#utility.yul\":6992:6994   */\n      0x20\n        /* \"#utility.yul\":6981:6990   */\n      dup3\n        /* \"#utility.yul\":6977:6995   */\n      add\n        /* \"#utility.yul\":6969:6995   */\n      swap1\n      pop\n        /* \"#utility.yul\":7041:7050   */\n      dup2\n        /* \"#utility.yul\":7035:7039   */\n      dup2\n        /* \"#utility.yul\":7031:7051   */\n      sub\n        /* \"#utility.yul\":7027:7028   */\n      0x00\n        /* \"#utility.yul\":7016:7025   */\n      dup4\n        /* \"#utility.yul\":7012:7029   */\n      add\n        /* \"#utility.yul\":7005:7052   */\n      mstore\n        /* \"#utility.yul\":7069:7200   */\n      tag_198\n        /* \"#utility.yul\":7195:7199   */\n      dup2\n        /* \"#utility.yul\":7069:7200   */\n      tag_114\n      jump\t// in\n    tag_198:\n        /* \"#utility.yul\":7061:7200   */\n      swap1\n      pop\n        /* \"#utility.yul\":6788:7207   */\n      swap2\n      swap1\n      pop\n      jump\t// out\n        /* \"#utility.yul\":7213:7393   */\n    tag_115:\n        /* \"#utility.yul\":7261:7338   */\n      0x4e487b7100000000000000000000000000000000000000000000000000000000\n        /* \"#utility.yul\":7258:7259   */\n      0x00\n        /* \"#utility.yul\":7251:7339   */\n      mstore\n        /* \"#utility.yul\":7358:7362   */\n      0x11\n        /* \"#utility.yul\":7355:7356   */\n      0x04\n        /* \"#utility.yul\":7348:7363   */\n      mstore\n        /* \"#utility.yul\":7382:7386   */\n      0x24\n        /* \"#utility.yul\":7379:7380   */\n      0x00\n        /* \"#utility.yul\":7372:7387   */\n      revert\n        /* \"#utility.yul\":7399:7593   */\n    tag_67:\n        /* \"#utility.yul\":7439:7443   */\n      0x00\n        /* \"#utility.yul\":7459:7479   */\n      tag_201\n        /* \"#utility.yul\":7477:7478   */\n      dup3\n        /* \"#utility.yul\":7459:7479   */\n      tag_99\n      jump\t// in\n    tag_201:\n        /* \"#utility.yul\":7454:7479   */\n      swap2\n      pop\n        /* \"#utility.yul\":7493:7513   */\n      tag_202\n        /* \"#utility.yul\":7511:7512   */\n      dup4\n        /* \"#utility.yul\":7493:7513   */\n      tag_99\n      jump\t// in\n    tag_202:\n        /* \"#utility.yul\":7488:7513   */\n      swap3\n      pop\n        /* \"#utility.yul\":7537:7538   */\n      dup3\n        /* \"#utility.yul\":7534:7535   */\n      dup3\n        /* \"#utility.yul\":7530:7539   */\n      sub\n        /* \"#utility.yul\":7522:7539   */\n      swap1\n      pop\n        /* \"#utility.yul\":7561:7562   */\n      dup2\n        /* \"#utility.yul\":7555:7559   */\n      dup2\n        /* \"#utility.yul\":7552:7563   */\n      gt\n        /* \"#utility.yul\":7549:7586   */\n      iszero\n      tag_203\n      jumpi\n        /* \"#utility.yul\":7566:7584   */\n      tag_204\n      tag_115\n      jump\t// in\n    tag_204:\n        /* \"#utility.yul\":7549:7586   */\n    tag_203:\n        /* \"#utility.yul\":7399:7593   */\n      swap3\n      swap2\n      pop\n      pop\n      jump\t// out\n        /* \"#utility.yul\":7599:7777   */\n    tag_116:\n        /* \"#utility.yul\":7739:7769   */\n      0x657263323020617070726f766520746f20746865206164647265737300000000\n        /* \"#utility.yul\":7735:7736   */\n      0x00\n        /* \"#utility.yul\":7727:7733   */\n      dup3\n        /* \"#utility.yul\":7723:7737   */\n      add\n        /* \"#utility.yul\":7716:7770   */\n      mstore\n        /* \"#utility.yul\":7599:7777   */\n      pop\n      jump\t// out\n        /* \"#utility.yul\":7783:8149   */\n    tag_117:\n        /* \"#utility.yul\":7925:7928   */\n      0x00\n        /* \"#utility.yul\":7946:8013   */\n      tag_207\n        /* \"#utility.yul\":8010:8012   */\n      0x1c\n        /* \"#utility.yul\":8005:8008   */\n      dup4\n        /* \"#utility.yul\":7946:8013   */\n      tag_105\n      jump\t// in\n    tag_207:\n        /* \"#utility.yul\":7939:8013   */\n      swap2\n      pop\n        /* \"#utility.yul\":8022:8115   */\n      tag_208\n        /* \"#utility.yul\":8111:8114   */\n      dup3\n        /* \"#utility.yul\":8022:8115   */\n      tag_116\n      jump\t// in\n    tag_208:\n        /* \"#utility.yul\":8140:8142   */\n      0x20\n        /* \"#utility.yul\":8135:8138   */\n      dup3\n        /* \"#utility.yul\":8131:8143   */\n      add\n        /* \"#utility.yul\":8124:8143   */\n      swap1\n      pop\n        /* \"#utility.yul\":7783:8149   */\n      swap2\n      swap1\n      pop\n      jump\t// out\n        /* \"#utility.yul\":8155:8574   */\n    tag_73:\n        /* \"#utility.yul\":8321:8325   */\n      0x00\n        /* \"#utility.yul\":8359:8361   */\n      0x20\n        /* \"#utility.yul\":8348:8357   */\n      dup3\n        /* \"#utility.yul\":8344:8362   */\n      add\n        /* \"#utility.yul\":8336:8362   */\n      swap1\n      pop\n        /* \"#utility.yul\":8408:8417   */\n      dup2\n        /* \"#utility.yul\":8402:8406   */\n      dup2\n        /* \"#utility.yul\":8398:8418   */\n      sub\n        /* \"#utility.yul\":8394:8395   */\n      0x00\n        /* \"#utility.yul\":8383:8392   */\n      dup4\n        /* \"#utility.yul\":8379:8396   */\n      add\n        /* \"#utility.yul\":8372:8419   */\n      mstore\n        /* \"#utility.yul\":8436:8567   */\n      tag_210\n        /* \"#utility.yul\":8562:8566   */\n      dup2\n        /* \"#utility.yul\":8436:8567   */\n      tag_117\n      jump\t// in\n    tag_210:\n        /* \"#utility.yul\":8428:8567   */\n      swap1\n      pop\n        /* \"#utility.yul\":8155:8574   */\n      swap2\n      swap1\n      pop\n      jump\t// out\n        /* \"#utility.yul\":8580:8757   */\n    tag_118:\n        /* \"#utility.yul\":8720:8749   */\n      0x6572633230207472616e7366657220746f206164647265737320300000000000\n        /* \"#utility.yul\":8716:8717   */\n      0x00\n        /* \"#utility.yul\":8708:8714   */\n      dup3\n        /* \"#utility.yul\":8704:8718   */\n      add\n        /* \"#utility.yul\":8697:8750   */\n      mstore\n        /* \"#utility.yul\":8580:8757   */\n      pop\n      jump\t// out\n        /* \"#utility.yul\":8763:9129   */\n    tag_119:\n        /* \"#utility.yul\":8905:8908   */\n      0x00\n        /* \"#utility.yul\":8926:8993   */\n      tag_213\n        /* \"#utility.yul\":8990:8992   */\n      0x1b\n        /* \"#utility.yul\":8985:8988   */\n      dup4\n        /* \"#utility.yul\":8926:8993   */\n      tag_105\n      jump\t// in\n    tag_213:\n        /* \"#utility.yul\":8919:8993   */\n      swap2\n      pop\n        /* \"#utility.yul\":9002:9095   */\n      tag_214\n        /* \"#utility.yul\":9091:9094   */\n      dup3\n        /* \"#utility.yul\":9002:9095   */\n      tag_118\n      jump\t// in\n    tag_214:\n        /* \"#utility.yul\":9120:9122   */\n      0x20\n        /* \"#utility.yul\":9115:9118   */\n      dup3\n        /* \"#utility.yul\":9111:9123   */\n      add\n        /* \"#utility.yul\":9104:9123   */\n      swap1\n      pop\n        /* \"#utility.yul\":8763:9129   */\n      swap2\n      swap1\n      pop\n      jump\t// out\n        /* \"#utility.yul\":9135:9554   */\n    tag_84:\n        /* \"#utility.yul\":9301:9305   */\n      0x00\n        /* \"#utility.yul\":9339:9341   */\n      0x20\n        /* \"#utility.yul\":9328:9337   */\n      dup3\n        /* \"#utility.yul\":9324:9342   */\n      add\n        /* \"#utility.yul\":9316:9342   */\n      swap1\n      pop\n        /* \"#utility.yul\":9388:9397   */\n      dup2\n        /* \"#utility.yul\":9382:9386   */\n      dup2\n        /* \"#utility.yul\":9378:9398   */\n      sub\n        /* \"#utility.yul\":9374:9375   */\n      0x00\n        /* \"#utility.yul\":9363:9372   */\n      dup4\n        /* \"#utility.yul\":9359:9376   */\n      add\n        /* \"#utility.yul\":9352:9399   */\n      mstore\n        /* \"#utility.yul\":9416:9547   */\n      tag_216\n        /* \"#utility.yul\":9542:9546   */\n      dup2\n        /* \"#utility.yul\":9416:9547   */\n      tag_119\n      jump\t// in\n    tag_216:\n        /* \"#utility.yul\":9408:9547   */\n      swap1\n      pop\n        /* \"#utility.yul\":9135:9554   */\n      swap2\n      swap1\n      pop\n      jump\t// out\n        /* \"#utility.yul\":9560:9784   */\n    tag_120:\n        /* \"#utility.yul\":9700:9734   */\n      0x6572633230207472616e7366657220616d6f756e742065786365656473206261\n        /* \"#utility.yul\":9696:9697   */\n      0x00\n        /* \"#utility.yul\":9688:9694   */\n      dup3\n        /* \"#utility.yul\":9684:9698   */\n      add\n        /* \"#utility.yul\":9677:9735   */\n      mstore\n        /* \"#utility.yul\":9769:9776   */\n      0x6c616e6365000000000000000000000000000000000000000000000000000000\n        /* \"#utility.yul\":9764:9766   */\n      0x20\n        /* \"#utility.yul\":9756:9762   */\n      dup3\n        /* \"#utility.yul\":9752:9767   */\n      add\n        /* \"#utility.yul\":9745:9777   */\n      mstore\n        /* \"#utility.yul\":9560:9784   */\n      pop\n      jump\t// out\n        /* \"#utility.yul\":9790:10156   */\n    tag_121:\n        /* \"#utility.yul\":9932:9935   */\n      0x00\n        /* \"#utility.yul\":9953:10020   */\n      tag_219\n        /* \"#utility.yul\":10017:10019   */\n      0x25\n        /* \"#utility.yul\":10012:10015   */\n      dup4\n        /* \"#utility.yul\":9953:10020   */\n      tag_105\n      jump\t// in\n    tag_219:\n        /* \"#utility.yul\":9946:10020   */\n      swap2\n      pop\n        /* \"#utility.yul\":10029:10122   */\n      tag_220\n        /* \"#utility.yul\":10118:10121   */\n      dup3\n        /* \"#utility.yul\":10029:10122   */\n      tag_120\n      jump\t// in\n    tag_220:\n        /* \"#utility.yul\":10147:10149   */\n      0x40\n        /* \"#utility.yul\":10142:10145   */\n      dup3\n        /* \"#utility.yul\":10138:10150   */\n      add\n        /* \"#utility.yul\":10131:10150   */\n      swap1\n      pop\n        /* \"#utility.yul\":9790:10156   */\n      swap2\n      swap1\n      pop\n      jump\t// out\n        /* \"#utility.yul\":10162:10581   */\n    tag_87:\n        /* \"#utility.yul\":10328:10332   */\n      0x00\n        /* \"#utility.yul\":10366:10368   */\n      0x20\n        /* \"#utility.yul\":10355:10364   */\n      dup3\n        /* \"#utility.yul\":10351:10369   */\n      add\n        /* \"#utility.yul\":10343:10369   */\n      swap1\n      pop\n        /* \"#utility.yul\":10415:10424   */\n      dup2\n        /* \"#utility.yul\":10409:10413   */\n      dup2\n        /* \"#utility.yul\":10405:10425   */\n      sub\n        /* \"#utility.yul\":10401:10402   */\n      0x00\n        /* \"#utility.yul\":10390:10399   */\n      dup4\n        /* \"#utility.yul\":10386:10403   */\n      add\n        /* \"#utility.yul\":10379:10426   */\n      mstore\n        /* \"#utility.yul\":10443:10574   */\n      tag_222\n        /* \"#utility.yul\":10569:10573   */\n      dup2\n        /* \"#utility.yul\":10443:10574   */\n      tag_121\n      jump\t// in\n    tag_222:\n        /* \"#utility.yul\":10435:10574   */\n      swap1\n      pop\n        /* \"#utility.yul\":10162:10581   */\n      swap2\n      swap1\n      pop\n      jump\t// out\n        /* \"#utility.yul\":10587:10778   */\n    tag_90:\n        /* \"#utility.yul\":10627:10630   */\n      0x00\n        /* \"#utility.yul\":10646:10666   */\n      tag_224\n        /* \"#utility.yul\":10664:10665   */\n      dup3\n        /* \"#utility.yul\":10646:10666   */\n      tag_99\n      jump\t// in\n    tag_224:\n        /* \"#utility.yul\":10641:10666   */\n      swap2\n      pop\n        /* \"#utility.yul\":10680:10700   */\n      tag_225\n        /* \"#utility.yul\":10698:10699   */\n      dup4\n        /* \"#utility.yul\":10680:10700   */\n      tag_99\n      jump\t// in\n    tag_225:\n        /* \"#utility.yul\":10675:10700   */\n      swap3\n      pop\n        /* \"#utility.yul\":10723:10724   */\n      dup3\n        /* \"#utility.yul\":10720:10721   */\n      dup3\n        /* \"#utility.yul\":10716:10725   */\n      add\n        /* \"#utility.yul\":10709:10725   */\n      swap1\n      pop\n        /* \"#utility.yul\":10744:10747   */\n      dup1\n        /* \"#utility.yul\":10741:10742   */\n      dup3\n        /* \"#utility.yul\":10738:10748   */\n      gt\n        /* \"#utility.yul\":10735:10771   */\n      iszero\n      tag_226\n      jumpi\n        /* \"#utility.yul\":10751:10769   */\n      tag_227\n      tag_115\n      jump\t// in\n    tag_227:\n        /* \"#utility.yul\":10735:10771   */\n    tag_226:\n        /* \"#utility.yul\":10587:10778   */\n      swap3\n      swap2\n      pop\n      pop\n      jump\t// out\n\n    auxdata: 0xa26469706673582212202cca904b1011d3d359d3f5ba7f108904369904ec1d99f1588b603185b754100a64736f6c63430008120033\n}\n",
				"bytecode": {
					"linkReferences": {},
					"object": "60806040523480156200001157600080fd5b50604051620018e0380380620018e08339818101604052810190620000379190620004cc565b81600190816200004891906200079c565b5080600290816200005a91906200079c565b506200007633682086ac3510526000006200009960201b60201c565b62000091336815af1d78b58c400000620001e960201b60201c565b505062000a10565b600073ffffffffffffffffffffffffffffffffffffffff168273ffffffffffffffffffffffffffffffffffffffff16036200010b576040517f08c379a00000000000000000000000000000000000000000000000000000000081526004016200010290620008e4565b60405180910390fd5b806000808282546200011e919062000935565b9250508190555080600360008473ffffffffffffffffffffffffffffffffffffffff1673ffffffffffffffffffffffffffffffffffffffff168152602001908152602001600020600082825462000176919062000935565b925050819055508173ffffffffffffffffffffffffffffffffffffffff16600073ffffffffffffffffffffffffffffffffffffffff167fddf252ad1be2c89b69c2b068fc378daa952ba7f163c4a11628f55a4df523b3ef83604051620001dd919062000981565b60405180910390a35050565b600073ffffffffffffffffffffffffffffffffffffffff168273ffffffffffffffffffffffffffffffffffffffff16036200025b576040517f08c379a00000000000000000000000000000000000000000000000000000000081526004016200025290620009ee565b60405180910390fd5b80600360008473ffffffffffffffffffffffffffffffffffffffff1673ffffffffffffffffffffffffffffffffffffffff1681526020019081526020016000206000828254620002ac919062000935565b9250508190555080600080828254620002c6919062000935565b92505081905550600073ffffffffffffffffffffffffffffffffffffffff168273ffffffffffffffffffffffffffffffffffffffff167fddf252ad1be2c89b69c2b068fc378daa952ba7f163c4a11628f55a4df523b3ef836040516200032d919062000981565b60405180910390a35050565b6000604051905090565b600080fd5b600080fd5b600080fd5b600080fd5b6000601f19601f8301169050919050565b7f4e487b7100000000000000000000000000000000000000000000000000000000600052604160045260246000fd5b620003a28262000357565b810181811067ffffffffffffffff82111715620003c457620003c362000368565b5b80604052505050565b6000620003d962000339565b9050620003e7828262000397565b919050565b600067ffffffffffffffff8211156200040a576200040962000368565b5b620004158262000357565b9050602081019050919050565b60005b838110156200044257808201518184015260208101905062000425565b60008484015250505050565b6000620004656200045f84620003ec565b620003cd565b90508281526020810184848401111562000484576200048362000352565b5b6200049184828562000422565b509392505050565b600082601f830112620004b157620004b06200034d565b5b8151620004c38482602086016200044e565b91505092915050565b60008060408385031215620004e657620004e562000343565b5b600083015167ffffffffffffffff81111562000507576200050662000348565b5b620005158582860162000499565b925050602083015167ffffffffffffffff81111562000539576200053862000348565b5b620005478582860162000499565b9150509250929050565b600081519050919050565b7f4e487b7100000000000000000000000000000000000000000000000000000000600052602260045260246000fd5b60006002820490506001821680620005a457607f821691505b602082108103620005ba57620005b96200055c565b5b50919050565b60008190508160005260206000209050919050565b60006020601f8301049050919050565b600082821b905092915050565b600060088302620006247fffffffffffffffffffffffffffffffffffffffffffffffffffffffffffffffff82620005e5565b620006308683620005e5565b95508019841693508086168417925050509392505050565b6000819050919050565b6000819050919050565b60006200067d62000677620006718462000648565b62000652565b62000648565b9050919050565b6000819050919050565b62000699836200065c565b620006b1620006a88262000684565b848454620005f2565b825550505050565b600090565b620006c8620006b9565b620006d58184846200068e565b505050565b5b81811015620006fd57620006f1600082620006be565b600181019050620006db565b5050565b601f8211156200074c576200071681620005c0565b6200072184620005d5565b8101602085101562000731578190505b620007496200074085620005d5565b830182620006da565b50505b505050565b600082821c905092915050565b6000620007716000198460080262000751565b1980831691505092915050565b60006200078c83836200075e565b9150826002028217905092915050565b620007a78262000551565b67ffffffffffffffff811115620007c357620007c262000368565b5b620007cf82546200058b565b620007dc82828562000701565b600060209050601f831160018114620008145760008415620007ff578287015190505b6200080b85826200077e565b8655506200087b565b601f1984166200082486620005c0565b60005b828110156200084e5784890151825560018201915060208501945060208101905062000827565b868310156200086e57848901516200086a601f8916826200075e565b8355505b6001600288020188555050505b505050505050565b600082825260208201905092915050565b7f4572633230206d696e7420746f20616464726573732030000000000000000000600082015250565b6000620008cc60178362000883565b9150620008d98262000894565b602082019050919050565b60006020820190508181036000830152620008ff81620008bd565b9050919050565b7f4e487b7100000000000000000000000000000000000000000000000000000000600052601160045260246000fd5b6000620009428262000648565b91506200094f8362000648565b92508282019050808211156200096a576200096962000906565b5b92915050565b6200097b8162000648565b82525050565b600060208201905062000998600083018462000970565b92915050565b7f65726332303a206275726e2066726f6d20746865203020616464726573730000600082015250565b6000620009d6601e8362000883565b9150620009e3826200099e565b602082019050919050565b6000602082019050818103600083015262000a0981620009c7565b9050919050565b610ec08062000a206000396000f3fe608060405234801561001057600080fd5b50600436106100935760003560e01c806368865d7f1161006657806368865d7f1461014657806372dd529b1461017657806376809ce31461019457806395d89b41146101b2578063dd62ed3e146101d057610093565b806301c6adc31461009857806306fdde03146100c85780633d64125b146100e657806363b0545f14610116575b600080fd5b6100b260048036038101906100ad919061094e565b610200565b6040516100bf91906109a9565b60405180910390f35b6100d0610215565b6040516100dd9190610a54565b60405180910390f35b61010060048036038101906100fb9190610a76565b6102a3565b60405161010d9190610ab2565b60405180910390f35b610130600480360381019061012b9190610acd565b6102bb565b60405161013d91906109a9565b60405180910390f35b610160600480360381019061015b919061094e565b610486565b60405161016d91906109a9565b60405180910390f35b61017e6105e6565b60405161018b9190610ab2565b60405180910390f35b61019c6105ec565b6040516101a99190610b3c565b60405180910390f35b6101ba6105f5565b6040516101c79190610a54565b60405180910390f35b6101ea60048036038101906101e59190610b57565b610683565b6040516101f79190610ab2565b60405180910390f35b600061020d3384846106a8565b905092915050565b6001805461022290610bc6565b80601f016020809104026020016040519081016040528092919081815260200182805461024e90610bc6565b801561029b5780601f106102705761010080835404028352916020019161029b565b820191906000526020600020905b81548152906001019060200180831161027e57829003601f168201915b505050505081565b60036020528060005260406000206000915090505481565b600080600460008673ffffffffffffffffffffffffffffffffffffffff1673ffffffffffffffffffffffffffffffffffffffff16815260200190815260200160002060003373ffffffffffffffffffffffffffffffffffffffff1673ffffffffffffffffffffffffffffffffffffffff16815260200190815260200160002054905082811015610380576040517f08c379a000000000000000000000000000000000000000000000000000000000815260040161037790610c69565b60405180910390fd5b828161038c9190610cb8565b600460008773ffffffffffffffffffffffffffffffffffffffff1673ffffffffffffffffffffffffffffffffffffffff16815260200190815260200160002060003373ffffffffffffffffffffffffffffffffffffffff1673ffffffffffffffffffffffffffffffffffffffff168152602001908152602001600020819055508373ffffffffffffffffffffffffffffffffffffffff168573ffffffffffffffffffffffffffffffffffffffff167f8c5be1e5ebec7d5bd14f71427d1e84f3dd0314c0f7b2291e5b200ac8c7c3b925856040516104699190610ab2565b60405180910390a361047c8585856106a8565b9150509392505050565b60008073ffffffffffffffffffffffffffffffffffffffff168373ffffffffffffffffffffffffffffffffffffffff16036104f6576040517f08c379a00000000000000000000000000000000000000000000000000000000081526004016104ed90610d38565b60405180910390fd5b81600460003373ffffffffffffffffffffffffffffffffffffffff1673ffffffffffffffffffffffffffffffffffffffff16815260200190815260200160002060008573ffffffffffffffffffffffffffffffffffffffff1673ffffffffffffffffffffffffffffffffffffffff168152602001908152602001600020819055508273ffffffffffffffffffffffffffffffffffffffff163373ffffffffffffffffffffffffffffffffffffffff167f8c5be1e5ebec7d5bd14f71427d1e84f3dd0314c0f7b2291e5b200ac8c7c3b925846040516105d49190610ab2565b60405180910390a36001905092915050565b60005481565b60006012905090565b6002805461060290610bc6565b80601f016020809104026020016040519081016040528092919081815260200182805461062e90610bc6565b801561067b5780601f106106505761010080835404028352916020019161067b565b820191906000526020600020905b81548152906001019060200180831161065e57829003601f168201915b505050505081565b6004602052816000526040600020602052806000526040600020600091509150505481565b60008073ffffffffffffffffffffffffffffffffffffffff168373ffffffffffffffffffffffffffffffffffffffff1603610718576040517f08c379a000000000000000000000000000000000000000000000000000000000815260040161070f90610da4565b60405180910390fd5b6000600360008673ffffffffffffffffffffffffffffffffffffffff1673ffffffffffffffffffffffffffffffffffffffff1681526020019081526020016000205490508281101561079f576040517f08c379a000000000000000000000000000000000000000000000000000000000815260040161079690610e36565b60405180910390fd5b82816107ab9190610cb8565b600360008773ffffffffffffffffffffffffffffffffffffffff1673ffffffffffffffffffffffffffffffffffffffff1681526020019081526020016000208190555082600360008673ffffffffffffffffffffffffffffffffffffffff1673ffffffffffffffffffffffffffffffffffffffff168152602001908152602001600020600082825461083d9190610e56565b925050819055508373ffffffffffffffffffffffffffffffffffffffff168573ffffffffffffffffffffffffffffffffffffffff167fddf252ad1be2c89b69c2b068fc378daa952ba7f163c4a11628f55a4df523b3ef856040516108a19190610ab2565b60405180910390a360019150509392505050565b600080fd5b600073ffffffffffffffffffffffffffffffffffffffff82169050919050565b60006108e5826108ba565b9050919050565b6108f5816108da565b811461090057600080fd5b50565b600081359050610912816108ec565b92915050565b6000819050919050565b61092b81610918565b811461093657600080fd5b50565b60008135905061094881610922565b92915050565b60008060408385031215610965576109646108b5565b5b600061097385828601610903565b925050602061098485828601610939565b9150509250929050565b60008115159050919050565b6109a38161098e565b82525050565b60006020820190506109be600083018461099a565b92915050565b600081519050919050565b600082825260208201905092915050565b60005b838110156109fe5780820151818401526020810190506109e3565b60008484015250505050565b6000601f19601f8301169050919050565b6000610a26826109c4565b610a3081856109cf565b9350610a408185602086016109e0565b610a4981610a0a565b840191505092915050565b60006020820190508181036000830152610a6e8184610a1b565b905092915050565b600060208284031215610a8c57610a8b6108b5565b5b6000610a9a84828501610903565b91505092915050565b610aac81610918565b82525050565b6000602082019050610ac76000830184610aa3565b92915050565b600080600060608486031215610ae657610ae56108b5565b5b6000610af486828701610903565b9350506020610b0586828701610903565b9250506040610b1686828701610939565b9150509250925092565b600060ff82169050919050565b610b3681610b20565b82525050565b6000602082019050610b516000830184610b2d565b92915050565b60008060408385031215610b6e57610b6d6108b5565b5b6000610b7c85828601610903565b9250506020610b8d85828601610903565b9150509250929050565b7f4e487b7100000000000000000000000000000000000000000000000000000000600052602260045260246000fd5b60006002820490506001821680610bde57607f821691505b602082108103610bf157610bf0610b97565b5b50919050565b7f4572633230207472616e7366657220616d6f756e74206d75737420657863656560008201527f6420616c6c6f77616e6365000000000000000000000000000000000000000000602082015250565b6000610c53602b836109cf565b9150610c5e82610bf7565b604082019050919050565b60006020820190508181036000830152610c8281610c46565b9050919050565b7f4e487b7100000000000000000000000000000000000000000000000000000000600052601160045260246000fd5b6000610cc382610918565b9150610cce83610918565b9250828203905081811115610ce657610ce5610c89565b5b92915050565b7f657263323020617070726f766520746f20746865206164647265737300000000600082015250565b6000610d22601c836109cf565b9150610d2d82610cec565b602082019050919050565b60006020820190508181036000830152610d5181610d15565b9050919050565b7f6572633230207472616e7366657220746f206164647265737320300000000000600082015250565b6000610d8e601b836109cf565b9150610d9982610d58565b602082019050919050565b60006020820190508181036000830152610dbd81610d81565b9050919050565b7f6572633230207472616e7366657220616d6f756e74206578636565647320626160008201527f6c616e6365000000000000000000000000000000000000000000000000000000602082015250565b6000610e206025836109cf565b9150610e2b82610dc4565b604082019050919050565b60006020820190508181036000830152610e4f81610e13565b9050919050565b6000610e6182610918565b9150610e6c83610918565b9250828201905080821115610e8457610e83610c89565b5b9291505056fea26469706673582212202cca904b1011d3d359d3f5ba7f108904369904ec1d99f1588b603185b754100a64736f6c63430008120033",
					"opcodes": "PUSH1 0x80 PUSH1 0x40 MSTORE CALLVALUE DUP1 ISZERO PUSH3 0x11 JUMPI PUSH1 0x0 DUP1 REVERT JUMPDEST POP PUSH1 0x40 MLOAD PUSH3 0x18E0 CODESIZE SUB DUP1 PUSH3 0x18E0 DUP4 CODECOPY DUP2 DUP2 ADD PUSH1 0x40 MSTORE DUP2 ADD SWAP1 PUSH3 0x37 SWAP2 SWAP1 PUSH3 0x4CC JUMP JUMPDEST DUP2 PUSH1 0x1 SWAP1 DUP2 PUSH3 0x48 SWAP2 SWAP1 PUSH3 0x79C JUMP JUMPDEST POP DUP1 PUSH1 0x2 SWAP1 DUP2 PUSH3 0x5A SWAP2 SWAP1 PUSH3 0x79C JUMP JUMPDEST POP PUSH3 0x76 CALLER PUSH9 0x2086AC351052600000 PUSH3 0x99 PUSH1 0x20 SHL PUSH1 0x20 SHR JUMP JUMPDEST PUSH3 0x91 CALLER PUSH9 0x15AF1D78B58C400000 PUSH3 0x1E9 PUSH1 0x20 SHL PUSH1 0x20 SHR JUMP JUMPDEST POP POP PUSH3 0xA10 JUMP JUMPDEST PUSH1 0x0 PUSH20 0xFFFFFFFFFFFFFFFFFFFFFFFFFFFFFFFFFFFFFFFF AND DUP3 PUSH20 0xFFFFFFFFFFFFFFFFFFFFFFFFFFFFFFFFFFFFFFFF AND SUB PUSH3 0x10B JUMPI PUSH1 0x40 MLOAD PUSH32 0x8C379A000000000000000000000000000000000000000000000000000000000 DUP2 MSTORE PUSH1 0x4 ADD PUSH3 0x102 SWAP1 PUSH3 0x8E4 JUMP JUMPDEST PUSH1 0x40 MLOAD DUP1 SWAP2 SUB SWAP1 REVERT JUMPDEST DUP1 PUSH1 0x0 DUP1 DUP3 DUP3 SLOAD PUSH3 0x11E SWAP2 SWAP1 PUSH3 0x935 JUMP JUMPDEST SWAP3 POP POP DUP2 SWAP1 SSTORE POP DUP1 PUSH1 0x3 PUSH1 0x0 DUP5 PUSH20 0xFFFFFFFFFFFFFFFFFFFFFFFFFFFFFFFFFFFFFFFF AND PUSH20 0xFFFFFFFFFFFFFFFFFFFFFFFFFFFFFFFFFFFFFFFF AND DUP2 MSTORE PUSH1 0x20 ADD SWAP1 DUP2 MSTORE PUSH1 0x20 ADD PUSH1 0x0 KECCAK256 PUSH1 0x0 DUP3 DUP3 SLOAD PUSH3 0x176 SWAP2 SWAP1 PUSH3 0x935 JUMP JUMPDEST SWAP3 POP POP DUP2 SWAP1 SSTORE POP DUP2 PUSH20 0xFFFFFFFFFFFFFFFFFFFFFFFFFFFFFFFFFFFFFFFF AND PUSH1 0x0 PUSH20 0xFFFFFFFFFFFFFFFFFFFFFFFFFFFFFFFFFFFFFFFF AND PUSH32 0xDDF252AD1BE2C89B69C2B068FC378DAA952BA7F163C4A11628F55A4DF523B3EF DUP4 PUSH1 0x40 MLOAD PUSH3 0x1DD SWAP2 SWAP1 PUSH3 0x981 JUMP JUMPDEST PUSH1 0x40 MLOAD DUP1 SWAP2 SUB SWAP1 LOG3 POP POP JUMP JUMPDEST PUSH1 0x0 PUSH20 0xFFFFFFFFFFFFFFFFFFFFFFFFFFFFFFFFFFFFFFFF AND DUP3 PUSH20 0xFFFFFFFFFFFFFFFFFFFFFFFFFFFFFFFFFFFFFFFF AND SUB PUSH3 0x25B JUMPI PUSH1 0x40 MLOAD PUSH32 0x8C379A000000000000000000000000000000000000000000000000000000000 DUP2 MSTORE PUSH1 0x4 ADD PUSH3 0x252 SWAP1 PUSH3 0x9EE JUMP JUMPDEST PUSH1 0x40 MLOAD DUP1 SWAP2 SUB SWAP1 REVERT JUMPDEST DUP1 PUSH1 0x3 PUSH1 0x0 DUP5 PUSH20 0xFFFFFFFFFFFFFFFFFFFFFFFFFFFFFFFFFFFFFFFF AND PUSH20 0xFFFFFFFFFFFFFFFFFFFFFFFFFFFFFFFFFFFFFFFF AND DUP2 MSTORE PUSH1 0x20 ADD SWAP1 DUP2 MSTORE PUSH1 0x20 ADD PUSH1 0x0 KECCAK256 PUSH1 0x0 DUP3 DUP3 SLOAD PUSH3 0x2AC SWAP2 SWAP1 PUSH3 0x935 JUMP JUMPDEST SWAP3 POP POP DUP2 SWAP1 SSTORE POP DUP1 PUSH1 0x0 DUP1 DUP3 DUP3 SLOAD PUSH3 0x2C6 SWAP2 SWAP1 PUSH3 0x935 JUMP JUMPDEST SWAP3 POP POP DUP2 SWAP1 SSTORE POP PUSH1 0x0 PUSH20 0xFFFFFFFFFFFFFFFFFFFFFFFFFFFFFFFFFFFFFFFF AND DUP3 PUSH20 0xFFFFFFFFFFFFFFFFFFFFFFFFFFFFFFFFFFFFFFFF AND PUSH32 0xDDF252AD1BE2C89B69C2B068FC378DAA952BA7F163C4A11628F55A4DF523B3EF DUP4 PUSH1 0x40 MLOAD PUSH3 0x32D SWAP2 SWAP1 PUSH3 0x981 JUMP JUMPDEST PUSH1 0x40 MLOAD DUP1 SWAP2 SUB SWAP1 LOG3 POP POP JUMP JUMPDEST PUSH1 0x0 PUSH1 0x40 MLOAD SWAP1 POP SWAP1 JUMP JUMPDEST PUSH1 0x0 DUP1 REVERT JUMPDEST PUSH1 0x0 DUP1 REVERT JUMPDEST PUSH1 0x0 DUP1 REVERT JUMPDEST PUSH1 0x0 DUP1 REVERT JUMPDEST PUSH1 0x0 PUSH1 0x1F NOT PUSH1 0x1F DUP4 ADD AND SWAP1 POP SWAP2 SWAP1 POP JUMP JUMPDEST PUSH32 0x4E487B7100000000000000000000000000000000000000000000000000000000 PUSH1 0x0 MSTORE PUSH1 0x41 PUSH1 0x4 MSTORE PUSH1 0x24 PUSH1 0x0 REVERT JUMPDEST PUSH3 0x3A2 DUP3 PUSH3 0x357 JUMP JUMPDEST DUP2 ADD DUP2 DUP2 LT PUSH8 0xFFFFFFFFFFFFFFFF DUP3 GT OR ISZERO PUSH3 0x3C4 JUMPI PUSH3 0x3C3 PUSH3 0x368 JUMP JUMPDEST JUMPDEST DUP1 PUSH1 0x40 MSTORE POP POP POP JUMP JUMPDEST PUSH1 0x0 PUSH3 0x3D9 PUSH3 0x339 JUMP JUMPDEST SWAP1 POP PUSH3 0x3E7 DUP3 DUP3 PUSH3 0x397 JUMP JUMPDEST SWAP2 SWAP1 POP JUMP JUMPDEST PUSH1 0x0 PUSH8 0xFFFFFFFFFFFFFFFF DUP3 GT ISZERO PUSH3 0x40A JUMPI PUSH3 0x409 PUSH3 0x368 JUMP JUMPDEST JUMPDEST PUSH3 0x415 DUP3 PUSH3 0x357 JUMP JUMPDEST SWAP1 POP PUSH1 0x20 DUP2 ADD SWAP1 POP SWAP2 SWAP1 POP JUMP JUMPDEST PUSH1 0x0 JUMPDEST DUP4 DUP2 LT ISZERO PUSH3 0x442 JUMPI DUP1 DUP3 ADD MLOAD DUP2 DUP5 ADD MSTORE PUSH1 0x20 DUP2 ADD SWAP1 POP PUSH3 0x425 JUMP JUMPDEST PUSH1 0x0 DUP5 DUP5 ADD MSTORE POP POP POP POP JUMP JUMPDEST PUSH1 0x0 PUSH3 0x465 PUSH3 0x45F DUP5 PUSH3 0x3EC JUMP JUMPDEST PUSH3 0x3CD JUMP JUMPDEST SWAP1 POP DUP3 DUP2 MSTORE PUSH1 0x20 DUP2 ADD DUP5 DUP5 DUP5 ADD GT ISZERO PUSH3 0x484 JUMPI PUSH3 0x483 PUSH3 0x352 JUMP JUMPDEST JUMPDEST PUSH3 0x491 DUP5 DUP3 DUP6 PUSH3 0x422 JUMP JUMPDEST POP SWAP4 SWAP3 POP POP POP JUMP JUMPDEST PUSH1 0x0 DUP3 PUSH1 0x1F DUP4 ADD SLT PUSH3 0x4B1 JUMPI PUSH3 0x4B0 PUSH3 0x34D JUMP JUMPDEST JUMPDEST DUP2 MLOAD PUSH3 0x4C3 DUP5 DUP3 PUSH1 0x20 DUP7 ADD PUSH3 0x44E JUMP JUMPDEST SWAP2 POP POP SWAP3 SWAP2 POP POP JUMP JUMPDEST PUSH1 0x0 DUP1 PUSH1 0x40 DUP4 DUP6 SUB SLT ISZERO PUSH3 0x4E6 JUMPI PUSH3 0x4E5 PUSH3 0x343 JUMP JUMPDEST JUMPDEST PUSH1 0x0 DUP4 ADD MLOAD PUSH8 0xFFFFFFFFFFFFFFFF DUP2 GT ISZERO PUSH3 0x507 JUMPI PUSH3 0x506 PUSH3 0x348 JUMP JUMPDEST JUMPDEST PUSH3 0x515 DUP6 DUP3 DUP7 ADD PUSH3 0x499 JUMP JUMPDEST SWAP3 POP POP PUSH1 0x20 DUP4 ADD MLOAD PUSH8 0xFFFFFFFFFFFFFFFF DUP2 GT ISZERO PUSH3 0x539 JUMPI PUSH3 0x538 PUSH3 0x348 JUMP JUMPDEST JUMPDEST PUSH3 0x547 DUP6 DUP3 DUP7 ADD PUSH3 0x499 JUMP JUMPDEST SWAP2 POP POP SWAP3 POP SWAP3 SWAP1 POP JUMP JUMPDEST PUSH1 0x0 DUP2 MLOAD SWAP1 POP SWAP2 SWAP1 POP JUMP JUMPDEST PUSH32 0x4E487B7100000000000000000000000000000000000000000000000000000000 PUSH1 0x0 MSTORE PUSH1 0x22 PUSH1 0x4 MSTORE PUSH1 0x24 PUSH1 0x0 REVERT JUMPDEST PUSH1 0x0 PUSH1 0x2 DUP3 DIV SWAP1 POP PUSH1 0x1 DUP3 AND DUP1 PUSH3 0x5A4 JUMPI PUSH1 0x7F DUP3 AND SWAP2 POP JUMPDEST PUSH1 0x20 DUP3 LT DUP2 SUB PUSH3 0x5BA JUMPI PUSH3 0x5B9 PUSH3 0x55C JUMP JUMPDEST JUMPDEST POP SWAP2 SWAP1 POP JUMP JUMPDEST PUSH1 0x0 DUP2 SWAP1 POP DUP2 PUSH1 0x0 MSTORE PUSH1 0x20 PUSH1 0x0 KECCAK256 SWAP1 POP SWAP2 SWAP1 POP JUMP JUMPDEST PUSH1 0x0 PUSH1 0x20 PUSH1 0x1F DUP4 ADD DIV SWAP1 POP SWAP2 SWAP1 POP JUMP JUMPDEST PUSH1 0x0 DUP3 DUP3 SHL SWAP1 POP SWAP3 SWAP2 POP POP JUMP JUMPDEST PUSH1 0x0 PUSH1 0x8 DUP4 MUL PUSH3 0x624 PUSH32 0xFFFFFFFFFFFFFFFFFFFFFFFFFFFFFFFFFFFFFFFFFFFFFFFFFFFFFFFFFFFFFFFF DUP3 PUSH3 0x5E5 JUMP JUMPDEST PUSH3 0x630 DUP7 DUP4 PUSH3 0x5E5 JUMP JUMPDEST SWAP6 POP DUP1 NOT DUP5 AND SWAP4 POP DUP1 DUP7 AND DUP5 OR SWAP3 POP POP POP SWAP4 SWAP3 POP POP POP JUMP JUMPDEST PUSH1 0x0 DUP2 SWAP1 POP SWAP2 SWAP1 POP JUMP JUMPDEST PUSH1 0x0 DUP2 SWAP1 POP SWAP2 SWAP1 POP JUMP JUMPDEST PUSH1 0x0 PUSH3 0x67D PUSH3 0x677 PUSH3 0x671 DUP5 PUSH3 0x648 JUMP JUMPDEST PUSH3 0x652 JUMP JUMPDEST PUSH3 0x648 JUMP JUMPDEST SWAP1 POP SWAP2 SWAP1 POP JUMP JUMPDEST PUSH1 0x0 DUP2 SWAP1 POP SWAP2 SWAP1 POP JUMP JUMPDEST PUSH3 0x699 DUP4 PUSH3 0x65C JUMP JUMPDEST PUSH3 0x6B1 PUSH3 0x6A8 DUP3 PUSH3 0x684 JUMP JUMPDEST DUP5 DUP5 SLOAD PUSH3 0x5F2 JUMP JUMPDEST DUP3 SSTORE POP POP POP POP JUMP JUMPDEST PUSH1 0x0 SWAP1 JUMP JUMPDEST PUSH3 0x6C8 PUSH3 0x6B9 JUMP JUMPDEST PUSH3 0x6D5 DUP2 DUP5 DUP5 PUSH3 0x68E JUMP JUMPDEST POP POP POP JUMP JUMPDEST JUMPDEST DUP2 DUP2 LT ISZERO PUSH3 0x6FD JUMPI PUSH3 0x6F1 PUSH1 0x0 DUP3 PUSH3 0x6BE JUMP JUMPDEST PUSH1 0x1 DUP2 ADD SWAP1 POP PUSH3 0x6DB JUMP JUMPDEST POP POP JUMP JUMPDEST PUSH1 0x1F DUP3 GT ISZERO PUSH3 0x74C JUMPI PUSH3 0x716 DUP2 PUSH3 0x5C0 JUMP JUMPDEST PUSH3 0x721 DUP5 PUSH3 0x5D5 JUMP JUMPDEST DUP2 ADD PUSH1 0x20 DUP6 LT ISZERO PUSH3 0x731 JUMPI DUP2 SWAP1 POP JUMPDEST PUSH3 0x749 PUSH3 0x740 DUP6 PUSH3 0x5D5 JUMP JUMPDEST DUP4 ADD DUP3 PUSH3 0x6DA JUMP JUMPDEST POP POP JUMPDEST POP POP POP JUMP JUMPDEST PUSH1 0x0 DUP3 DUP3 SHR SWAP1 POP SWAP3 SWAP2 POP POP JUMP JUMPDEST PUSH1 0x0 PUSH3 0x771 PUSH1 0x0 NOT DUP5 PUSH1 0x8 MUL PUSH3 0x751 JUMP JUMPDEST NOT DUP1 DUP4 AND SWAP2 POP POP SWAP3 SWAP2 POP POP JUMP JUMPDEST PUSH1 0x0 PUSH3 0x78C DUP4 DUP4 PUSH3 0x75E JUMP JUMPDEST SWAP2 POP DUP3 PUSH1 0x2 MUL DUP3 OR SWAP1 POP SWAP3 SWAP2 POP POP JUMP JUMPDEST PUSH3 0x7A7 DUP3 PUSH3 0x551 JUMP JUMPDEST PUSH8 0xFFFFFFFFFFFFFFFF DUP2 GT ISZERO PUSH3 0x7C3 JUMPI PUSH3 0x7C2 PUSH3 0x368 JUMP JUMPDEST JUMPDEST PUSH3 0x7CF DUP3 SLOAD PUSH3 0x58B JUMP JUMPDEST PUSH3 0x7DC DUP3 DUP3 DUP6 PUSH3 0x701 JUMP JUMPDEST PUSH1 0x0 PUSH1 0x20 SWAP1 POP PUSH1 0x1F DUP4 GT PUSH1 0x1 DUP2 EQ PUSH3 0x814 JUMPI PUSH1 0x0 DUP5 ISZERO PUSH3 0x7FF JUMPI DUP3 DUP8 ADD MLOAD SWAP1 POP JUMPDEST PUSH3 0x80B DUP6 DUP3 PUSH3 0x77E JUMP JUMPDEST DUP7 SSTORE POP PUSH3 0x87B JUMP JUMPDEST PUSH1 0x1F NOT DUP5 AND PUSH3 0x824 DUP7 PUSH3 0x5C0 JUMP JUMPDEST PUSH1 0x0 JUMPDEST DUP3 DUP2 LT ISZERO PUSH3 0x84E JUMPI DUP5 DUP10 ADD MLOAD DUP3 SSTORE PUSH1 0x1 DUP3 ADD SWAP2 POP PUSH1 0x20 DUP6 ADD SWAP5 POP PUSH1 0x20 DUP2 ADD SWAP1 POP PUSH3 0x827 JUMP JUMPDEST DUP7 DUP4 LT ISZERO PUSH3 0x86E JUMPI DUP5 DUP10 ADD MLOAD PUSH3 0x86A PUSH1 0x1F DUP10 AND DUP3 PUSH3 0x75E JUMP JUMPDEST DUP4 SSTORE POP JUMPDEST PUSH1 0x1 PUSH1 0x2 DUP9 MUL ADD DUP9 SSTORE POP POP POP JUMPDEST POP POP POP POP POP POP JUMP JUMPDEST PUSH1 0x0 DUP3 DUP3 MSTORE PUSH1 0x20 DUP3 ADD SWAP1 POP SWAP3 SWAP2 POP POP JUMP JUMPDEST PUSH32 0x4572633230206D696E7420746F20616464726573732030000000000000000000 PUSH1 0x0 DUP3 ADD MSTORE POP JUMP JUMPDEST PUSH1 0x0 PUSH3 0x8CC PUSH1 0x17 DUP4 PUSH3 0x883 JUMP JUMPDEST SWAP2 POP PUSH3 0x8D9 DUP3 PUSH3 0x894 JUMP JUMPDEST PUSH1 0x20 DUP3 ADD SWAP1 POP SWAP2 SWAP1 POP JUMP JUMPDEST PUSH1 0x0 PUSH1 0x20 DUP3 ADD SWAP1 POP DUP2 DUP2 SUB PUSH1 0x0 DUP4 ADD MSTORE PUSH3 0x8FF DUP2 PUSH3 0x8BD JUMP JUMPDEST SWAP1 POP SWAP2 SWAP1 POP JUMP JUMPDEST PUSH32 0x4E487B7100000000000000000000000000000000000000000000000000000000 PUSH1 0x0 MSTORE PUSH1 0x11 PUSH1 0x4 MSTORE PUSH1 0x24 PUSH1 0x0 REVERT JUMPDEST PUSH1 0x0 PUSH3 0x942 DUP3 PUSH3 0x648 JUMP JUMPDEST SWAP2 POP PUSH3 0x94F DUP4 PUSH3 0x648 JUMP JUMPDEST SWAP3 POP DUP3 DUP3 ADD SWAP1 POP DUP1 DUP3 GT ISZERO PUSH3 0x96A JUMPI PUSH3 0x969 PUSH3 0x906 JUMP JUMPDEST JUMPDEST SWAP3 SWAP2 POP POP JUMP JUMPDEST PUSH3 0x97B DUP2 PUSH3 0x648 JUMP JUMPDEST DUP3 MSTORE POP POP JUMP JUMPDEST PUSH1 0x0 PUSH1 0x20 DUP3 ADD SWAP1 POP PUSH3 0x998 PUSH1 0x0 DUP4 ADD DUP5 PUSH3 0x970 JUMP JUMPDEST SWAP3 SWAP2 POP POP JUMP JUMPDEST PUSH32 0x65726332303A206275726E2066726F6D20746865203020616464726573730000 PUSH1 0x0 DUP3 ADD MSTORE POP JUMP JUMPDEST PUSH1 0x0 PUSH3 0x9D6 PUSH1 0x1E DUP4 PUSH3 0x883 JUMP JUMPDEST SWAP2 POP PUSH3 0x9E3 DUP3 PUSH3 0x99E JUMP JUMPDEST PUSH1 0x20 DUP3 ADD SWAP1 POP SWAP2 SWAP1 POP JUMP JUMPDEST PUSH1 0x0 PUSH1 0x20 DUP3 ADD SWAP1 POP DUP2 DUP2 SUB PUSH1 0x0 DUP4 ADD MSTORE PUSH3 0xA09 DUP2 PUSH3 0x9C7 JUMP JUMPDEST SWAP1 POP SWAP2 SWAP1 POP JUMP JUMPDEST PUSH2 0xEC0 DUP1 PUSH3 0xA20 PUSH1 0x0 CODECOPY PUSH1 0x0 RETURN INVALID PUSH1 0x80 PUSH1 0x40 MSTORE CALLVALUE DUP1 ISZERO PUSH2 0x10 JUMPI PUSH1 0x0 DUP1 REVERT JUMPDEST POP PUSH1 0x4 CALLDATASIZE LT PUSH2 0x93 JUMPI PUSH1 0x0 CALLDATALOAD PUSH1 0xE0 SHR DUP1 PUSH4 0x68865D7F GT PUSH2 0x66 JUMPI DUP1 PUSH4 0x68865D7F EQ PUSH2 0x146 JUMPI DUP1 PUSH4 0x72DD529B EQ PUSH2 0x176 JUMPI DUP1 PUSH4 0x76809CE3 EQ PUSH2 0x194 JUMPI DUP1 PUSH4 0x95D89B41 EQ PUSH2 0x1B2 JUMPI DUP1 PUSH4 0xDD62ED3E EQ PUSH2 0x1D0 JUMPI PUSH2 0x93 JUMP JUMPDEST DUP1 PUSH4 0x1C6ADC3 EQ PUSH2 0x98 JUMPI DUP1 PUSH4 0x6FDDE03 EQ PUSH2 0xC8 JUMPI DUP1 PUSH4 0x3D64125B EQ PUSH2 0xE6 JUMPI DUP1 PUSH4 0x63B0545F EQ PUSH2 0x116 JUMPI JUMPDEST PUSH1 0x0 DUP1 REVERT JUMPDEST PUSH2 0xB2 PUSH1 0x4 DUP1 CALLDATASIZE SUB DUP2 ADD SWAP1 PUSH2 0xAD SWAP2 SWAP1 PUSH2 0x94E JUMP JUMPDEST PUSH2 0x200 JUMP JUMPDEST PUSH1 0x40 MLOAD PUSH2 0xBF SWAP2 SWAP1 PUSH2 0x9A9 JUMP JUMPDEST PUSH1 0x40 MLOAD DUP1 SWAP2 SUB SWAP1 RETURN JUMPDEST PUSH2 0xD0 PUSH2 0x215 JUMP JUMPDEST PUSH1 0x40 MLOAD PUSH2 0xDD SWAP2 SWAP1 PUSH2 0xA54 JUMP JUMPDEST PUSH1 0x40 MLOAD DUP1 SWAP2 SUB SWAP1 RETURN JUMPDEST PUSH2 0x100 PUSH1 0x4 DUP1 CALLDATASIZE SUB DUP2 ADD SWAP1 PUSH2 0xFB SWAP2 SWAP1 PUSH2 0xA76 JUMP JUMPDEST PUSH2 0x2A3 JUMP JUMPDEST PUSH1 0x40 MLOAD PUSH2 0x10D SWAP2 SWAP1 PUSH2 0xAB2 JUMP JUMPDEST PUSH1 0x40 MLOAD DUP1 SWAP2 SUB SWAP1 RETURN JUMPDEST PUSH2 0x130 PUSH1 0x4 DUP1 CALLDATASIZE SUB DUP2 ADD SWAP1 PUSH2 0x12B SWAP2 SWAP1 PUSH2 0xACD JUMP JUMPDEST PUSH2 0x2BB JUMP JUMPDEST PUSH1 0x40 MLOAD PUSH2 0x13D SWAP2 SWAP1 PUSH2 0x9A9 JUMP JUMPDEST PUSH1 0x40 MLOAD DUP1 SWAP2 SUB SWAP1 RETURN JUMPDEST PUSH2 0x160 PUSH1 0x4 DUP1 CALLDATASIZE SUB DUP2 ADD SWAP1 PUSH2 0x15B SWAP2 SWAP1 PUSH2 0x94E JUMP JUMPDEST PUSH2 0x486 JUMP JUMPDEST PUSH1 0x40 MLOAD PUSH2 0x16D SWAP2 SWAP1 PUSH2 0x9A9 JUMP JUMPDEST PUSH1 0x40 MLOAD DUP1 SWAP2 SUB SWAP1 RETURN JUMPDEST PUSH2 0x17E PUSH2 0x5E6 JUMP JUMPDEST PUSH1 0x40 MLOAD PUSH2 0x18B SWAP2 SWAP1 PUSH2 0xAB2 JUMP JUMPDEST PUSH1 0x40 MLOAD DUP1 SWAP2 SUB SWAP1 RETURN JUMPDEST PUSH2 0x19C PUSH2 0x5EC JUMP JUMPDEST PUSH1 0x40 MLOAD PUSH2 0x1A9 SWAP2 SWAP1 PUSH2 0xB3C JUMP JUMPDEST PUSH1 0x40 MLOAD DUP1 SWAP2 SUB SWAP1 RETURN JUMPDEST PUSH2 0x1BA PUSH2 0x5F5 JUMP JUMPDEST PUSH1 0x40 MLOAD PUSH2 0x1C7 SWAP2 SWAP1 PUSH2 0xA54 JUMP JUMPDEST PUSH1 0x40 MLOAD DUP1 SWAP2 SUB SWAP1 RETURN JUMPDEST PUSH2 0x1EA PUSH1 0x4 DUP1 CALLDATASIZE SUB DUP2 ADD SWAP1 PUSH2 0x1E5 SWAP2 SWAP1 PUSH2 0xB57 JUMP JUMPDEST PUSH2 0x683 JUMP JUMPDEST PUSH1 0x40 MLOAD PUSH2 0x1F7 SWAP2 SWAP1 PUSH2 0xAB2 JUMP JUMPDEST PUSH1 0x40 MLOAD DUP1 SWAP2 SUB SWAP1 RETURN JUMPDEST PUSH1 0x0 PUSH2 0x20D CALLER DUP5 DUP5 PUSH2 0x6A8 JUMP JUMPDEST SWAP1 POP SWAP3 SWAP2 POP POP JUMP JUMPDEST PUSH1 0x1 DUP1 SLOAD PUSH2 0x222 SWAP1 PUSH2 0xBC6 JUMP JUMPDEST DUP1 PUSH1 0x1F ADD PUSH1 0x20 DUP1 SWAP2 DIV MUL PUSH1 0x20 ADD PUSH1 0x40 MLOAD SWAP1 DUP2 ADD PUSH1 0x40 MSTORE DUP1 SWAP3 SWAP2 SWAP1 DUP2 DUP2 MSTORE PUSH1 0x20 ADD DUP3 DUP1 SLOAD PUSH2 0x24E SWAP1 PUSH2 0xBC6 JUMP JUMPDEST DUP1 ISZERO PUSH2 0x29B JUMPI DUP1 PUSH1 0x1F LT PUSH2 0x270 JUMPI PUSH2 0x100 DUP1 DUP4 SLOAD DIV MUL DUP4 MSTORE SWAP2 PUSH1 0x20 ADD SWAP2 PUSH2 0x29B JUMP JUMPDEST DUP3 ADD SWAP2 SWAP1 PUSH1 0x0 MSTORE PUSH1 0x20 PUSH1 0x0 KECCAK256 SWAP1 JUMPDEST DUP2 SLOAD DUP2 MSTORE SWAP1 PUSH1 0x1 ADD SWAP1 PUSH1 0x20 ADD DUP1 DUP4 GT PUSH2 0x27E JUMPI DUP3 SWAP1 SUB PUSH1 0x1F AND DUP3 ADD SWAP2 JUMPDEST POP POP POP POP POP DUP2 JUMP JUMPDEST PUSH1 0x3 PUSH1 0x20 MSTORE DUP1 PUSH1 0x0 MSTORE PUSH1 0x40 PUSH1 0x0 KECCAK256 PUSH1 0x0 SWAP2 POP SWAP1 POP SLOAD DUP2 JUMP JUMPDEST PUSH1 0x0 DUP1 PUSH1 0x4 PUSH1 0x0 DUP7 PUSH20 0xFFFFFFFFFFFFFFFFFFFFFFFFFFFFFFFFFFFFFFFF AND PUSH20 0xFFFFFFFFFFFFFFFFFFFFFFFFFFFFFFFFFFFFFFFF AND DUP2 MSTORE PUSH1 0x20 ADD SWAP1 DUP2 MSTORE PUSH1 0x20 ADD PUSH1 0x0 KECCAK256 PUSH1 0x0 CALLER PUSH20 0xFFFFFFFFFFFFFFFFFFFFFFFFFFFFFFFFFFFFFFFF AND PUSH20 0xFFFFFFFFFFFFFFFFFFFFFFFFFFFFFFFFFFFFFFFF AND DUP2 MSTORE PUSH1 0x20 ADD SWAP1 DUP2 MSTORE PUSH1 0x20 ADD PUSH1 0x0 KECCAK256 SLOAD SWAP1 POP DUP3 DUP2 LT ISZERO PUSH2 0x380 JUMPI PUSH1 0x40 MLOAD PUSH32 0x8C379A000000000000000000000000000000000000000000000000000000000 DUP2 MSTORE PUSH1 0x4 ADD PUSH2 0x377 SWAP1 PUSH2 0xC69 JUMP JUMPDEST PUSH1 0x40 MLOAD DUP1 SWAP2 SUB SWAP1 REVERT JUMPDEST DUP3 DUP2 PUSH2 0x38C SWAP2 SWAP1 PUSH2 0xCB8 JUMP JUMPDEST PUSH1 0x4 PUSH1 0x0 DUP8 PUSH20 0xFFFFFFFFFFFFFFFFFFFFFFFFFFFFFFFFFFFFFFFF AND PUSH20 0xFFFFFFFFFFFFFFFFFFFFFFFFFFFFFFFFFFFFFFFF AND DUP2 MSTORE PUSH1 0x20 ADD SWAP1 DUP2 MSTORE PUSH1 0x20 ADD PUSH1 0x0 KECCAK256 PUSH1 0x0 CALLER PUSH20 0xFFFFFFFFFFFFFFFFFFFFFFFFFFFFFFFFFFFFFFFF AND PUSH20 0xFFFFFFFFFFFFFFFFFFFFFFFFFFFFFFFFFFFFFFFF AND DUP2 MSTORE PUSH1 0x20 ADD SWAP1 DUP2 MSTORE PUSH1 0x20 ADD PUSH1 0x0 KECCAK256 DUP2 SWAP1 SSTORE POP DUP4 PUSH20 0xFFFFFFFFFFFFFFFFFFFFFFFFFFFFFFFFFFFFFFFF AND DUP6 PUSH20 0xFFFFFFFFFFFFFFFFFFFFFFFFFFFFFFFFFFFFFFFF AND PUSH32 0x8C5BE1E5EBEC7D5BD14F71427D1E84F3DD0314C0F7B2291E5B200AC8C7C3B925 DUP6 PUSH1 0x40 MLOAD PUSH2 0x469 SWAP2 SWAP1 PUSH2 0xAB2 JUMP JUMPDEST PUSH1 0x40 MLOAD DUP1 SWAP2 SUB SWAP1 LOG3 PUSH2 0x47C DUP6 DUP6 DUP6 PUSH2 0x6A8 JUMP JUMPDEST SWAP2 POP POP SWAP4 SWAP3 POP POP POP JUMP JUMPDEST PUSH1 0x0 DUP1 PUSH20 0xFFFFFFFFFFFFFFFFFFFFFFFFFFFFFFFFFFFFFFFF AND DUP4 PUSH20 0xFFFFFFFFFFFFFFFFFFFFFFFFFFFFFFFFFFFFFFFF AND SUB PUSH2 0x4F6 JUMPI PUSH1 0x40 MLOAD PUSH32 0x8C379A000000000000000000000000000000000000000000000000000000000 DUP2 MSTORE PUSH1 0x4 ADD PUSH2 0x4ED SWAP1 PUSH2 0xD38 JUMP JUMPDEST PUSH1 0x40 MLOAD DUP1 SWAP2 SUB SWAP1 REVERT JUMPDEST DUP2 PUSH1 0x4 PUSH1 0x0 CALLER PUSH20 0xFFFFFFFFFFFFFFFFFFFFFFFFFFFFFFFFFFFFFFFF AND PUSH20 0xFFFFFFFFFFFFFFFFFFFFFFFFFFFFFFFFFFFFFFFF AND DUP2 MSTORE PUSH1 0x20 ADD SWAP1 DUP2 MSTORE PUSH1 0x20 ADD PUSH1 0x0 KECCAK256 PUSH1 0x0 DUP6 PUSH20 0xFFFFFFFFFFFFFFFFFFFFFFFFFFFFFFFFFFFFFFFF AND PUSH20 0xFFFFFFFFFFFFFFFFFFFFFFFFFFFFFFFFFFFFFFFF AND DUP2 MSTORE PUSH1 0x20 ADD SWAP1 DUP2 MSTORE PUSH1 0x20 ADD PUSH1 0x0 KECCAK256 DUP2 SWAP1 SSTORE POP DUP3 PUSH20 0xFFFFFFFFFFFFFFFFFFFFFFFFFFFFFFFFFFFFFFFF AND CALLER PUSH20 0xFFFFFFFFFFFFFFFFFFFFFFFFFFFFFFFFFFFFFFFF AND PUSH32 0x8C5BE1E5EBEC7D5BD14F71427D1E84F3DD0314C0F7B2291E5B200AC8C7C3B925 DUP5 PUSH1 0x40 MLOAD PUSH2 0x5D4 SWAP2 SWAP1 PUSH2 0xAB2 JUMP JUMPDEST PUSH1 0x40 MLOAD DUP1 SWAP2 SUB SWAP1 LOG3 PUSH1 0x1 SWAP1 POP SWAP3 SWAP2 POP POP JUMP JUMPDEST PUSH1 0x0 SLOAD DUP2 JUMP JUMPDEST PUSH1 0x0 PUSH1 0x12 SWAP1 POP SWAP1 JUMP JUMPDEST PUSH1 0x2 DUP1 SLOAD PUSH2 0x602 SWAP1 PUSH2 0xBC6 JUMP JUMPDEST DUP1 PUSH1 0x1F ADD PUSH1 0x20 DUP1 SWAP2 DIV MUL PUSH1 0x20 ADD PUSH1 0x40 MLOAD SWAP1 DUP2 ADD PUSH1 0x40 MSTORE DUP1 SWAP3 SWAP2 SWAP1 DUP2 DUP2 MSTORE PUSH1 0x20 ADD DUP3 DUP1 SLOAD PUSH2 0x62E SWAP1 PUSH2 0xBC6 JUMP JUMPDEST DUP1 ISZERO PUSH2 0x67B JUMPI DUP1 PUSH1 0x1F LT PUSH2 0x650 JUMPI PUSH2 0x100 DUP1 DUP4 SLOAD DIV MUL DUP4 MSTORE SWAP2 PUSH1 0x20 ADD SWAP2 PUSH2 0x67B JUMP JUMPDEST DUP3 ADD SWAP2 SWAP1 PUSH1 0x0 MSTORE PUSH1 0x20 PUSH1 0x0 KECCAK256 SWAP1 JUMPDEST DUP2 SLOAD DUP2 MSTORE SWAP1 PUSH1 0x1 ADD SWAP1 PUSH1 0x20 ADD DUP1 DUP4 GT PUSH2 0x65E JUMPI DUP3 SWAP1 SUB PUSH1 0x1F AND DUP3 ADD SWAP2 JUMPDEST POP POP POP POP POP DUP2 JUMP JUMPDEST PUSH1 0x4 PUSH1 0x20 MSTORE DUP2 PUSH1 0x0 MSTORE PUSH1 0x40 PUSH1 0x0 KECCAK256 PUSH1 0x20 MSTORE DUP1 PUSH1 0x0 MSTORE PUSH1 0x40 PUSH1 0x0 KECCAK256 PUSH1 0x0 SWAP2 POP SWAP2 POP POP SLOAD DUP2 JUMP JUMPDEST PUSH1 0x0 DUP1 PUSH20 0xFFFFFFFFFFFFFFFFFFFFFFFFFFFFFFFFFFFFFFFF AND DUP4 PUSH20 0xFFFFFFFFFFFFFFFFFFFFFFFFFFFFFFFFFFFFFFFF AND SUB PUSH2 0x718 JUMPI PUSH1 0x40 MLOAD PUSH32 0x8C379A000000000000000000000000000000000000000000000000000000000 DUP2 MSTORE PUSH1 0x4 ADD PUSH2 0x70F SWAP1 PUSH2 0xDA4 JUMP JUMPDEST PUSH1 0x40 MLOAD DUP1 SWAP2 SUB SWAP1 REVERT JUMPDEST PUSH1 0x0 PUSH1 0x3 PUSH1 0x0 DUP7 PUSH20 0xFFFFFFFFFFFFFFFFFFFFFFFFFFFFFFFFFFFFFFFF AND PUSH20 0xFFFFFFFFFFFFFFFFFFFFFFFFFFFFFFFFFFFFFFFF AND DUP2 MSTORE PUSH1 0x20 ADD SWAP1 DUP2 MSTORE PUSH1 0x20 ADD PUSH1 0x0 KECCAK256 SLOAD SWAP1 POP DUP3 DUP2 LT ISZERO PUSH2 0x79F JUMPI PUSH1 0x40 MLOAD PUSH32 0x8C379A000000000000000000000000000000000000000000000000000000000 DUP2 MSTORE PUSH1 0x4 ADD PUSH2 0x796 SWAP1 PUSH2 0xE36 JUMP JUMPDEST PUSH1 0x40 MLOAD DUP1 SWAP2 SUB SWAP1 REVERT JUMPDEST DUP3 DUP2 PUSH2 0x7AB SWAP2 SWAP1 PUSH2 0xCB8 JUMP JUMPDEST PUSH1 0x3 PUSH1 0x0 DUP8 PUSH20 0xFFFFFFFFFFFFFFFFFFFFFFFFFFFFFFFFFFFFFFFF AND PUSH20 0xFFFFFFFFFFFFFFFFFFFFFFFFFFFFFFFFFFFFFFFF AND DUP2 MSTORE PUSH1 0x20 ADD SWAP1 DUP2 MSTORE PUSH1 0x20 ADD PUSH1 0x0 KECCAK256 DUP2 SWAP1 SSTORE POP DUP3 PUSH1 0x3 PUSH1 0x0 DUP7 PUSH20 0xFFFFFFFFFFFFFFFFFFFFFFFFFFFFFFFFFFFFFFFF AND PUSH20 0xFFFFFFFFFFFFFFFFFFFFFFFFFFFFFFFFFFFFFFFF AND DUP2 MSTORE PUSH1 0x20 ADD SWAP1 DUP2 MSTORE PUSH1 0x20 ADD PUSH1 0x0 KECCAK256 PUSH1 0x0 DUP3 DUP3 SLOAD PUSH2 0x83D SWAP2 SWAP1 PUSH2 0xE56 JUMP JUMPDEST SWAP3 POP POP DUP2 SWAP1 SSTORE POP DUP4 PUSH20 0xFFFFFFFFFFFFFFFFFFFFFFFFFFFFFFFFFFFFFFFF AND DUP6 PUSH20 0xFFFFFFFFFFFFFFFFFFFFFFFFFFFFFFFFFFFFFFFF AND PUSH32 0xDDF252AD1BE2C89B69C2B068FC378DAA952BA7F163C4A11628F55A4DF523B3EF DUP6 PUSH1 0x40 MLOAD PUSH2 0x8A1 SWAP2 SWAP1 PUSH2 0xAB2 JUMP JUMPDEST PUSH1 0x40 MLOAD DUP1 SWAP2 SUB SWAP1 LOG3 PUSH1 0x1 SWAP2 POP POP SWAP4 SWAP3 POP POP POP JUMP JUMPDEST PUSH1 0x0 DUP1 REVERT JUMPDEST PUSH1 0x0 PUSH20 0xFFFFFFFFFFFFFFFFFFFFFFFFFFFFFFFFFFFFFFFF DUP3 AND SWAP1 POP SWAP2 SWAP1 POP JUMP JUMPDEST PUSH1 0x0 PUSH2 0x8E5 DUP3 PUSH2 0x8BA JUMP JUMPDEST SWAP1 POP SWAP2 SWAP1 POP JUMP JUMPDEST PUSH2 0x8F5 DUP2 PUSH2 0x8DA JUMP JUMPDEST DUP2 EQ PUSH2 0x900 JUMPI PUSH1 0x0 DUP1 REVERT JUMPDEST POP JUMP JUMPDEST PUSH1 0x0 DUP2 CALLDATALOAD SWAP1 POP PUSH2 0x912 DUP2 PUSH2 0x8EC JUMP JUMPDEST SWAP3 SWAP2 POP POP JUMP JUMPDEST PUSH1 0x0 DUP2 SWAP1 POP SWAP2 SWAP1 POP JUMP JUMPDEST PUSH2 0x92B DUP2 PUSH2 0x918 JUMP JUMPDEST DUP2 EQ PUSH2 0x936 JUMPI PUSH1 0x0 DUP1 REVERT JUMPDEST POP JUMP JUMPDEST PUSH1 0x0 DUP2 CALLDATALOAD SWAP1 POP PUSH2 0x948 DUP2 PUSH2 0x922 JUMP JUMPDEST SWAP3 SWAP2 POP POP JUMP JUMPDEST PUSH1 0x0 DUP1 PUSH1 0x40 DUP4 DUP6 SUB SLT ISZERO PUSH2 0x965 JUMPI PUSH2 0x964 PUSH2 0x8B5 JUMP JUMPDEST JUMPDEST PUSH1 0x0 PUSH2 0x973 DUP6 DUP3 DUP7 ADD PUSH2 0x903 JUMP JUMPDEST SWAP3 POP POP PUSH1 0x20 PUSH2 0x984 DUP6 DUP3 DUP7 ADD PUSH2 0x939 JUMP JUMPDEST SWAP2 POP POP SWAP3 POP SWAP3 SWAP1 POP JUMP JUMPDEST PUSH1 0x0 DUP2 ISZERO ISZERO SWAP1 POP SWAP2 SWAP1 POP JUMP JUMPDEST PUSH2 0x9A3 DUP2 PUSH2 0x98E JUMP JUMPDEST DUP3 MSTORE POP POP JUMP JUMPDEST PUSH1 0x0 PUSH1 0x20 DUP3 ADD SWAP1 POP PUSH2 0x9BE PUSH1 0x0 DUP4 ADD DUP5 PUSH2 0x99A JUMP JUMPDEST SWAP3 SWAP2 POP POP JUMP JUMPDEST PUSH1 0x0 DUP2 MLOAD SWAP1 POP SWAP2 SWAP1 POP JUMP JUMPDEST PUSH1 0x0 DUP3 DUP3 MSTORE PUSH1 0x20 DUP3 ADD SWAP1 POP SWAP3 SWAP2 POP POP JUMP JUMPDEST PUSH1 0x0 JUMPDEST DUP4 DUP2 LT ISZERO PUSH2 0x9FE JUMPI DUP1 DUP3 ADD MLOAD DUP2 DUP5 ADD MSTORE PUSH1 0x20 DUP2 ADD SWAP1 POP PUSH2 0x9E3 JUMP JUMPDEST PUSH1 0x0 DUP5 DUP5 ADD MSTORE POP POP POP POP JUMP JUMPDEST PUSH1 0x0 PUSH1 0x1F NOT PUSH1 0x1F DUP4 ADD AND SWAP1 POP SWAP2 SWAP1 POP JUMP JUMPDEST PUSH1 0x0 PUSH2 0xA26 DUP3 PUSH2 0x9C4 JUMP JUMPDEST PUSH2 0xA30 DUP2 DUP6 PUSH2 0x9CF JUMP JUMPDEST SWAP4 POP PUSH2 0xA40 DUP2 DUP6 PUSH1 0x20 DUP7 ADD PUSH2 0x9E0 JUMP JUMPDEST PUSH2 0xA49 DUP2 PUSH2 0xA0A JUMP JUMPDEST DUP5 ADD SWAP2 POP POP SWAP3 SWAP2 POP POP JUMP JUMPDEST PUSH1 0x0 PUSH1 0x20 DUP3 ADD SWAP1 POP DUP2 DUP2 SUB PUSH1 0x0 DUP4 ADD MSTORE PUSH2 0xA6E DUP2 DUP5 PUSH2 0xA1B JUMP JUMPDEST SWAP1 POP SWAP3 SWAP2 POP POP JUMP JUMPDEST PUSH1 0x0 PUSH1 0x20 DUP3 DUP5 SUB SLT ISZERO PUSH2 0xA8C JUMPI PUSH2 0xA8B PUSH2 0x8B5 JUMP JUMPDEST JUMPDEST PUSH1 0x0 PUSH2 0xA9A DUP5 DUP3 DUP6 ADD PUSH2 0x903 JUMP JUMPDEST SWAP2 POP POP SWAP3 SWAP2 POP POP JUMP JUMPDEST PUSH2 0xAAC DUP2 PUSH2 0x918 JUMP JUMPDEST DUP3 MSTORE POP POP JUMP JUMPDEST PUSH1 0x0 PUSH1 0x20 DUP3 ADD SWAP1 POP PUSH2 0xAC7 PUSH1 0x0 DUP4 ADD DUP5 PUSH2 0xAA3 JUMP JUMPDEST SWAP3 SWAP2 POP POP JUMP JUMPDEST PUSH1 0x0 DUP1 PUSH1 0x0 PUSH1 0x60 DUP5 DUP7 SUB SLT ISZERO PUSH2 0xAE6 JUMPI PUSH2 0xAE5 PUSH2 0x8B5 JUMP JUMPDEST JUMPDEST PUSH1 0x0 PUSH2 0xAF4 DUP7 DUP3 DUP8 ADD PUSH2 0x903 JUMP JUMPDEST SWAP4 POP POP PUSH1 0x20 PUSH2 0xB05 DUP7 DUP3 DUP8 ADD PUSH2 0x903 JUMP JUMPDEST SWAP3 POP POP PUSH1 0x40 PUSH2 0xB16 DUP7 DUP3 DUP8 ADD PUSH2 0x939 JUMP JUMPDEST SWAP2 POP POP SWAP3 POP SWAP3 POP SWAP3 JUMP JUMPDEST PUSH1 0x0 PUSH1 0xFF DUP3 AND SWAP1 POP SWAP2 SWAP1 POP JUMP JUMPDEST PUSH2 0xB36 DUP2 PUSH2 0xB20 JUMP JUMPDEST DUP3 MSTORE POP POP JUMP JUMPDEST PUSH1 0x0 PUSH1 0x20 DUP3 ADD SWAP1 POP PUSH2 0xB51 PUSH1 0x0 DUP4 ADD DUP5 PUSH2 0xB2D JUMP JUMPDEST SWAP3 SWAP2 POP POP JUMP JUMPDEST PUSH1 0x0 DUP1 PUSH1 0x40 DUP4 DUP6 SUB SLT ISZERO PUSH2 0xB6E JUMPI PUSH2 0xB6D PUSH2 0x8B5 JUMP JUMPDEST JUMPDEST PUSH1 0x0 PUSH2 0xB7C DUP6 DUP3 DUP7 ADD PUSH2 0x903 JUMP JUMPDEST SWAP3 POP POP PUSH1 0x20 PUSH2 0xB8D DUP6 DUP3 DUP7 ADD PUSH2 0x903 JUMP JUMPDEST SWAP2 POP POP SWAP3 POP SWAP3 SWAP1 POP JUMP JUMPDEST PUSH32 0x4E487B7100000000000000000000000000000000000000000000000000000000 PUSH1 0x0 MSTORE PUSH1 0x22 PUSH1 0x4 MSTORE PUSH1 0x24 PUSH1 0x0 REVERT JUMPDEST PUSH1 0x0 PUSH1 0x2 DUP3 DIV SWAP1 POP PUSH1 0x1 DUP3 AND DUP1 PUSH2 0xBDE JUMPI PUSH1 0x7F DUP3 AND SWAP2 POP JUMPDEST PUSH1 0x20 DUP3 LT DUP2 SUB PUSH2 0xBF1 JUMPI PUSH2 0xBF0 PUSH2 0xB97 JUMP JUMPDEST JUMPDEST POP SWAP2 SWAP1 POP JUMP JUMPDEST PUSH32 0x4572633230207472616E7366657220616D6F756E74206D757374206578636565 PUSH1 0x0 DUP3 ADD MSTORE PUSH32 0x6420616C6C6F77616E6365000000000000000000000000000000000000000000 PUSH1 0x20 DUP3 ADD MSTORE POP JUMP JUMPDEST PUSH1 0x0 PUSH2 0xC53 PUSH1 0x2B DUP4 PUSH2 0x9CF JUMP JUMPDEST SWAP2 POP PUSH2 0xC5E DUP3 PUSH2 0xBF7 JUMP JUMPDEST PUSH1 0x40 DUP3 ADD SWAP1 POP SWAP2 SWAP1 POP JUMP JUMPDEST PUSH1 0x0 PUSH1 0x20 DUP3 ADD SWAP1 POP DUP2 DUP2 SUB PUSH1 0x0 DUP4 ADD MSTORE PUSH2 0xC82 DUP2 PUSH2 0xC46 JUMP JUMPDEST SWAP1 POP SWAP2 SWAP1 POP JUMP JUMPDEST PUSH32 0x4E487B7100000000000000000000000000000000000000000000000000000000 PUSH1 0x0 MSTORE PUSH1 0x11 PUSH1 0x4 MSTORE PUSH1 0x24 PUSH1 0x0 REVERT JUMPDEST PUSH1 0x0 PUSH2 0xCC3 DUP3 PUSH2 0x918 JUMP JUMPDEST SWAP2 POP PUSH2 0xCCE DUP4 PUSH2 0x918 JUMP JUMPDEST SWAP3 POP DUP3 DUP3 SUB SWAP1 POP DUP2 DUP2 GT ISZERO PUSH2 0xCE6 JUMPI PUSH2 0xCE5 PUSH2 0xC89 JUMP JUMPDEST JUMPDEST SWAP3 SWAP2 POP POP JUMP JUMPDEST PUSH32 0x657263323020617070726F766520746F20746865206164647265737300000000 PUSH1 0x0 DUP3 ADD MSTORE POP JUMP JUMPDEST PUSH1 0x0 PUSH2 0xD22 PUSH1 0x1C DUP4 PUSH2 0x9CF JUMP JUMPDEST SWAP2 POP PUSH2 0xD2D DUP3 PUSH2 0xCEC JUMP JUMPDEST PUSH1 0x20 DUP3 ADD SWAP1 POP SWAP2 SWAP1 POP JUMP JUMPDEST PUSH1 0x0 PUSH1 0x20 DUP3 ADD SWAP1 POP DUP2 DUP2 SUB PUSH1 0x0 DUP4 ADD MSTORE PUSH2 0xD51 DUP2 PUSH2 0xD15 JUMP JUMPDEST SWAP1 POP SWAP2 SWAP1 POP JUMP JUMPDEST PUSH32 0x6572633230207472616E7366657220746F206164647265737320300000000000 PUSH1 0x0 DUP3 ADD MSTORE POP JUMP JUMPDEST PUSH1 0x0 PUSH2 0xD8E PUSH1 0x1B DUP4 PUSH2 0x9CF JUMP JUMPDEST SWAP2 POP PUSH2 0xD99 DUP3 PUSH2 0xD58 JUMP JUMPDEST PUSH1 0x20 DUP3 ADD SWAP1 POP SWAP2 SWAP1 POP JUMP JUMPDEST PUSH1 0x0 PUSH1 0x20 DUP3 ADD SWAP1 POP DUP2 DUP2 SUB PUSH1 0x0 DUP4 ADD MSTORE PUSH2 0xDBD DUP2 PUSH2 0xD81 JUMP JUMPDEST SWAP1 POP SWAP2 SWAP1 POP JUMP JUMPDEST PUSH32 0x6572633230207472616E7366657220616D6F756E742065786365656473206261 PUSH1 0x0 DUP3 ADD MSTORE PUSH32 0x6C616E6365000000000000000000000000000000000000000000000000000000 PUSH1 0x20 DUP3 ADD MSTORE POP JUMP JUMPDEST PUSH1 0x0 PUSH2 0xE20 PUSH1 0x25 DUP4 PUSH2 0x9CF JUMP JUMPDEST SWAP2 POP PUSH2 0xE2B DUP3 PUSH2 0xDC4 JUMP JUMPDEST PUSH1 0x40 DUP3 ADD SWAP1 POP SWAP2 SWAP1 POP JUMP JUMPDEST PUSH1 0x0 PUSH1 0x20 DUP3 ADD SWAP1 POP DUP2 DUP2 SUB PUSH1 0x0 DUP4 ADD MSTORE PUSH2 0xE4F DUP2 PUSH2 0xE13 JUMP JUMPDEST SWAP1 POP SWAP2 SWAP1 POP JUMP JUMPDEST PUSH1 0x0 PUSH2 0xE61 DUP3 PUSH2 0x918 JUMP JUMPDEST SWAP2 POP PUSH2 0xE6C DUP4 PUSH2 0x918 JUMP JUMPDEST SWAP3 POP DUP3 DUP3 ADD SWAP1 POP DUP1 DUP3 GT ISZERO PUSH2 0xE84 JUMPI PUSH2 0xE83 PUSH2 0xC89 JUMP JUMPDEST JUMPDEST SWAP3 SWAP2 POP POP JUMP INVALID LOG2 PUSH5 0x6970667358 0x22 SLT KECCAK256 0x2C 0xCA SWAP1 0x4B LT GT 0xD3 0xD3 MSIZE 0xD3 CREATE2 0xBA PUSH32 0x108904369904EC1D99F1588B603185B754100A64736F6C634300081200330000 "
				},
				"gasEstimates": {
					"creation": {
						"codeDepositCost": "755200",
						"executionCost": "infinite",
						"totalCost": "infinite"
					},
					"external": {
						"allowance(address,address)": "infinite",
						"appropve(address,uint256)": "infinite",
						"balanceof(address)": "2859",
						"decimal()": "387",
						"name()": "infinite",
						"symbol()": "infinite",
						"totalsupply()": "2451",
						"transferFrom(address,uint256)": "infinite",
						"transferfrom(address,address,uint256)": "infinite"
					},
					"internal": {
						"_burn(address,uint256)": "infinite",
						"_mint(address,uint256)": "infinite",
						"_transfer(address,address,uint256)": "infinite"
					}
				},
				"methodIdentifiers": {
					"allowance(address,address)": "dd62ed3e",
					"appropve(address,uint256)": "68865d7f",
					"balanceof(address)": "3d64125b",
					"decimal()": "76809ce3",
					"name()": "06fdde03",
					"symbol()": "95d89b41",
					"totalsupply()": "72dd529b",
					"transferFrom(address,uint256)": "01c6adc3",
					"transferfrom(address,address,uint256)": "63b0545f"
				}
			},
			"storageLayout": {
				"storage": [
					{
						"astId": 3,
						"contract": "contracts/Alaneme/AlanemeBUNN.sol:ERC20",
						"label": "totalsupply",
						"offset": 0,
						"slot": "0",
						"type": "t_uint256"
					},
					{
						"astId": 5,
						"contract": "contracts/Alaneme/AlanemeBUNN.sol:ERC20",
						"label": "name",
						"offset": 0,
						"slot": "1",
						"type": "t_string_storage"
					},
					{
						"astId": 7,
						"contract": "contracts/Alaneme/AlanemeBUNN.sol:ERC20",
						"label": "symbol",
						"offset": 0,
						"slot": "2",
						"type": "t_string_storage"
					},
					{
						"astId": 11,
						"contract": "contracts/Alaneme/AlanemeBUNN.sol:ERC20",
						"label": "balanceof",
						"offset": 0,
						"slot": "3",
						"type": "t_mapping(t_address,t_uint256)"
					},
					{
						"astId": 17,
						"contract": "contracts/Alaneme/AlanemeBUNN.sol:ERC20",
						"label": "allowance",
						"offset": 0,
						"slot": "4",
						"type": "t_mapping(t_address,t_mapping(t_address,t_uint256))"
					}
				],
				"types": {
					"t_address": {
						"encoding": "inplace",
						"label": "address",
						"numberOfBytes": "20"
					},
					"t_mapping(t_address,t_mapping(t_address,t_uint256))": {
						"encoding": "mapping",
						"key": "t_address",
						"label": "mapping(address => mapping(address => uint256))",
						"numberOfBytes": "32",
						"value": "t_mapping(t_address,t_uint256)"
					},
					"t_mapping(t_address,t_uint256)": {
						"encoding": "mapping",
						"key": "t_address",
						"label": "mapping(address => uint256)",
						"numberOfBytes": "32",
						"value": "t_uint256"
					},
					"t_string_storage": {
						"encoding": "bytes",
						"label": "string",
						"numberOfBytes": "32"
					},
					"t_uint256": {
						"encoding": "inplace",
						"label": "uint256",
						"numberOfBytes": "32"
					}
				}
			},
			"userdoc": {
				"kind": "user",
				"methods": {},
				"version": 1
			}
		}
	}
}